:020000022000DC
:1060000000000120DDE4020005E50200B18D020080
:1060100009E502000BE502000DE5020000000000AA
:106020000000000000000000000000000FE502007A
:1060300011E502000000000013E5020015E5020072
:106040003DB5020017E50200F5B9020079C402006F
:1060500011BD020017E5020069B8020065BB02002D
:1060600039C4020049C4020059C4020017E5020005
:1060700017E5020017E5020017E5020017E5020028
:1060800017E502005188020017E5020017E502003B
:10609000ED88020017E5020091DF020017E502001B
:1060A00017E5020017E5020017E5020017E50200F8
:1060B0001DBB020017E50200000000000000000008
:1060C00017E502002DBB02003DBB020017E50200F0
:1060D00017E5020017E5020017E5020000000000C6
:1060E00000000000000000000000000000000000B0
:1060F00000000000000000000000000000000000A0
:10610000000000000000000000000000000000008F
:10611000000000000000000000000000000000007F
:10612000000000000000000000000000000000006F
:10613000000000000000000000000000000000005F
:10614000000000000000000000000000000000004F
:10615000000000000000000000000000000000003F
:10616000000000000000000000000000000000002F
:10617000000000000000000000000000000000001F
:10618000000000000000000000000000000000000F
:1061900000000000000000000000000000000000FF
:1061A00000000000000000000000000000000000EF
:1061B00000000000000000000000000000000000DF
:1061C00000000000000000000000000000000000CF
:1061D00000000000000000000000000000000000BF
:1061E00000000000000000000000000000000000AF
:1061F000000000000000000000000000000000009F
:1062000010B5054C237833B9044B13B10448AFF3F0
:1062100000800123237010BD88A200200000000030
:106220006C89030008B5034B1BB103490348AFF366
:10623000008008BD000000008CA200206C890300D3
:10624000154B002B08BF134B9D46A3F5803A002148
:106250008B460F461348144A121A08F093FA0F4B54
:10626000002B00D098470E4B002B00D09847002001
:10627000002104000D000D48002802D00C480CF04D
:106280004DFB08F05DF92000290000F02DFC08F01E
:1062900047F900BF000008000000012000000000D6
:1062A0000000000088A2002070B600201D29030015
:1062B000ED3A03002DE9F04F2DED0A8BC048C14F98
:1062C000A5B0B0EE40AAB0EE60CA08F0A5FA602210
:1062D00000210CA808F056FA4FF0A0431022C3F892
:1062E000182500242022C3F80C47C3F818254FF4C2
:1062F0000052C3F80847A046C3F818252546C3F83E
:10630000404726460CA801F019FC0D2CFAD801A331
:1063100053F824F0536302003B650200FD65020060
:106320000563020089640200A3660200056302009F
:1063300005630200056302000563020005630200B5
:106340000563020005630200716302000D2400264C
:10635000D8E70CA801F0D0FB81460028F6D1014611
:10636000994801F0E1F84946484601F041FCC9E787
:106370000021084601F03CFC0021944801F0D4F8CB
:106380000A2310220D2105A800F034FD04A80A23D9
:1063900003220421F0EE40AA00F02CFD0CA8B0EE80
:1063A000409A01F0A9FB00286CD17AEE6A9A19EEA6
:1063B000900A0FF073FD82468B464BEC10AB0FF04A
:1063C00025FB0022824B51EC100B10F04FF80446D5
:1063D000F8B1804808F020FA1AEE100A0FF05EFDBE
:1063E00002460B467C4808F017FA1AEE900A0FF0A6
:1063F00055FD0B460246794808F00EFA52465B46B8
:10640000384608F009FAF0EE698A01F0B9FF042471
:1064100078E739EE4C9A19EE100A0FF03FFD41EC87
:10642000100B41EC1B0B0FF0F1FA0022684B51EC02
:10643000100B10F01BF808B3694808F0EDF9B0EE46
:106440004B0AF0EE6B0A0FF0E1FA51EC100B10F072
:1064500055F8B5EEC09AF1EE10FA08EE900ABDF8C4
:1064600042802146204605DB01F0C2FB01249FED5E
:10647000628A47E701F0BCFB0224F8E7014659486D
:1064800001F052F800243DE701F09EFF0CA88DEDCD
:10649000021A01F031FB9DED021A814610B101F0A4
:1064A0008DFFEFE711EE100A0FF0F8FC41EC100B36
:1064B00041EC190B0FF0AAFA00224B4B51EC100BD8
:1064C0000FF0CAFF824628B301F078FFF5EEC08ACC
:1064D000F1EE10FA08DB49464846BDF8428001F06B
:1064E00087FB01240126C2E718EE900A0FF0D6FCC4
:1064F00041EC100B0FF08AFA51EC100B0FF0FEFF7D
:10650000494608EE900A4846BDF84280022401F050
:106510006FFBE7E73A4610218DED009B334808F00A
:1065200035FD5146324800F0FFFF01212F4800F0B1
:10653000FBFF32216FF0310017E7052395FBF3F3E2
:1065400003EB83039D4203D19FED2B0A00F05AF920
:106550000CA801F0D1FA01358246002892D1B4EEA0
:10656000E88AF1EE10FA09DB014601F041FB002E4A
:1065700000F0B98001F004FF0524C3E6BDF84290A5
:106580004146484600F008F938EE008AC84618EE41
:10659000100A0FF083FC3A46CDE9000110211348A0
:1065A00008F0F4FC5146134800F0BEFF01210F48EB
:1065B00000F0BAFF3221372001F01AFBA2E600BF3B
:1065C000B468030008690300D2680300E3680300AD
:1065D00000002440ED680300F96803000B69030024
:1065E0001D6903002969030000405540ACB5002037
:1065F000336903003D69030000000000322295FB6F
:10660000F2F302FB13531BB91FED050A00F0FAF871
:106610000CA8013501F070FA00287FF433AF18EEB2
:10662000100A0FF03BFC41EC100B0FF0EFF918EEE5
:10663000900A8DED020B0FF031FC9DED020B02462E
:106640000B4651EC100B0FF007FF834600288ED14C
:10665000BDF842A04146504600F09EF838EE008A50
:1066600018EE100A0FF01AFC0B46804689460246C7
:10667000284808F0D1F83A46CDE90089102126488B
:1066800008F084FC5946254800F04EFF01212248BD
:1066900000F04AFF6FF03101084601F0A9FAD04638
:1066A00030E601F091FE0CA88DED021A01F024FAFB
:1066B0009DED021A814600287FF4F1AE11EE100A1A
:1066C0000FF0ECFB41EC100B41EC190B0FF09EF9B5
:1066D0000022134B51EC100B0FF0BEFE824620B18E
:1066E00001F06CFE4E460D240CE66FF031013220B5
:1066F00001F07EFA3A468DED009B1021064808F025
:1067000045FC5146074800F00FFF0121024800F008
:106710000BFFF7E545690300ACB50020586903009D
:10672000004055406269030008B50B1A07EE903A25
:106730009FED177AF8EEE77A8842F4EEC77A18D31D
:10674000F1EE10FA1BDB01F57F41FF31081A07EE6D
:10675000900AF8EEE77A17EE900A0FF09FFB0AA373
:10676000D3E900230FF0F2FB0FF0C8FE00EE100A91
:1067700008BDF1EE10FA84BF00F57F40FF30401AEB
:10678000E5E700BFAFF30080316F1F03C303443F51
:1067900000FFFF460000000008B50B1A07EE903A14
:1067A0009FED177AF8EEE77A8842F4EEC77A18D3AD
:1067B000F1EE10FA1BDB01F57F41FF31081A07EEFD
:1067C000900AF8EEE77A17EE900A0FF067FB0AA33B
:1067D000D3E900230FF0BAFB0FF090FE00EE100A91
:1067E00008BDF1EE10FA84BF00F57F40FF30401A7B
:1067F000E5E700BFAFF30080BD1DE1B4E045AF3F6A
:1068000000FFFF462DE9F04F2DED048BA548DFF882
:10681000D092DFF8D082A44FA3B0F0EE408A07F008
:10682000FBFF602200210AA807F0ACFF4FF0A04355
:106830001022C3F8182500252022C3F80C57C3F8EE
:1068400018254FF40052C3F808570724C3F8182539
:106850000026C3F840570AA801F070F90B2CFAD8AB
:1068600001A353F824F000BF9D680200576802009E
:106870005768020057680200576802005768020014
:1068800057680200CD68020057680200576802008E
:10689000476A0200B56902000446DCE7834807F056
:1068A000BBFF0AA801F028F9044668B90346804AEC
:1068B0008048102108F06AFB21467E4800F034FE33
:1068C00001217D4800F030FE00209CE001F076FDC3
:1068D0007A4807F0A1FF0AA801F00EF9002877D145
:1068E000F1EE087AF4EEE78AF1EE10FA04DB01F03B
:1068F00047FD01250A24AEE7F9EE087AF4EEE78AAF
:10690000F1EE10FA04D801F03BFD01250B24A2E7BB
:106910006B4807F081FF05231946022202A800F008
:1069200069FA6848B0EE408A07F076FF0523102226
:106930000D2103A800F05EFA6348B0EE409A07F01C
:106940006BFF38EE498A18EE100A0FF0A7FA0246DC
:1069500082460B465D488B4607F05EFFF1EE027AF9
:10696000B4EEE78AF1EE10FA0DDD4BEC10AB0FF050
:106970004DF832463B4651EC100B0FF059FD10B16B
:1069800001F0FEFCB6E7F9EE027AB4EEE78AF1EE2A
:1069900010FA1DD54BEC10AB0FF038F832463B46E1
:1069A00051EC100B0FF044FD00283FF475AF01F0DF
:1069B000E7FCABE7464807F02FFF01F005FD0AA80A
:1069C000B0EE419A01F098F8824618B101F0F6FC59
:1069D000002440E7B0EE008AB4EEC89AF1EE10FA57
:1069E00018DD01F0EBFC002D58D018EE900A0FF0E6
:1069F00055FA41EC100B0FF009F851EC100B0FF0A9
:106A00007DFD80F0004000EE100A23B0BDEC048B49
:106A1000BDE8F08F19EE100A0FF040FA4246CDE9BA
:106A2000000110212B4808F0B1FA0121294800F09B
:106A30007BFD5146284800F077FD4B216FF04A005E
:106A400001F0D6F807E7484607F0E6FE01F0BCFC87
:106A50000AA8B0EE419A01F04FF882460028B5D15D
:106A6000B8EE008AB4EEC89AF1EE10FAB9D419EE75
:106A7000100A0FF013FA4246CDE900011021154823
:106A800008F084FA0121134800F04EFD51461348E6
:106A900000F04AFD6FF04A014B20D1E718EE100AD2
:106AA000B1E700BF6D69030000003440886903004E
:106AB0008C6903009CB50020EA7903008F6903000C
:106AC000966903009E690300A6690300AE6903008E
:106AD000BE690300ACB50020CF690300D66903008E
:106AE000C56903000869030070B54FF400418EB01A
:106AF000002003F0BDF818B13F4A522101F055FEC5
:106B000002F0E4FF3D483E4C07F086FE4FF0A04304
:106B10004FF40002C3F818254FF08072C3F818250F
:106B20004FF00072C3F8182594E80F0002AD10343E
:106B300085E80F0094E80F0006AE86E80F000023FA
:106B40001A463146284602F0ADFB18B12A4A69219F
:106B500001F02BFE284600F06FFC0021294800F0D0
:106B6000E3FC294807F058FE284B0FCB0AAC84E819
:106B70000F001322142321462548CDE90A2304F0EF
:106B8000AFFB18B11C4A742101F00FFE204801F040
:106B900025FB204807F040FE0C2300248DF8003030
:106BA0001B488DF8014001238DF802308DF8034019
:106BB0008DF8044001F0CCFC6B4693E8030001F033
:106BC000CDFC054601F0ECFC2946134807F024FEF5
:106BD00000F068FF114807F01FFE01F0D9FF00F038
:106BE00057F900F091F9D0ED010A90ED000AFFF796
:106BF00061FB20460EB070BD106A0300176A0300E7
:106C0000E0690300296A0300376A0300006A030091
:106C1000906A03004D6A03005F6A0300796A03000B
:106C200090ED007AD1ED007AB4EEE77AF1EE10FA49
:106C3000CCBF012000204CBF01230023C01A7047A5
:106C4000064A136801331360054B1B68022B0CBF07
:106C5000044A054A0023C2F844317047E4A20020E8
:106C6000AC98002000A000400090004002494FF482
:106C7000F37007F0BBBA00BF446B030000000000D4
:106C80002DE9F843884607463B48164607F0C4FD01
:106C9000B8F11F0F01D9FFF7E9FF01254FF0A04917
:106CA000364C05FA08F5C9F80C5544F001044FF4C8
:106CB000A060A047B8F11F0F01D9FFF7D7FFC9F8AF
:106CC00008554FF44070A047B8F11F0F01D9FFF7E6
:106CD000CDFF4FF0A0484FF4A060C8F80C55A04776
:106CE000274807F099FD274807F096FD0125B54094
:106CF0001F2E01D9FFF7BAFFD8F810351D42F7D083
:106D0000214C22480023236007F086FDA0464FF067
:106D1000A0491F2E01D9FFF7A9FFD9F810452C4033
:106D2000F7D11B4807F078FDD8ED007A194BF8EE43
:106D3000677A93ED007A67EE877A17EE900A0FF084
:106D4000ADF80BA3D3E900230FF000F90FF0D6FB49
:106D50009FED117A07EE900AF4EEC77AF1EE10FA81
:106D600046BFC7ED007A01202046BDE8F88300BF8A
:106D70009CC420B07268913FC66A0300C06A0300D9
:106D8000CA6A0300CE6A0300E4A20020D26A0300AC
:106D9000D66A0300A89800200000C84338B5042232
:106DA0000D46134B044607F04BFDEB074FF0020076
:106DB00095FBF0F00CD404EB8004D4ED007A14EDD4
:106DC000010A30EE270AF6EE007A20EE270A38BDD7
:106DD0000FF052F841EC100B0EF022FE51EC100BAC
:106DE0000FF064FB04EB800090ED000AEFE700BFBA
:106DF000216C02002DE9F84F1C469B000A3323F05A
:106E0000070300AF8146ADEB030D1C488A4693464D
:106E100007F002FD6E46B0460025A54213DB214671
:106E20003046FFF7BBFF10EE100A0FF037F80246AE
:106E30000B46134807F0F0FC21463046FFF7AEFF43
:106E4000BD46BDE8F88F0F4807F0E6FC5A465146AC
:106E50004846FFF715FF0028F8D00B4807F0DCFC88
:106E6000D9F8000048F8040B0FF018F802460B465A
:106E70000648294607F0D0FC0135CEE70C6B03002D
:106E8000386B0300116B0300166B03001B6B0300D0
:106E90001FB5164A92E8030002AB002283E8030004
:106EA0008DF80A201946124A124805F04FF920B110
:106EB000114A40F2252101F078FC012100910223C2
:106EC0004FF4FA720B4805F0A0FA0C4B0C4A1A600A
:106ED00018680EF0E3FF02460B460A4807F09CFCD8
:106EE000044805F0EBF905B05DF804FBA86A03005F
:106EF000416C0200B06A0300E26A0300A898002017
:106F00000000FA41876B03002DE9F04F4FF0A043DA
:106F10002DED048B1022C3F8182500252022C3F87C
:106F20000C57ABB0C3F818254FF40052C3F80857FC
:106F30002946C3F8182512A8C3F840576022DFED90
:106F4000CE8A07F01FFCCD4B18EE90BA43F0010338
:106F5000B0EE689AB0EE688A2C462F46A8462E46B8
:106F60000593DFF87C93484607F056FC12A800F022
:106F7000E5FD062CF7D801A353F824F0A56F020015
:106F8000EF6F020027730200676F0200A171020019
:106F90001371020011720200DFEDB78AB0EE688A49
:106FA0000124DEE701F00AFA0021084600F020FE85
:106FB000B34807F031FC12A800F09EFD014660B115
:106FC000DFEDAD8AAF4B0793BDF85A80BDF85C701A
:106FD000B0EE689A01F0D4F9E0E7AB489FEDA68ADD
:106FE00000F0A2FA0121A94800F09EFAB9E70523B2
:106FF00096FBF3F303EB83039E4209D1B0EE680ADC
:10700000FFF700FC4FF47A40059B78EE808A9847A2
:107010009F4807F001FC12A800F06EFD0136824681
:10702000002840F084809DED077AF2EE0E7AB4EEEF
:10703000E77AF1EE10FA18D858460EF02FFF024604
:107040000B46944807F0E8FB18EE100A0EF026FFF6
:1070500002460B468F4807F0DFFB8A4B079318EE7A
:1070600010BA02249FED848A7BE7012303220421C6
:1070700007A8FFF7BFFE0798DFED7F8A0EF00EFF2F
:1070800002460B46844807F0C7FBBDF85A904146BC
:107090004846FFF749FB38EE008A18EE100A0EF05A
:1070A000FDFE02460B46CDE902017C4807F0B4FB29
:1070B00049467B4807F0B0FBBDF85C803946404646
:1070C000FFF732FB39EE009A474619EE100A0EF030
:1070D000E5FE0B460246734807F09EFB41467248A8
:1070E00007F09AFB9DED027B704A71488DED007BA5
:1070F000102107F04BFF51466E4800F015FA0121B0
:107100006B4800F011FA3C21412000F071FDC846A7
:1071100027E7694807F080FB01F056F912A8F0EE66
:10712000419A00F0E9FC814630B101F047F90024B2
:107130009FED518AA04614E7DFED607AF4EEE79AFE
:10714000F1EE10FA13D8014600F052FD01F036F9C5
:10715000BDF85A80002D3FF41FAF5948594B0360CA
:10716000594B43602BB0BDEC048BBDE8F08F19EE9A
:10717000900A0EF093FE4D4ACDE9000110214C48D3
:1071800007F004FF4946514800F0CEF90121484874
:1071900000F0CAF96FF03101322000F029FDE0E67D
:1071A0004B4807F039FB01F00FF912A8F0EE419AB5
:1071B00000F0A2FC81460028B7D1DFED467AF4EE5C
:1071C000E79AF1EE10FA0CDB014600F011FD2D4BB1
:1071D000BDF85A8007939FED288A01F0EFF8062446
:1071E000BFE619EE900A0EF059FE304ACDE90001D3
:1071F00010212F4807F0CAFE4946374800F094F99D
:1072000001212B4800F090F932216FF03100C4E7E2
:10721000324807F001FB12A800F06EFC81460028FE
:1072200085D118EE100A0EF039FE11A3D3E9002320
:107230000FF012F98246002854D00A2303220421B9
:1072400007A8FFF7D7FDF2EE047AB4EE670AF1EE75
:1072500010FA98BF012501F093F84946484600F01E
:10726000C7FC9FED058A05247BE600BFAFF30080D5
:107270009A9999999999C93F00000000A06B030061
:10728000AF6B030000004842B46B0300EA790300CF
:10729000B86B0300C16B0300346B0300CF6B0300BA
:1072A000DE6B0300E86B0300F86B03000869030062
:1072B000ACB500203D690300036C03000000AEC2C2
:1072C000E8A2002000007F410040D5416269030030
:1072D0000F6C03000000A042336903001A6C030026
:1072E000A66B0300BDF85A9041464846FFF71CFACA
:1072F00038EE008AC84618EE100A0EF0CFFD394A63
:10730000CDE900011021384807F040FE51463748CA
:1073100000F00AF90121344800F006F9322108464C
:1073200000F066FC1DE6324807F076FA052396FB6E
:10733000F3F303EB83039E4207D19FED2E0AFFF781
:1073400061FA4FF47A40059B984712A8013600F085
:10735000D3FB00287FF4EBAE18EE100A0EF09EFD72
:1073600041EC100B0EF052FB58468DED020B0EF067
:1073700095FD9DED020B02460B4651EC100B0FF0F4
:107380006BF8029028B100F0FBFF9FED1A8A0424ED
:10739000E7E5BDF85AA041465046FFF7C5F938EE7B
:1073A000008A18EE100A0EF079FD0B4680468946D9
:1073B0000246114807F030FA0A4ACDE90089102147
:1073C0000EA807F0E3FD02990C4800F0ADF801218A
:1073D0000EA800F0A9F86FF03B01084600F008FC89
:1073E000D046BEE508690300ACB50020276C030059
:1073F000336C030000000000456903005869030076
:107400001FB500220091022369460430CDE9013204
:10741000039204F0BDFD05B05DF804FB38B5054DE1
:107420000A2445F001054FF47A40A847013CFAD1FF
:1074300038BD00BF406C030073B502AC0E2324F8C6
:10744000043D374E21463060FFF7DAFF0546C0B1F4
:10745000344A182101F0A9F9284602B070BD314A1A
:107460002221F7E72F4A2C21F4E72E4A3621F1E7B3
:107470002C4A4021EEE72B4A4A21EBE7294A5421C6
:10748000E8E7FFF7CBFF022321463068ADF8043070
:10749000FFF7B6FF05460028E1D1FFF7BFFF4FF425
:1074A000804321463068ADF80430FFF7A9FF054658
:1074B0000028D7D1FFF7B2FF48F201032146306818
:1074C000ADF80430FFF79CFF05460028CDD1FFF74B
:1074D000A5FF4FF4004321463068ADF80430FFF7B4
:1074E0008FFF05460028C3D1FFF798FF44F203033E
:1074F00021463068ADF80430FFF782FF05460028CA
:10750000B9D1FFF78BFF402321463068ADF8043036
:10751000FFF776FF05460028B0D1FFF77FFF9BE716
:10752000F0A20020466C03002DE9F34107460C460B
:1075300007F0E6FD102806463CD85CBB02A92023D4
:1075400021F8043D1F4B1868FFF75AFF0446C8B9DD
:10755000DFF870800025B54238BF7B5DD8F80000A9
:1075600028BF20239A0862F07F029B0101A98DF8B1
:1075700004208DF80530FFF743FF0446F0B1124AAE
:107580008E2101E0104A6D2101F00FF9204602B072
:10759000BDE8F081012C0FD102A9302321F8043D70
:1075A000084B1868FFF72CFF04460028D0D0064A85
:1075B0007521E9E70924E9E70B24E7E70135102DF8
:1075C000C9D1E3E7F0A20020466C03002DE9F04F9B
:1075D0005D4C87B0002389468DF80F30074600F0D8
:1075E00055FA4FF0FF31206803F0BCFCA0468246FC
:1075F00038B10146554807F00FF9504607B0BDE8CD
:10760000F08F206803F00CFD044628B10146504875
:1076100007F002F9A246F0E7B9F1040F40F28B80BF
:107620000546002600E05546042EFDD801A353F878
:1076300026F000BF4976020029760200B9760200E2
:10764000E1760200037702004FF0640BCDF800B042
:107650000023012204A9D8F8000003F00DFC8246A3
:1076600060B101463B4807F0D7F8132D05F1010B37
:1076700013D8394807F0D0F85D46D5E7CDF800B00B
:10768000034601220DF11101D8F8000003F0F4FBCC
:10769000824630B101463148E5E7314807F0BCF891
:1076A000ABE79DF81020AA2ABDD19DF81120552ADC
:1076B000054608BF0226B7E7642300930122002392
:1076C0000DF10F01D8F8000003F0D6FB8246002828
:1076D00093D19DF80F3002334B452CDA0326A3E7F4
:1076E0009DF80F2064230093013205ABF91CD8F8F4
:1076F000000003F0C1FB824600287FF47EAF042621
:1077000092E7022204A9384606F0A2FF9DF80F1066
:10771000B9703846033100F0E1F99DF80F303B4471
:10772000DB7883420AD0032C0BD0013421460D486C
:1077300007F072F875E74FF0040A5EE74FF0000AB1
:107740005BE7DFF824A058E7B0980020A16C0300A5
:10775000B26C0300C66C0300F56C0300736D03008C
:10776000076D0300A16D030024FAFFFF2DE9F84324
:107770008778032407F1020806460D46274401F1E5
:1077800054093319A04501DABDE8F883315D5A7810
:1077900001391429F6D801A050F821F0F177020040
:1077A00085770200C9780200E578020003790200BB
:1077B0002B79020085770200857702008577020029
:1077C0004979020065790200857702007F7902001D
:1077D0008577020085770200B5790200857702007F
:1077E00085770200177A0200857702004B7A020043
:1077F0000F2A40F04981D9789A7842EA0122EA8337
:10780000221DB15C01F001012971B15CC1F340019D
:10781000E970B25C611DC2F38002AA70725C02F072
:1078200001026A70725CC2F340022A70A21DB15C50
:1078300001F00101E971B15CC1F34001A971B25CD1
:10784000C2F380026A71197ADA7942EA01226A8205
:10785000997A5A7A42EA0122AA82DA7AAA761A7BBD
:10786000EA7604F10D02B15C01F00101A973B15C8B
:10787000C1F34001E973B25CC2F380022A749A7BBF
:10788000062A1DD012D8C2B1022A15D0DB7B85F89A
:10789000203004F110021134B35C03F001032B77A4
:1078A000B35CC3F340036B77E4B26AE7122A09D0F2
:1078B000162AEBD1042200E0012285F82120E5E719
:1078C0000222FAE70322F8E7032A40F0DD809A78E3
:1078D00085F82C20DA7885F82D201B7985F82E3054
:1078E0000534E1E7072A40F0CF80D9789A7842EA58
:1078F00001226A845A791B7943EA0223AB84093452
:10790000D2E7062A40F0C080D9789A7842EA01226C
:10791000AA8159791A7942EA01226A81DA799B7936
:1079200043EA02232B810834BEE7022A40F0AC80F0
:10793000D9789A7842EA0122EA825A791B7943EA95
:1079400002232B830434AFE7042A40F09D809A7809
:1079500085F82F20DA7885F830201B7985F83130CA
:107960000634A1E7042A40F08F809A7885F8322007
:10797000DA7885F833201B7985F83430F0E7062073
:10798000B2FBF0F100FB1121C9B202297CD1987938
:10799000597941EA0021E984187AD97941EA00212C
:1079A0002985997A5B7A023443EA01236B8552FA7E
:1079B00084F479E7102A67D1A21C1234B15C01F07B
:1079C000010185F84410B15CC1F3400185F8441011
:1079D000B15CC1F3800185F84410B25CC2F3C0020F
:1079E00085F8442059791A7942EA0122A5F84820FD
:1079F000D9799A7942EA0122A5F84A20597A1A7A65
:107A000042EA0122A5F84C20DA7A9B7A43EA022363
:107A1000A5F84E3048E70C2A36D1A11C0422314487
:107A200005F1380006F014FEA11D0422314405F1D1
:107A30003C0006F00DFE04F10A010422314405F178
:107A4000400006F005FE0E342EE70D2A1CD19B786F
:107A50005A1E53425341E11C85F8503004223144F0
:107A6000484606F0F5FDE11D0422314405F15800B9
:107A700006F0EEFD04F10B010422314405F15C0037
:107A800006F0E6FD0F340FE73C440DE7024A0349D8
:107A9000034803F0A5B800BF3C6E0300106E03005E
:107AA000586E030010B501F01BFB852804D018B1F7
:107AB000094A352100F079FE002001F02DFB01F08C
:107AC00067F88528044604D018B1034A3B2100F02A
:107AD0006CFE204610BD00BFB26D030010B5821CC5
:107AE0000023141AA14201DC184610BD12F8014B04
:107AF0006340F6E7FFF7F2BF10B5827B0C49AAB1ED
:107B00000B7883F001030A70C27B0A491AB10C7822
:107B1000002C08BF13460A70027C07491AB1087886
:107B2000002808BF13460A70184610BD1346EAE73E
:107B3000F4A20020F5A20020F6A2002030B5A5B0E6
:107B40008C220021054601A806F01CFE8C2101A80C
:107B5000FFF73CFD044618B9294601A8FFF706FEC9
:107B6000204625B030BD000070B5C2B00D4602AC55
:107B70000646FE2200210DF10A0006F003FE45F242
:107B8000AA532A4631460DF10B00EE1C2380A57046
:107B900006F05EFD31462046FFF7ACFF0A23A055F4
:107BA000044800932A1D00232146006803F0B4F81E
:107BB00042B070BDB09800201FB540F20143ADF84F
:107BC0000600ADF80410022201A90DF10A00ADF87B
:107BD000083006F03DFD02220DF1060103A806F073
:107BE00037FD062102A8FFF7BFFF05B05DF804FBD3
:107BF0002DE97043054608460E4606F08DFC044606
:107C0000284606F089FC8442D4BF2C463446AE4256
:107C100031D070190EF030F98046701B89460EF095
:107C20002BF902460B460DF0DBFF15A3D3E9002329
:107C30000EF0B6FA0B460246494640460EF0B0FA40
:107C40000EF034FC0EF018F941EC100B0DF070FF43
:107C500051EC100B0EF02AFC00F50043B3F5803F09
:107C600001D2012801D86442012021B200B2BDE84E
:107C70007043FFF7A1BF0020F7E700BFAFF300801C
:107C80000000000000C05E4038B5054D044645F0D8
:107C900001054FF47A40A847013CFAD138BD00BF36
:107CA000406F03007FB505460E46144672B602F0DB
:107CB00015FA02F037F80028FBD13E4806F0ACFD7B
:107CC00041F201039D4264D006D8012D12D0314605
:107CD000394806F0A1FD10E044F201039D425AD05C
:107CE00044F202039D42F2D122886168334806F0D3
:107CF00093FD02E0324806F08FFD03F0C1FC08B9A5
:107D000003F088FC0023ADF80C308DF80E3003A989
:107D1000012319208DF80D3003F0BCFC03A91820B5
:107D200003F0B8FC03A9172003F0B4FC192003F0FA
:107D30006DFD182003F06AFD172003F067FD4FF476
:107D4000FA70FFF7A1FF192003F032FD182003F0AD
:107D50002FFD172003F02CFD3220FFF795FF19208F
:107D600003F054FD182003F051FD172003F04EFDE1
:107D70004FF4FA70FFF788FF192003F019FD18205F
:107D800003F016FD172003F013FDFA20FFF77CFF28
:107D9000CCE70C48AFE7A568284603F08FF92368C5
:107DA00001960093024663680748294606F034FDB1
:107DB000A3E700BF806E03001D6F0300D86E0300B1
:107DC000996E0300B66E0300F36E030007B503F06F
:107DD00057FC08B903F01EFC0023ADF804308DF801
:107DE000063001A9012319208DF8053003F052FC5B
:107DF00001A9182003F04EFC01A9172003F04AFC4A
:107E0000192003F003FD182003F000FD172003F0F4
:107E1000FDFC4FF4FA70FFF737FF192003F0C8FCA0
:107E2000182003F0C5FC172003F0C2FC3220FFF736
:107E30002BFF192003F0EAFC182003F0E7FC1720C1
:107E400003F0E4FC4FF4FA70FFF71EFF192003F073
:107E5000AFFC182003F0ACFC172003F0A9FCFA20BB
:107E6000FFF712FFCCE770477FB5400003AB8DF8FA
:107E70000C108DF8150000210B480493009102238B
:107E80008DF80D208DF8143004AA012340688DF878
:107E9000161003F091FA18B1044A392100F085FC5C
:107EA00007B05DF804FB00BF9CA70020586F0300DB
:107EB00000B589B00F238DF80E300DF10E03049339
:107EC000012398408DF81500184300218DF81D00FE
:107ED0000E4800910DF10F028DF814308DF8163018
:107EE00006928DF81C3004AA022340688DF80F100A
:107EF0008DF81E1003F060FA18B1054A2F2100F02A
:107F000054FC9DF80F0009B05DF804FB9CA700200D
:107F1000586F030000B589B008AB069203F8111D35
:107F20000493012398408DF8150040F001000021D2
:107F30008DF81D000B488DF814308DF81630009127
:107F400006238DF81C3004AA022340688DF81E1009
:107F500003F032FA18B1044A252100F026FC09B0DA
:107F60005DF804FB9CA70020586F0300084B5B7A68
:107F7000012B07D002D3022B07D07047054B064ACE
:107F80001A607047034B054AFAE7024B044AF7E7C9
:107F90009CA700207CA70020295C0F3C295C8F3C1B
:107FA000295C8F3D0A4B1B7E032B06D8DFE803F0CC
:107FB000020C0609074B084A1A607047054B074A2E
:107FC000FAE7044B064AF7E7024B064AF4E700BF1C
:107FD0009CA7002070A7002040DA7F3840DAFF38E5
:107FE00040DA7F39B0E33F3A0A4B93F82130032B54
:107FF00006D8DFE803F00206090C074B074A1A60AF
:108000007047054B064AFAE7034B064AF7E7024B6F
:10801000054AF4E79CA7002094A70020F7CC12396A
:10802000240B98399F71E139240B183A014B587889
:10803000FFF73EBF9CA70020014B9878FFF738BFA1
:108040009CA7002010B5284C237A13B1A27A5201C4
:10805000D3B2E27A617A607802F0030242EAC102A6
:108060001A43D2B21021FFF7FFFE002211216078DF
:10807000FFF7FAFE227B637B002A18BF80222BB118
:10808000A37B03F00F0343F040031A4312216078EF
:10809000FFF7EAFE627D237D002A18BF20220BB184
:1080A00042F01002E37C13B142F00802D2B2A37D89
:1080B00013B142F00202D2B21E216078FFF7D4FE63
:1080C000E27B237C002A18BF20220BB142F0100271
:1080D000637C13B142F00802D2B260781321BDE88C
:1080E0001040FFF7C1BE00BF9CA7002010B51B4C7D
:1080F000227FE37E002A18BF20220BB142F010023B
:10810000A37E13B142F00802D2B21F216078FFF7BC
:10811000ABFEE27D12B1627E5201D2B2237E607864
:1081200042EAC30294F91D30D2B2002BA2BF42F042
:10813000040203F003031A432021FFF795FEA27FF8
:108140002AB1E27F520102F0600242F080026078C0
:108150002121BDE81040FFF787BE00BF9CA700208B
:1081600010B51D4C94F8243094F8221094F8232074
:10817000A0785B018900002A01F01C0103F0600374
:1081800043EA010318BF80221A432021FFF76CFE47
:1081900094F82120A0782121FFF766FE94F826307C
:1081A00094F82720A078002B18BF202302F00302A8
:1081B0001A432221FFF758FE94F82520A078920058
:1081C00002F00C022321FFF74FFEA07800222421A9
:1081D000BDE81040FFF748BE9CA70020324B13B506
:1081E000586006205881587646F60122FF201A80F2
:1081F00058771C224FF48074072001219A705C820A
:108200000022588440F2011440F2033019725A726D
:108210009A81DA811A829976D97619771A769A77BD
:10822000DA7783F8201083F821209884DA8483F8A1
:1082300028109C821D49DC821D4B0A801A804A80CE
:108240005A808A809A801B4B1A701B4A92E803005E
:108250006B4683E80300194A1948194603F076FF74
:1082600020B1184A4FF4C67100F09FFAFFF77EFE66
:10827000FFF7BAFEFFF796FEFFF7D8FE0446FFF7BA
:10828000DBFE40EA042000B246F63D03984208D1E6
:10829000FFF7D8FEFFF72AFFFFF762FF002002B0CA
:1082A00010BD4FF0FF30FAE79CA7002076A7002012
:1082B00068A7002074A70020486F0300677E0200B3
:1082C000506F0300586F0300F0B5264B264C5878CA
:1082D000264D274E8BB005AA1821FFF71BFE9DF8EF
:1082E00015309DF814009DF816109DF8192024787B
:1082F00040EA03209DF8173041EA03219DF8183029
:1083000043EA02231B4A00B209B21BB22880318023
:1083100013804CB1184C2788C01B28806088091A2C
:108320003180A1885B1A1380144BD3ED007AB6F923
:10833000003000EE903AB2F9003001EE103AB5F993
:10834000003000EE103AF8EEE00AB8EEC11AB8EECE
:10835000C00A60EEA70A20EE270A21EE271A0BB00A
:10836000F0BD00BF9CA7002074A7002080A70020BC
:1083700082A7002084A7002076A700207CA70020E9
:1083800010B50B4803F0D0FF044670B9094B0848FC
:1083900000229A605A601A6003F0E0FF044803F07C
:1083A0008DFF054B20461C6010BD0820FCE700BF78
:1083B000506F030088A7002098A70020014803F011
:1083C00099BF00BF506F030000B52DED028B002157
:1083D0008BB02D4803F0D8FF2C4A9FED2D7A1368FF
:1083E0001060C31A07EE903AF8EE677A87EE878A34
:1083F000FFF76AFF274BF6EE007AB4EEE71AF1EECC
:1084000010FA06DCBEEE007AB4EEC71AF1EE10FAEE
:1084100005D593ED027AA8EE017A83ED027AB4EEE7
:10842000E70AF1EE10FA06DCBEEE007AB4EEC70AF7
:10843000F1EE10FA05D593ED007AA8EE007A83EDFF
:10844000007AF4EEE70AF1EE10FA06DCFEEE007AAE
:10845000F4EEE70AF1EE10FA05D5D3ED017AE8EE75
:10846000207AC3ED017A93E807000AAB03E907001D
:108470009DED070ADDED080A9DED091A0BB0BDEC74
:10848000028B5DF804FB00BF506F030098A700202B
:108490000024744988A700207FB5C1F307238DF815
:1084A0000C008DF80D308DF80E1003AB00210B4839
:1084B0000493009148F60303ADF8143004AA012395
:1084C00000688DF8161002F077FF18B1044A1E21DB
:1084D00000F06BF907B05DF804FB00BFBCB50020ED
:1084E000EB6F030000B58BB00DF10F030693012372
:1084F00098408DF81D0040F001008DF80F108DF8A8
:108500002500002110488DF81C308DF81E30009198
:108510000DF11603089306AA02230068ADF81610A1
:108520008DF824308DF8261002F046FF18B1074A66
:108530000F2100F03AF9BDF81630D8B21B0A43EA11
:1085400000200BB05DF804FBBCB50020EB6F03000E
:10855000014B1860704700BFBCB5002007B502ABE7
:1085600003E903009DF800300C2B17D89DF801108B
:108570001B0343EAC1239DF8021043EA01139DF84F
:10858000031043EAC1039DF804109BB20120194374
:10859000FFF782FF002003B05DF804FB0820FAE734
:1085A00010B501214420FFF79DFF044624F4C06468
:1085B0000146A4B2094806F02FF92146084844F4C0
:1085C000806406F029F92146064806F025F921467F
:1085D0000120BDE81040FFF75FBF00BFAF6F030091
:1085E000BF6F0300D56F03000369C1688B429DBF55
:1085F0008268D21802F1FF3203F1FF3394BF501AA0
:10860000581A70472DE9F041D0E902670446F61B7D
:108610004068964288461546384405D906F018F851
:108620003D44E560BDE8F0813246AD1B06F010F830
:108630002A4608EB0601606806F00AF8F1E72DE922
:10864000F843C5680646894617464FF00008346966
:10865000B3687068A54228BFE418013C621B5C1B2C
:10866000BC4228BF3C46944228BF14464946284491
:10867000224605F0EDFFB3682544AB4208BF002554
:108680003F1BA044A144F560E1D14046BDE8F8831A
:1086900010B5114C114AA2610223C4E90433104BF6
:1086A000E361A2644FF400730E4A2362E264002384
:1086B00010220D49A362E01D6362E362A365636556
:1086C000E365226506F0AAFC0849204606F0A6FCF0
:1086D0002023A37110BD00BFC0B50020427003006D
:1086E000D8A70020C8A700204B7003004F700300DC
:1086F000F8B5184C182300FB033503FB0040254454
:10870000C46A012C0F46164611D003D3022C1BD08D
:1087100000240AE02846FFF767FF864205D8324664
:1087200039462846FFF76EFF34462046F8BD2846F6
:10873000FFF75AFF8642344628BF04462246394690
:108740002846FFF75FFFF0E72846BDE8F840FFF74F
:1087500076BF00BFC0B5002073B50D4B1B78044633
:108760000D4616460BB9FFF793FF02A8002300F849
:10877000013D00F0C5FA324629462046FFF7B8FF12
:1087800004469DF8070000F0EBFA204602B070BDE9
:10879000C0B50020FFF77CBF10B511461C461A4635
:1087A0000020FFF7D9FF204610BD00B583B002902E
:1087B0000091019244F2010071466A46FFF772FA95
:1087C00003B000BD094A537891780133DBB2994276
:1087D00008BF0023117899421FBF037050781823F7
:1087E00003FB002014BF043000207047D8A90020EC
:1087F00073B5054602A8002400F8014D0E4600F0AE
:108800007FFA0DF10600FFF7DDFF90B106700A4B0D
:108810009DF8062045605A709DF8070000F0A0FA08
:1088200024B9064B4FF48012C3F80021204602B051
:1088300070BD0424F0E700BFD8A9002000E100E0EB
:10884000024B4FF43C6043F0010318476070030093
:10885000F8B51F491F4B0025C1F84051C1F84451DC
:10886000C1F84851C1F84C51C1F80051C1F8045148
:108870001B684BB3D1F8044517490968641A24F002
:108880007F442F461A68A24209D8A41A15441A7CBC
:10889000DE691AB11F74D3E905209047AEB90F4BBA
:1088A0000F4A197813788B4205D10133DBB2022BC2
:1088B00008BF0023137012780A4B43F822500A4B6A
:1088C0004FF48012C3F80021F8BD3346DAE700BF49
:1088D00000100140F8AA0020F4AA0020F0AA00200D
:1088E000F1AA0020E8AA002000E100E02DE9F74FFE
:1088F0009C4A9D49137809789C4D99423CD001339C
:10890000DBB2022B08BF0023137099491278994BF0
:108910000F6853F822003B1823F07F4300220B60BE
:108920002B6816461446944613B942B12B6006E0F4
:10893000196881420ED902B12B60091A19604FF0F3
:1089400001082B68DFF834A200930027BEB9DFF8D6
:1089500034B260E0401A0C44D968C3F800C0D3F8C0
:108960001CE031B13A1922F07F42C3E90121DE61F6
:108970001E4601227346D7E70026B046E1E734469B
:10898000F6697B4A63681268DFF8FCC1A068991A2F
:1089900021F07F41614500F2A58001442160012260
:1089A00022742A680023C4E90133E361002A40F0FD
:1089B000A2802C60CAE75A1C9BF80210D2B29142E6
:1089C0008BF8002004BF00228BF80020182202FB45
:1089D00003B32A6819799C68022974D003297ED0D0
:1089E000012918D1217CB1B9DA6862601A69A260E4
:1089F0005A69E2609B69A3615F4B1B78002BC0D072
:108A00006160BEE79C4200F090809946DB69002BD4
:108A1000F8D1002323749BF800309BF801209A4280
:108A2000C9D12B682FB9009A934202D1B8F1000F37
:108A300043D0002B41D0D3F800A0504D4C4BD5F87B
:108A400004751C68DFF844813E1B98F8003026F05E
:108A50007F4603369BB94FF48033C5F84433C5F8DD
:108A60000433474B4FF400324FF00109C3F8802123
:108A70001A60C5F80090FFF7E3FE88F80090B24551
:108A80002CBF5444A41924F07F44C5F84045D5F8C0
:108A90000435DB1B23F07F43E41B033324F07F44C6
:108AA000A3420AD9D5F80435C5F84035FFF7C8FE0A
:108AB000334B4FF40032C3F800212F4B00221A70C1
:108AC00003B0BDE8F08F13469146A0E71174D26958
:108AD0000123002AFAD1002B9DD02A609BE70023B6
:108AE0001946F6E7D31A23F07F43834234BFC31AF3
:108AF0000023236053E721681368994213D8591A59
:108B00001160E26155E7091AD8691A4638B103467F
:108B100018688842F7D3401A186018461346216037
:108B2000E061DC6112E71346F2E74C450DD1D369F1
:108B30002B6053B90E4801920121CAF80810036056
:108B40000D4B1970FFF77CFE019AE1692368C9F8A3
:108B50001C1011B1086803440B602B689A4218BFBF
:108B6000012756E7F0AA0020F1AA0020F8AA002069
:108B7000F4AA0020E8AA0020E4AA00200010014086
:108B800000E100E0D8A90020FEFF7F00E5AA002058
:108B9000F8B5194E194D1A4F4FF40033C6F880300E
:108BA00001244FF48033C5F84833C5F808336C60AE
:108BB000FFF746FEAC6000243C60FFF741FE114B1E
:108BC0001C70114B0B221C809A70104B1C60104BB8
:108BD0001C70104B4FF480121C70E023C6F88021EB
:108BE00086F814333260C5F8084586F81133D5F895
:108BF00004353B602046F8BD00E100E00010014074
:108C0000F4AA0020E5AA0020D8A90020F8AA002094
:108C1000F0AA0020F1AA0020074B9B784BB132B19B
:108C200028B10368187C20B959745A61704707202D
:108C300070470820704700BFD8A900202DE9F743EE
:108C40001D4FBB7805460E4690469BB390B3042952
:108C50002ED9436973B3437C02A80024012B00F88A
:108C6000014D0CBF8946A14600F04AF80DF10600FF
:108C7000FFF7A8FDD0B101230370104B4560D3F876
:108C80000435C0E90498C0E902369DF806307B70CF
:108C90009DF8070000F064F824B9094B4FF48012E6
:108CA000C3F80021204603B0BDE8F0830424EFE7B9
:108CB0000724F7E70824F5E7D8A9002000100140B1
:108CC00000E100E0064A92783AB130B1426922B13F
:108CD000002202740221FFF78BBD0820704700BFFD
:108CE000D8A90020EFF30583C3F308032BB9EFF3F2
:108CF0001480C04300F0010070470120704700005D
:108D000070B50446FFF7EEFF012803D01049432059
:108D100005F06CFAEFF3108672B60E4A90680123E4
:108D200098B993600C4B0D4DD3F880102940116019
:108D3000C3F88050D3F8841051604FF0FF32C3F86D
:108D40008420207006B962B670BD2370FAE700BFB8
:108D50006670030038B6002000E100E0FC06FFBDAD
:108D600010B50446FFF7BEFF012803D00949512082
:108D700005F03CFA084B9A685AB154B9EFF31081E8
:108D800072B6064A18681060586850609C6001B955
:108D900062B610BD6670030038B6002000E100E046
:108DA000024B1B680021986806F028B8C89800207C
:108DB0001EF0040F1CBFEFF309800AE0EFF30880F8
:108DC0000549064A884201D8904202D88D464FF0A4
:108DD0000000034B184700000000012000E00020C5
:108DE000E58D02002DE9F347054601F077F900F023
:108DF00099FF0028FBD12F4B2F4C9F6A2F4BE41A71
:108E0000E408240444F00104002D4ED0AA692C4942
:108E1000204601F00BF9EB680193AB6800932949F8
:108E2000D5E90023204601F021F9EB69009326499A
:108E3000D5E90423204601F00DF91E4BDB6A9807A3
:108E400003D52249204601F0EDF8DFF89490DFF8D1
:108E500094A000264FF0010808FA06F33B4206D022
:108E600059F826201AB15146204601F0DFF80136A4
:108E70001A2EF1D1390605D50E4B15495A6B2046ED
:108E800001F0D4F83A0405D50A4B12499A6B2046F2
:108E900001F0CCF8104B1B68DB0700D500BE28465C
:108EA000FEF794FF02B0BDE8F0870C49204601F0C0
:108EB000B9F8C2E700ED00E0E8890300808903000B
:108EC000BB700300D07003000571030060710300E4
:108ED000AF710300CF710300F0ED00E02D710300CE
:108EE000EC710300A471030050E8002F0B4640E82A
:108EF000003C9CF0000FF7D11046704750E8003F4F
:108F000043EA010240E8002C9CF0000FF6D1104625
:108F1000704750E8002F02EA010340E8003C9CF053
:108F2000000FF6D11046704750E8003F03EB0102F6
:108F300040E8002C9CF0000FF6D11046704750E836
:108F4000003FA3EB010240E8002C9CF0000FF6D19B
:108F5000104670470121FFF7D1BF0021FFF7D9BFAD
:108F600010B50446002834D003681BB91A49FF2005
:108F700005F03CF9636823B917494FF4807005F098
:108F800035F9A36823B9144940F2011005F02EF910
:108F9000E36823B910494FF4817005F027F9238A5B
:108FA00023B90D4940F2031005F020F9D4E901235B
:108FB00021689B1ADBB20A60013BDBB2FF2B2268FF
:108FC00002D10020107110BD1168481C10600B7098
:108FD000F2E70E20F7E700BF1477030037B5054628
:108FE00020B914494FF4927005F000F902A800244A
:108FF00000F8014DFFF784FE2A68696813688B4208
:1090000010D9591E116013F8014C2A8AEB6802FB33
:1090100004342A68AB6811685B1A1179DBB2994293
:1090200038BF13719DF80700FFF79AFE204603B082
:1090300030BD00BF1477030037B50C46054620B994
:10904000104940F2471005F0D1F824B90D494FF40A
:10905000A47005F0CBF802A8002300F8013DFFF74B
:109060004FFE2A681368591C1160EA68A41A2A8AFC
:10907000B4FBF2F41C709DF80700FFF771FE03B01B
:1090800030BD00BF1477030038B5084C04F1080365
:109090000546002818BF1C4623682BB11A682260B9
:1090A0005B6828469847F7E738BD00BF04AB00204F
:1090B00020B9054B01225A70FFF7E6BF012802D103
:1090C000014A9070F8E77047FCAA002020B9034BD2
:1090D00001225A70FFF7D8BF704700BFFCAA0020DA
:1090E00038B50B4C237883B90A486360A3602361C9
:1090F000E36002F0A1F9054604F030FF08B902F080
:10910000B1F901232370284638BD8525FBE700BF50
:10911000FCAA0020B190020037B51E4C237805460A
:109120001BB91D49E92005F061F8A37803F0FF029F
:10913000D3B115B16B680120984700230DF10700EA
:109140008DF80730FFF7DCFDE3689DF80700013379
:10915000E360FFF705FEE36823B90F4940F205100D
:1091600005F044F803B030BD0DF107008DF807207D
:10917000FFF7C6FD25B1226913463BB92A60256178
:10918000E368002BE0D102F08BF9DDE79D42F7D0D8
:109190001B68F2E7FCAA00206477030013B5154CA6
:1091A000237823B914494FF4857005F01FF8E3685C
:1091B00023B9114940F20B1005F018F802A800235A
:1091C00000F8013DFFF79CFDE368013BE360E368C5
:1091D00053B904F0C3FE18B10749792005F006F829
:1091E00002F094F90023A3709DF80700FFF7B8FD83
:1091F00002B010BDFCAA002064770300012813B55B
:1092000009D003D303281BD002B010BD134B012299
:10921000C3F88020F8E702A80023114C00F8013DB4
:10922000FFF76EFD23780BB9FFF75AFFE3689DF84F
:1092300007000133E3600123A370FFF791FDE3E72B
:10924000074B1B7823B9074940F2452004F0CEFFB5
:1092500002F008F9FFF7A2FFD6E700BF00E100E047
:10926000FCAA0020647703007FB503788DF80430F2
:109270004368029383688DF80C30C36804930369D4
:109280008DF81430054A064B01A853F8213052F8E6
:109290002110984707B05DF804FB00BF10AB002019
:1092A0001CAB0020F0B50646944616F8047B194A1C
:1092B00042F827C0184A42F82730184B0C460FCB0B
:1092C00085B06D4685E80F0023788DF8003063780F
:1092D0008DF80130A3788DF80230E3788DF80330F3
:1092E00023798DF8053063798DF80630A3680293F1
:1092F000237B8DF80C30BCF1000F637B8DF80D30B3
:10930000074A3B4608BF00222946304602F032FD9C
:1093100005B0F0BD1CAB002010AB0020BC770300F3
:10932000699202001FB503788DF8003003798DF83B
:10933000043043798DF8053083688DF80630C368B2
:109340008DF807300369029343690393054A064B7E
:10935000684653F8213052F82110984705B05DF85F
:1093600004FB00BF28AB002030AB002002494FF4C3
:10937000F37004F03BBF00BF446B03001F2810B51F
:10938000044601D9FFF7F2FF012303FA04F44FF07A
:10939000A043C3F8084510BD024B4FF4807043F062
:1093A00001031847D07703002DE9F14F924690F85A
:1093B0000080364A42F828A0354A42F828304B7BD4
:1093C00081460C467BB30B684FF0A04503F5E07374
:1093D00040F20C6245F823204B6803F5E073002649
:1093E00045F823200868FFF7C9FF6068FFF7C6FF4C
:1093F000236803F5E07340F20D6245F823206368AB
:1094000003F5E0734FF0010B45F82320FFF7C4FF8D
:1094100067681F2F01D9FFF7A9FFD5F81035FB406A
:10942000DB070ED506BBBAF1000F1A4A434608BF48
:109430000022214609F1040001B0BDE8F04F03F01D
:10944000C7B827681F2F01D9FFF790FF0BFA07F75E
:10945000C5F80C75FFF7A0FF01362068FFF78EFFF7
:10946000FFF79AFF092ED3D165681F2D01D9FFF7A9
:109470007DFF4FF0A0420123AB40C2F80C35FFF74F
:109480008BFF6068FFF77AFFCDE700BF30AB0020AD
:1094900028AB0020259302001FB503788DF800301B
:1094A0004368019383688DF80830C3680393054AC5
:1094B000054B684653F8213052F82110984705B003
:1094C0005DF804FB38AB00203CAB00201FB50378EF
:1094D0008DF800304368019383688DF80830C368C5
:1094E0000393054A054B684653F8213052F8211082
:1094F000984705B05DF804FB38AB00203CAB00207A
:10950000F0B5194B067891F81DE043F82620174B6B
:1095100094460A6943F82620154B03F806E00C46EA
:1095200007460FCC89B06D460FC594E80F0085E85B
:109530000F000496BEF1000F0AD0BCF1000F0D4AD7
:10954000694608BF0022381D03F0E8FE09B0F0BDEF
:10955000BCF1000F084A694608BF002207F10C0061
:1095600003F00AFCF2E700BF3CAB002038AB002060
:1095700044B6002099940200CD94020010B5044630
:1095800018B90649312004F031FEA2682AB1636996
:109590002168206998470023A36010BDD677030097
:1095A0000EB433B5059D044618B91249422004F0A3
:1095B0001DFE63691BB90F49432004F017FE2368A1
:1095C0001BB90C49442004F011FE63681BB909491A
:1095D000452004F00BFE3DB102AA06AB42F8043D63
:1095E0002946204600F06EF802B0BDE8304003B0D6
:1095F000704700BFD6770300826830B40468551CFA
:109600008560A154D0E901329A4202D330BCFFF701
:10961000B5BF30BC704700002DE9F84F9946DDE931
:109620000A431746824688460A460126BA420FD2A6
:109630004E4538BF4E4613F0010B01D164B90024EA
:109640000125B9F1010F1AD909F1FF397D43F8E776
:10965000B2FBF7F20136E9E79B070ED5B9F1000F2F
:109660000CBF30252025A642EAD2013C29465046AF
:10967000FFF7C2FF002CF6D1E1E72025F3E7B8FBA6
:10968000F5F39F42E2D9DFF83890B8FBF5F3504686
:1096900019F8031005FB1388FFF7AEFFB5FBF7F5CC
:1096A000002DF2D1BBF1000F02D00CB1A64201D3C4
:1096B000BDE8F88F20215046013CFFF79DFFF4E7FD
:1096C0001C7803002DE9F74F0E469046054620B959
:1096D000AC494FF4A27004F089FD6B6923B9A94924
:1096E0004FF4A37004F082FD2B6823B9A54940F222
:1096F000471004F07BFD6B6823B9A2494FF4A470B6
:1097000004F074FD002E00F03A8116F8011B0029C8
:1097100058D0252940F0D180002702E047F001070A
:109720001646324612F8013B2D2BF7D0302B04D0D1
:109730002B2B05D147F00407F2E747F00207EFE7CC
:1097400000242A2B06F101021BD1D8F80030191D84
:10975000C8F800101B6816461C4433782E2B1CD109
:1097600001364FF0000A314611F8012BA2F130000A
:10977000092814D80A2303FB0A23A3F1300A0E4652
:10978000F1E712F8013CA3F130010929E5D80A21DB
:1097900001FB0434303C1646D3E74FF0000A324652
:1097A00012F8011B01F0FB0068281646F8D0692961
:1097B00016D054D8582970D00ED825297DD03378AA
:1097C000002BA2D12B7B002B00F0D980284603B0C0
:1097D000BDE8F04FFFF7D2BE632968D06429EED10F
:1097E000D8F80020111DC8F80010D2F8009089EABE
:1097F000E972A2EBE9724FF0010B092A61DCD34553
:1098000038BFD3462CB1B9F1000F01DB790700D581
:10981000013CBA0702D5BAF1000F04D0FB0702D40D
:10982000002C54D10024B9F1000F58DAC9F1000915
:109830002D212846FFF7E0FE07F00302022A05D19A
:10984000BAF1000F02D1002C4DD10024CDE9004720
:1098500053460A2249462846FFF7DEFEAFE7732942
:1098600054D016D87029AAD1D8F800301A1DC8F8DB
:109870000020302128461C68FFF7BEFE78212846CC
:10988000FFF7BAFE00220823CDE90032214610225C
:10989000E1E775292FD0782991D1D8F800100A1D59
:1098A000C8F80020CDE90047534610222CE0D8F834
:1098B00000301A1DC8F8002019782846FFF79CFED2
:1098C0007DE70A230BF1010B92FBF3F295E7A34529
:1098D000A9D220212846013CFFF78EFEA0E7780799
:1098E000AAD52B21A5E7A345B0D230212846013CBB
:1098F000FFF782FEA7E7D8F80010CDE900470A1D60
:10990000C8F8002053460A220968A4E7D8F80030B6
:109910001A1DC8F80020F907D3F8009012D54F4659
:10992000A7EB090B17F8011B41B9A345BFF447AFDB
:1099300020212846013CFFF75FFEF6E72846FFF7A7
:109940005BFEEDE7B9F1000F17D0484605F0D8FBF4
:109950000746BC4200D954B909F1FF3919F8011F73
:1099600000293FF42CAF2846FFF746FEF6E72021FA
:109970002846013CFFF740FEEBE74F46E9E703B01E
:10998000BDE8F08F2C7803007047000007B5044B4A
:109990000093044A402300F032F803B05DF804FB62
:1099A000A999020041AB00202DE9F84389461446ED
:1099B000B2B10F4B0F4E0325002743F0010822469A
:1099C00009EB07010020FEF793FE0744241A48B96B
:1099D00033782BB14FF47A40C047013D02D1357046
:1099E000BDE8F88301233370002CE8D1F8E700BF0D
:1099F0009078030040AB00207047FEF7CBBEF0B577
:109A000095B01C46164608460D4600F032FD1A9BDE
:109A10000D93CDE9086400242346082205A92846B1
:109A20000A948DF82C400C9400F04CFD079B029397
:109A3000BDF81830ADF80C30BDF81A30ADF80E3066
:109A40009DF814308DF8114003F00302012A1DD156
:109A5000BDF81440059EC3F3C203C4F383148DF80C
:109A60001030A20008230EA9284600F02BFDC6F3F3
:109A7000952608AB0093224602AB0EA9304600F0B3
:109A80009DFB284600F0F9FC15B0F0BD022AF8D184
:109A9000BDF81640C3F3C203A4098DF8103008279F
:109AA000082C264628BF08263B4632460EA92846E3
:109AB00000F008FDA41B08AB02AA31460EA83744EB
:109AC00000F0E0FB002CEBD1DBE7000008B5FFF76E
:109AD00094FF0421064800F0D7FA002803DA05496C
:109AE000412004F083FB044B01225A7108BD00BFE2
:109AF000A08A0300A4780300B4980020037813F030
:109B0000040216D003F00303012B03D0022B09D06B
:109B1000012070470A6800880232C0F383100244B3
:109B20000A60F5E70B684288023303EB92130B607F
:109B3000EEE71046704700002DE9F04F89B0064669
:109B4000871C08A8484C009200230D4600F8113DE0
:109B5000FFF7D6F823682B60D4E901231344226869
:109B600001339B1A04F21C4804F5836B04F2144978
:109B7000BB421AD3009A0023002A6DD0012262F35F
:109B8000010343F0040366F389132168A2689DF87A
:109B90000F000A4003320F4444F822302760FFF7D9
:109BA000DFF8012009B0BDE8F08F01214046FFF742
:109BB000BBF95846FFF7CEF90DF1200A4846FFF7EA
:109BC000C9F960684AF8100DA5682840033004EB15
:109BD00080005146FFF792FF02460498002AF4D114
:109BE00005EA000304EB8303811CDB680593013065
:109BF000054004EB850503F00303012B0491ED6898
:109C000023D0022B08D0194901924FF4BF7004F001
:109C1000EDFA019A154607E0BDF816309B090333AB
:109C20002D0C01EB930304934846FFF796F908B116
:109C3000049B636029464046FFF776F9D4E9012387
:109C40001344226801339B1A92E7BDF81430C3F322
:109C500083132D0C0B44E6E7022262F3010343F069
:109C6000040366F39F5390E754AC0020137903007C
:109C70000B4B0C48FF2210B59A600022C3F8182441
:109C8000C3E90022C3F81424012283F8202400F041
:109C9000A9FB044610B9044800F02AFC204610BD78
:109CA00054AC0020188A03006C79030030B50A4CCC
:109CB00071B10A4A0A49121BD20800239A4201D103
:109CC000002030BD31F82350854202D00133F5E742
:109CD000034654F83300F4E780890300188A030030
:109CE00088A20020094B013903EBC000032909D8E1
:109CF000DFE801F00A02040604207047007970478B
:109D00004079704700207047022070478089030027
:109D1000034BD3E90030C31A58425841704700BF83
:109D200054AC00202DE9F04387B0FFF7F1FF064661
:109D3000002840F0FC807F4DC5F81804BFF34F8F1A
:109D40006868AC6806AF47F8100D2040033005EB9B
:109D500080003946FFF7D2FE029B18B1D5F81824CF
:109D6000002A5FD004EA0302991C013305EB82024A
:109D7000234005EB8303D268DB68049302F00303FE
:109D8000022B0392029162D1BDF80E306A484FEA6D
:109D90009318B8F1500FC14628BF4FF0500969F32E
:109DA0008F1309F10801ADF80E3000F033FB0746C0
:109DB000002800F0A78000F05CFB03A90023082224
:109DC000384600F069FB029924EA01060136B60024
:109DD000B14535D95FFA89F97EB3F6B2A9EB060928
:109DE000214003315FFA89F4B146544E05EB8101FD
:109DF00008234A46384600F04FFB36B109F1080304
:109E000022463146384600F047FB029B08F1030822
:109E100003EB98030293D5F81834002B4BD1D5F8F7
:109E200010445BE02A689A4204D86A60304607B062
:109E3000BDE8F08304EA030088E740493446D7E7E9
:109E40002140033108234A4605EB8101DAE7012B63
:109E500058D1BDF80C303848C3F38311062928BF08
:109E6000062161F3891302318900ADF80C3000F04E
:109E7000D1FA0746002845D000F0FBFA002308225B
:109E800003A9384600F008FB0026BDF80C20C2F3F9
:109E90008312B31C96424FEA8303BCD202994A1C38
:109EA00021400331029205EB81010422384600F083
:109EB000F3FA0136E9E7384600F0DFFAFFF728FF4A
:109EC00080F00100C6B2B1E7E3685B7923B1236893
:109ED00039461B6820469847E3681C68002CF3D17C
:109EE000384600F0CAFA06A800F8114DFEF708FF40
:109EF000D5F818340BB9029B6B609DF80700FEF78C
:109F00002FFFDBE7D5F8104454B90D4B0D480E492F
:109F1000C01AC008000440F0020000F083F8CDE74A
:109F2000236820469B689847E3681C68ECE7002696
:109F30007CE700BF54AC0020188A030060AC00200E
:109F400080890300D8890300787903002DE9F74F51
:109F50002F4C80460F46914601A9012218469B4688
:109F6000D4F808A0FFF7E8FD00283DD0019D0026A9
:109F7000A91C5E4506EB010240D100212548FEF7F1
:109F8000B3FF80F3100B244B244A4FEA18499B1A65
:109F9000B9EBD30F04D3224940F2A31004F026F901
:109FA0006B1C03EA0A0304EB830349EA0B42DA6001
:109FB00005EA0A030333012114F8232068F3C502DC
:109FC00004F8232034F8232066F3891224F8232090
:109FD00054F8232067F39F2244F8232061F3010201
:109FE0006FF3820204F8232094F820341BB1FFF7AA
:109FF00099FE0028FBD103B0BDE8F08F0AEA020207
:10A0000004EB820259F82630D3600136B1E700BF75
:10A0100054AC002070B00020188A0300808903002F
:10A020001379030000231A46FFF790BF13B502AC63
:10A03000012344F8042D2246FFF788FF02B010BD2B
:10A0400007B5CDE9002302236A46FFF77FFF03B07F
:10A050005DF804FB1FB5CDE90123069B039301AA1C
:10A060000323FFF773FF05B05DF804FB1FB5CDE9CF
:10A070000023069B0293079B03936A460423FFF782
:10A0800065FF05B05DF804FB30B5134AD2F8104403
:10A090000023214651B9C4682371D2F810445CB939
:10A0A000C2F81004C2681160184630BDC9680D7945
:10A0B0009D420AD00968EDE7E468C16824680C6035
:10A0C000D2F81024D2681060EEE701330A2BE0D1F9
:10A0D0004FF0FF33E8E700BF54AC002038B5094A21
:10A0E0000123D2F8104482F820341D4604B938BD4B
:10A0F000E3685D71236820465B689847E3681C68E5
:10A10000F4E700BF54AC002010B5037A052B0C46D1
:10A110000FD0437A23B1084A08492046FFF740FA96
:10A1200007492046FFF73CFA2046BDE81040FFF7FC
:10A1300025BA002AF8D0F3E7C3790300C8790300F1
:10A14000E879030073B5C38804460D4633B1144A59
:10A1500000921449144A2846FFF722FA217A052969
:10A160001CD0637A4BB1A088FFF7BCFD0F4B1049A0
:10A1700053F820202846FFF713FA227A0D4BA088C7
:10A1800053F822600021FFF791FD0B490346324648
:10A19000284602B0BDE87040FFF702BA02B070BDB9
:10A1A000C3790300D3790300CB79030090790300CE
:10A1B000C8790300F8790300EB7903002DE9F04337
:10A1C00085B01F460C9D002306460C46904695F828
:10A1D0000C902B7329463846FFF7B4FFB8F1060FF1
:10A1E00009D8DFE808F00412181F28334000314670
:10A1F0002846FFF7D5F9002229463846FFF784FFA5
:10A2000085F80C9005B0BDE8F083226831462846F9
:10A21000FFF7C6F9EFE7D4E9002331462846FFF7F8
:10A22000BFF9E8E7A36800933146D4E90023284644
:10A23000FFF7B6F9DFE7E3680193A36800933146BF
:10A24000D4E900232846FFF7ABF9D4E7236902934A
:10A25000E3680193A36800933146D4E900232846BC
:10A26000FFF79EF9C7E76369039323690293E368E5
:10A270000193A36800933146D4E900232846FFF7F1
:10A280008FF9B8E708292DE9F84F80460E461746A2
:10A290001C4635D8002593F80C901D7319461046BE
:10A2A000FFF750FFDFF88CA0DFF88CB0AE4229D961
:10A2B00018F8052059462046FFF772F90135082D98
:10A2C000F4D11A49DFF874B02046FFF769F94FF06E
:10A2D000000A564524D918F80A507E2D17D92E2287
:10A2E00059462046FFF75CF90AF1010ABAF1080F56
:10A2F000EFD1012221463846FFF706FF84F80C9083
:10A30000BDE8F88F51462046FFF74AF9D6E704F03A
:10A3100049F92844427812F0970FE0D02A46DFE747
:10A3200003492046FFF73CF9DEE700BFBE79030092
:10A33000BC790300BA790300B4790300C079030043
:10A340002DE9F74F99469DF830300193884617461E
:10A35000054618B92249B62003F048FFEA8895F867
:10A3600005B00BFB02FBABF1040BCB4503D81C493A
:10A37000C42003F03BFF3E68B5F806A006EB0902D7
:10A380005A4509F1040188BFABEB0906B1FBFAF4A9
:10A390003E600AFB141144B9AAEB0107B74228BF7B
:10A3A00037462EB903B0BDE8F08F2D68013CF2E7C7
:10A3B000019A043108EB0403681872B101463A4669
:10A3C0001846F61B04F044F9B2453C442D68574644
:10A3D0004FF0000128BF3746E3E73A461946F0E759
:10A3E000577A0300FEF7BCBDF8B546790146721EE8
:10A3F0000546002393422D6803D30024A64202D8C9
:10A40000F8BD0133F6E70F682846FEF715FE013464
:10A410003946F3E72DE9F843CD1C068A0746FEF7D7
:10A42000DDFD043E35440446B5FBF6F5F0B14FF4CE
:10A430008073EDB28380C680013D076081464FF096
:10A440000008A84512D23846FEF7C8FD064648B1B6
:10A4500063790133637108F10108C9F800000760EE
:10A460008146EEE72046FFF7BFFF34462046BDE8B1
:10A47000F88301210430FEF757BD10B501210446D1
:10A480000430FEF75CFD10F0FF0F04D12046BDE85C
:10A490001040FFF7A9BF10BD30B585B0144604AA1F
:10A4A000002542F8044D0095FFF74AFF039BA342A5
:10A4B00003D00349F62003F099FE05B030BD00BF7C
:10A4C000577A030030B585B0144604AA012542F836
:10A4D000044D0095FFF734FF039BA34204D00349CA
:10A4E0004FF4807003F082FE05B030BD577A030050
:10A4F0008268002393608268136182685361826876
:10A50000D360826853608268136070470268136882
:10A510005268934291BFD01A80680130801888BF7A
:10A52000C01A704738B50C46054618B9044977205B
:10A5300003F05CFEAB68A3428CBF601C002038BDFA
:10A54000B07A03002DE9F84303681D685C68A542F2
:10A5500084BF836801331746884694BF641B5C1B25
:10A56000C2684168BC42064605FB02110CD37A431F
:10A57000404604F06DF8B3683D449D4288BF002515
:10A5800033681D60BDE8F88304FB02F94A46404683
:10A5900004F05EF8F26871683C1B624308EB090046
:10A5A00004F056F833681C60ECE7000038B5044648
:10A5B00018B907498A2003F019FE236820461D6850
:10A5C0005968FFF7AFFF431B5842584138BD00BFE1
:10A5D000B07A03002DE9F3410D46044618B92E491F
:10A5E000952003F003FE1DB92B49962003F0FEFDD4
:10A5F00002A8002300F8013DFEF782FB2046FFF78A
:10A60000D5FF804610B1237C002B3BD12768204624
:10A610007E687968FFF786FF7860B8F1000F05D093
:10A62000276820463968FFF77DFF3860E268606878
:10A63000531E072B20D8DFE803F004101F141F1F40
:10A640001F182B7883552046FFF760FF23689A6810
:10A65000824200D29860002415E02B8820F8163042
:10A66000F1E72B6840F82630EDE7D5E9002300EB51
:10A67000C600C0E90023E6E7294606FB020003F016
:10A68000E7FFE0E704249DF80700FEF769FB20469A
:10A6900002B0BDE8F08100BFB07A030073B50E468A
:10A6A0001446054620B9124940F2D51003F09EFD2C
:10A6B00026B90F494FF4EB7003F098FDA4B102A83E
:10A6C000002300F8013DFEF71BFB2846FFF71EFFA5
:10A6D000844228BF0446224628463146FFF732FF0F
:10A6E0009DF80700FEF73CFB204602B070BD00BF9E
:10A6F000B07A030037B5044620B90B4940F2EF1099
:10A7000003F074FD02A8002500F8015DFEF7F8FAD9
:10A710000C222946206804F035F89DF80700FEF762
:10A720001FFB03B030BD00BFB07A030013B5044671
:10A7300020B90B4940F2FD1003F058FD02A8002398
:10A7400000F8013DFEF7DCFA2046FFF7DFFE044685
:10A750009DF80700FEF704FB204602B010BD00BFC5
:10A76000B07A030010B5044620B9064940F20A2029
:10A7700003F03CFD236818685B68C31A58425841CF
:10A7800010BD00BFB07A03002DE9F3410C4690469E
:10A79000054618B92549D92003F028FD1CB92349DD
:10A7A000DA2003F023FD02A8002300F8013DFEF7A4
:10A7B000A7FA2846FFF7D6FF002834D12F683E6855
:10A7C000B8F1000F04D139682846FFF7ABFE3860B6
:10A7D000EA686968531E072B1FD8DFE803F0040FEF
:10A7E0001E131E1E1E178B5D237000249DF807008C
:10A7F000FEF7B6FA204602B0BDE8F08131F8163017
:10A800002380F2E751F826302360EEE701EBC60122
:10A81000D1E90023C4E90023E7E706FB0211204643
:10A8200003F016FFE1E70524E0E700BFB07A03007C
:10A8300038B5044620B9054940F2122003F0D6FC91
:10A840002046A568FFF772FF281A38BDB07A0300CA
:10A850002DE9F843044616468846FFF7E9FF2368CA
:10A86000A5685A680135AD1A8146E2685868636880
:10A87000B54202FB003017D37243414603F0E8FEB5
:10A880002268A168536833448B4296BF5368002600
:10A89000F61856602046FFF739FE23689A68824210
:10A8A00038BF9860BDE8F88305FB02F73A46414699
:10A8B00003F0CEFEE2686068751B6A4308EB07018F
:10A8C00003F0C6FE2368B1455D60E3D225682046EB
:10A8D0006968FFF727FE2860DCE7000073B50E46C5
:10A8E0001446054620B915494FF4B47003F07EFCB8
:10A8F00026B9124940F2691003F078FCA4B102A80D
:10A90000002300F8013DFEF7FBF92B7C7BB9AB6817
:10A910009C4228BF1C46284622463146FFF798FF36
:10A920009DF80700FEF71CFA204602B070BD2846CD
:10A93000FFF77EFF844228BF0446ECE7B07A0300AD
:10A9400038B50D46044618B90849502003F04EFCAE
:10A950001DB90649512003F049FC25602B6863604E
:10A960006A68934204BF0023636038BDFE7A030027
:10A9700010B5044618B90B49632003F037FC23686F
:10A980001BB90849642003F031FC636843B12268B5
:10A9900091680B4463605268934204BF0023636074
:10A9A00010BD00BFFE7A030043691B68DB6803B17A
:10A9B00018477047012303707047000010B5044624
:10A9C00018B90849922003F011FC2368012B03D029
:10A9D0000449932003F00AFCBFF35F8F0023236038
:10A9E00010BD00BF677B030010B4074C0378E35C25
:10A9F00023B104305DF8044B02F09CBD0C305DF8CF
:10AA0000044B02F0BDBA00BF44B6002010B4074C9E
:10AA10000378E35C23B104305DF8044B02F00ABE16
:10AA20000C305DF8044B02F027BB00BF44B6002099
:10AA300070B50578012D06460C4603D029D3022DAA
:10AA400025D070BD4B69027A1B6841685B68186845
:10AA5000FFF744FF337A834205D903212046BDE83E
:10AA60007040FFF7A1BF29462046FFF79DFF6369AD
:10AA70001B689B6820465A7A5968FFF7C7FF002871
:10AA8000DFD011499B20BDE8704003F0AFBB2946E1
:10AA9000E4E74B691B685A689D68566800212046A8
:10AAA000FFF782FF2A7A29683046FFF7F7FD002872
:10AAB000C7D0C2B229682046FFF796FF0028C0D051
:10AAC0000149B220DFE700BF017C030010B5044656
:10AAD00018B90749852003F089FB01212046FEF7BC
:10AAE00003FABFF35F8FB0FA80F0400910BD00BFDA
:10AAF000677B03000378044AD35C13B1043002F08F
:10AB00008DBD0C3002F0ACBA44B6002003681A7850
:10AB100012B11B6903B11847704700002DE970435B
:10AB200004464FF4FA784FF400404FF00009E0FB80
:10AB30000189164600234FF47A72404649460BF0CD
:10AB40002DFD0428054604D8012333700020BDE8FC
:10AB50007083074A00212046FEF75EF80028F6D1F0
:10AB6000324629462068BDE87043FEF767B800BF4B
:10AB7000B5A902002DE9F04743691B68064618781D
:10AB80000F46144618BBFF2A28BFFF24DFF84C905D
:10AB90002546274406F10C0A337819F80330A7EB51
:10ABA000050883B1301D02F0DDFD00B115B9601B51
:10ABB000BDE8F087012241463046FFF727FF002815
:10ABC000F5D1013DE8E7504602F0ECFAEDE75B68AD
:10ABD000BDE8F0471868FFF761BD00BF44B600202C
:10ABE000F0B50E4689B01546044608B101B11AB950
:10ABF0004449BF2003F0FAFA63691B68002B7ED139
:10AC00002B783BB16B680BB1AB681BB93D49C920D0
:10AC100003F0ECFA31462022684603F019FD2B7848
:10AC20000494991E4A424A41002B8DF81D20694622
:10AC3000354A204608BF0022FEF762FC064600287F
:10AC400038D163691D6063691B685B6843B15868EC
:10AC5000FFF750FD63691B685B681868FFF74AFDE2
:10AC6000656915F1080F03D12849722003F0BEFA77
:10AC70000023AB60BFF35F8F67693A1D1D4603D1A8
:10AC80002249722003F0B2FA7D60BFF35F8F6369DF
:10AC900003221A73009B013301BF6269137B23F007
:10ACA00002031373019A6369013206D11A7B22F001
:10ACB00001021A73304609B0F0BD1B681B78022BE5
:10ACC00009D163691B689B6820465A7A5968FFF767
:10ACD0009DFE0646EEE723780D4AD35C53B10D493D
:10ACE00040F25A2003F082FA63691B681B78002B3C
:10ACF000E7D1DFE704F10C0002F05CFAF4E7852607
:10AD0000D8E700BF017C030031AA0200677B030083
:10AD100044B60020B37B03002DE9F04F0F4685B009
:10AD200016469B46044620B952494FF4A67003F0DC
:10AD30005DFA60690368002B00F09180027B910747
:10AD400040F18F80002E5DD007F06042B2F1005FCD
:10AD500003D01B78022B00F086800430FFF7B6FE8C
:10AD6000002800F0828000238DF80C300E9B5A1CC6
:10AD70000ED003AA1946A069FFF7D0FE054638B1E8
:10AD800060690430FFF71AFE284605B0BDE8F08F71
:10AD9000DFF8E090354663691A681378A3BBFF2D8E
:10ADA000A84628BF4FF0FF085FFA88F239462046D0
:10ADB000FFF71AFE18B14946692003F017FAB5EB00
:10ADC0000805474406D06069FFF7A0FE9DF80C30E7
:10ADD000002BE0D0BBF1000F02D0761BCBF8006057
:10ADE0009DF80C3033B90E9B013303D0A36918686A
:10ADF000FDF768FF60690430FFF7E0FD15B19DF8CD
:10AE00000C30A3BB0025BFE75368D2F808A05B68ED
:10AE1000019318462A463946FFF760FD80462046D2
:10AE2000FFF768FE019B0028C9D19AF80820DAF8DC
:10AE300000101846FFF732FC024628B90190494637
:10AE4000782003F0D3F9019ADAF80010D2B2204644
:10AE5000FFF7CAFD0028B2D049467A20ADE7802529
:10AE600092E7082590E710258EE711258CE70D2540
:10AE70008AE700BF017C03002DE9F7430A9F88465B
:10AE800016469946044620B9344940F2A31003F00F
:10AE9000ADF960690368002B57D0037BDA0756D5FC
:10AEA000002E38D00830FFF711FE002851D00023C3
:10AEB0008DF804307B1C30D135462A464146204669
:10AEC000FFF758FE2D1A80440ED09DF804306069BB
:10AED000002B37D003681B7833B12378204AD35C2A
:10AEE0005BB3201D02F046FCB9F1000F02D0761BC7
:10AEF000C9F800609DF804302BB9013703D0E3692D
:10AF00001868FDF7DFFE60690830FFF757FD15B1DF
:10AF10009DF80430FBB900250BE001AA3946E06931
:10AF2000FFF7FCFD05460028C6D060690830FFF732
:10AF300045FD284603B0BDE8F08304F10C0002F0A3
:10AF40004FF9D1E7FFF7E2FDB7E78025F1E70825E4
:10AF5000EFE71125EDE70D25EBE700BF017C0300CE
:10AF600044B6002073B50E46044620B92B494FF471
:10AF7000FD7003F03BF960690368002B46D0027B4B
:10AF8000920745D51B78002B3ED00430FFF79EFD7D
:10AF900000283FD000238DF80430731C0DD001AA87
:10AFA0003146A069FFF7BAFD054630B1606904304B
:10AFB000FFF704FD284602B070BD63691B685B683B
:10AFC0005868FFF7CFFB054640B96069FFF79EFD63
:10AFD0009DF80430002BF0D0002504E02046FFF758
:10AFE00089FD0028F1D19DF804302BB9013603D03A
:10AFF000A3691868FDF766FE60690430FFF7DEFCA0
:10B0000015B99DF804303BB90025D3E78025D1E779
:10B010000825CFE71125CDE70D25CBE7017C0300FF
:10B0200013B5044620B9154940F2592003F0DEF863
:10B0300060690368E3B1037BDB071BD50830FFF7CA
:10B0400045FDC8B101220DF107012046FFF792FD31
:10B050000028F7D163691B685B68186808B1FFF7BF
:10B0600049FB60690830FFF7A9FC002002B010BD61
:10B070008020FBE70820F9E71120F7E7017C0300B7
:10B080000D4930B5A1F594720225914201D80020F6
:10B090000EE08B1ADB1093FBF5F302EBC30452F8BE
:10B0A0003330834205D802D204F10802EDE760682C
:10B0B00030BD2146E9E700BF8C7D030008B5FFF7EE
:10B0C000DFFF024B002808BF184608BD517C030073
:10B0D000C0B2002348700B707047000070B50D4679
:10B0E000044618B90849712003F080F823681A68EB
:10B0F00012683AB11A681B6851681B682846BDE897
:10B100007040184770BD00BF46810300F0B504468B
:10B1100087B018B92D49372003F068F82368187EE6
:10B120001A68C0B207B296684FEAC70C06EB0C0269
:10B1300056F8376051791779927912F0010F4FEA7A
:10B14000510501F0010139D0002937D1D3F800E0D1
:10B150009EF80CE00130704530DAD3F800E00CF1D5
:10B160000800DEF808C084449CF805C0B5EB5C0F0D
:10B1700024D11A6891680A1851F800C0187E5179D4
:10B1800092F804E09279013011F0010F4FEA421277
:10B19000C0B20CBF0321022102F0200218768DF804
:10B1A000041004F10C0001A98DF80550CDE9027ED0
:10B1B000CDE9046C01F068FB07B0F0BD52014FF01F
:10B1C000000C02F02002E646E9E700BF46810300DA
:10B1D0002DE9F74F0E46044618B92949872003F098
:10B1E00005F82568DFF89CB04FF0000802A800F8C9
:10B1F000018DFDF785FD16B923681B6843B9002250
:10B2000029466068FFF7C0FA90B3C5F800800026B1
:10B210009DF80700FDF7A4FD7EB32B681B694BBBAF
:10B220002F1D10223946686903F0E0F9A8B104F136
:10B230000C0A504604F1080901F0CAFA23465A469E
:10B2400039464846FEF7B0F818B10D49B42002F06F
:10B25000CDFF504601F072FA6F6185F818802046E4
:10B26000FFF754FF014640B12046FFF737FFBDE727
:10B270000126CDE72B681F69D3E703B0BDE8F08F47
:10B280004681030089B2020038B50C46054618B95C
:10B290001249D22002F0AAFF23681B681BB90F498C
:10B2A000D82002F0A3FF297871B92268137E1068B4
:10B2B0000133007BDBB2984207D913762046FFF7B3
:10B2C00025FF014608B938BD03212046FFF706FFD8
:10B2D00020460121BDE83840FFF77ABF46810300D0
:10B2E000F8B50E46044620B919494FF4847002F0AF
:10B2F0007DFF636823B9164940F2091002F076FF1A
:10B3000063689B6823B912494FF4857002F06EFFA1
:10B3100026B90F4940F20B1002F068FF23460D4A90
:10B32000314604F10800FEF73FF8074670B904F112
:10B330000C0001F003FA23681F6096E80F002568EF
:10B34000043585E80F0023681A1D5A613846F8BD98
:10B350004681030089B2020037B50546019120B944
:10B36000144940F22D1002F041FF019B23B911490D
:10B370004FF4977002F03AFF019B9B6823B90D4987
:10B3800040F22F1002F032FF019B1B7B23B90949C9
:10B390004FF4987002F02AFF01A96868FFF71AF9C4
:10B3A000044618B901462846FFF712FF204603B0AD
:10B3B00030BD00BF468103002DE9F04186B08846CC
:10B3C00017461E460C9C054620B9194940F24F10FD
:10B3D00002F00CFF27B916494FF4A87002F006FFDF
:10B3E00026B9134940F2511002F000FF0023ADF8D6
:10B3F000003001238DF8003001A90E4B019328463F
:10B40000CDF808D003978DF81060CDF81480FFF7C1
:10B41000A3FF20B106B0BDE8F08104B1A0479DF8BC
:10B420000030002BF9D19DF80100C0B2F2E700BF57
:10B4300046810300D1B0020010B5044618B907498F
:10B44000A02002F0D3FE064B187920B901221C601F
:10B450001A71587110BD8520FCE700BF9A81030066
:10B4600010B1002008B50B4B1B791BB90A49B92054
:10B4700002F0BCFE094B1A68D2075FBFE02283F8D6
:10B48000002301221A604FF080430122C3F81825DF
:10B4900008BD00BF10B100209A81030000E100E068
:10B4A00037B5144B1B791BB91349E62002F09EFEF9
:10B4B000124B00221A601B680193019B4FF08043DE
:10B4C0000222C3F804230E4AD06840F08073D36090
:10B4D0000C4B1C6844F0010119605D685968491BF8
:10B4E000B1F50A5FFAD31C60074BD06001221A60E5
:10B4F00003B030BD10B100209A8103000401004068
:10B50000F0ED00E0001000E00800004008B5084B36
:10B510001B791BB90749F32002F068FE064B012294
:10B520001A604FF08042D2F81834DB03FBD408BD18
:10B5300010B100209A8103000C00004007B5154BA4
:10B540001A687AB100221A601B680093009B4FF0C2
:10B5500080430122C3F808230F4B587910B95A7160
:10B560001B6898470D4B1A6882B100221A601B684D
:10B570000193019B4FF080430222C3F80823064B3E
:10B580001B68012003B05DF804EB184703B05DF8B9
:10B5900004FB00BF0001004010B100200401004086
:10B5A00000F1804000F5C040002382B003600368D2
:10B5B0000193019B02B07047054B4FF0FF32072803
:10B5C00043F8202084BF1B1883F84820704700BF31
:10B5D00018B1002002494FF4F37002F007BE00BF1B
:10B5E000446B03001F2838B504460D4601D9FFF708
:10B5F000F1FFA00000F1A040D0F8003723F4403361
:10B60000C0F80037D0F8003743EA0543C0F80037E8
:10B6100038BD000010B5164C94F8583033BBFF21EC
:10B62000E2180133202B82F83010F9D10021C8B282
:10B63000FFF7C2FF01310C29F9D1042200210D4886
:10B6400003F0A0F80C4BE02283F8062340221A6096
:10B650004FF4BE70FFF7A4FF084B4FF00042C3F851
:10B660000423012384F85830002010BD0820FCE793
:10B6700018B100206CB1002000E100E00060004043
:10B68000034B93F85800003018BF0120704700BFEB
:10B6900018B100201F2870B504460D4604D9414951
:10B6A0004FF4987002F0A2FD3F4E96F85830012BEF
:10B6B00004D03C4940F2311002F098FD25B93949D7
:10B6C0004FF4997002F092FD331993F93020013252
:10B6D00065D1AA78002A54D0002356F823100131EE
:10B6E0004FEA830248D1311902F1804281F83030AB
:10B6F000002102F5C04246F82310D2F810052B783D
:10B70000697820F498101B04090520F4F85001F41E
:10B71000801103F44033C2F810050B432102D2F824
:10B72000100501F4F8510B430343C2F810356B7850
:10B73000012B4FF0010528D11F2C01D9FFF74AFF3B
:10B740004FF0A043A540C3F808551F2C01D9FFF7BF
:10B7500041FF04F5E0724FF0A043032143F82210AB
:10B76000E2081249012304F0070403FA04F48B5C95
:10B770001C438C54002003E00133082BADD104207E
:10B7800070BDFE2283F83020D1E71F2C01D9FFF7CE
:10B7900021FF4FF0A043A540C3F80C55D5E7082082
:10B7A000EEE700BFED81030018B100206CB100206E
:10B7B0001F2838B5054604D912494FF4BE7002F06F
:10B7C00015FD114C621992F93020013204D10D4956
:10B7D00040F27D1002F00AFD631993F83030072B18
:10B7E00004D808494FF4BF7002F000FD1F2D01D9A5
:10B7F000FFF7F0FE012303FA05F54FF0A043C3F86D
:10B80000085538BDED81030018B100201F2838B558
:10B81000054604D912494FF4C37002F0E7FC114CFD
:10B82000621992F93020013204D10D4940F287109B
:10B8300002F0DCFC631993F83030072B04D8084978
:10B840004FF4C47002F0D2FC1F2D01D9FFF7C2FEE5
:10B85000012303FA05F54FF0A043C3F80C5538BD9A
:10B86000ED81030018B100202DE9F04F87B00024CE
:10B870005B4A5C4E5C4D039401211368A2F5C04005
:10B88000012B80B206D1D6F804330B4202D0FFF769
:10B8900087FE0C430432AA424FEA4101EDD1534BDB
:10B8A0001B68012B0AD14FF4BE70FFF779FE4FF0F1
:10B8B000A04344F00044D3F81035039314F0FF0F75
:10B8C0001AD04B4F00250126344210D0AB0003F1B3
:10B8D000804303F5C043D3F81005D3F8101557F88B
:10B8E0002530C0F30420C1F3014103B1984701356D
:10B8F000082D4FEA4606E7D1002C6EDA00224FF001
:10B90000FF33CDE904233A4F4FF0000A56464FF07B
:10B91000A04907EB0A0393F95040631C46D0E4B2F8
:10B92000012224F0C00504F0070B02FA0BFBEB0820
:10B9300006AAD11811F8042C12EA0B0F36D07A1986
:10B94000A40992F9302057F82280B8F1000F0AD1EB
:10B95000032C2BD10DF1100C1CF8030040EA0B0056
:10B960000CF8030001E0032CF4D01F2D03D9019142
:10B97000FFF730FE019911F80C1C05F5E07311EA90
:10B980000B0F59F82330C3F3014320D0022B0DD104
:10B99000032C05D121462846FFF724FE0136F6B2D6
:10B9A000B8F1000F02D021462846C0470AF1010A2B
:10B9B000BAF1040FADD186B14FF0A043039AD3F88A
:10B9C00010359A4209D00393049B05939CE7032BFF
:10B9D000ECD1032CE4D10221DDE707B0BDE8F08F04
:10B9E0000061004000600040206100407C61004038
:10B9F00018B1002010B5054C22681AB9044951202D
:10BA000002F0F4FB2368BDE81040184774B1002031
:10BA10004682030037B50D4630B90F49772002F052
:10BA2000E5FB002003B030BD0C4B9842F9D102A8D1
:10BA3000002300F8013DFDF763F9094B1C7914B9A7
:10BA400001221D601A719DF80700FDF789F9002C8D
:10BA5000E7D01120E6E700BF468203000020004047
:10BA600074B1002018B906499B2002F0BFBB054BFA
:10BA7000984201BF044B00221A601A71704700BF40
:10BA8000468203000020004074B100200023435090
:10BA900082B043580193019B02B0704770B5D0F853
:10BAA000103105460C4653B14FF48871FFF7EEFF95
:10BAB00063795A0703D523680BB101209847D5F85D
:10BAC00014315BB14FF48A712846FFF7DFFF6379C9
:10BAD0001B0703D523680BB102209847D5F81C310A
