:1000000000000120F57000001D710000692600004D
:100010002171000023710000257100000000000024
:100020000000000000000000000000002771000038
:1000300029710000000000002B7100002D710000EC
:10004000054C00002F710000BD5000001D5B00003A
:10005000CD5300002F710000314F000021520000ED
:10006000DD5A0000ED5A0000FD5A00002F7100001B
:100070002F7100002F7100002F7100002F71000000
:100080002F710000492100002F7100002F71000026
:10009000E52100002F7100002F7100002F7100007A
:1000A0002F7100002F7100002F7100002F710000D0
:1000B000D95100002F710000000000000000000076
:1000C0002F710000E9510000F95100002F7100006C
:1000D0002F7100002F7100002F7100000000000040
:1000E0000000000000000000000000000000000010
:1000F0000000000000000000000000000000000000
:1001000000000000000000000000000000000000EF
:1001100000000000000000000000000000000000DF
:1001200000000000000000000000000000000000CF
:1001300000000000000000000000000000000000BF
:1001400000000000000000000000000000000000AF
:10015000000000000000000000000000000000009F
:10016000000000000000000000000000000000008F
:10017000000000000000000000000000000000007F
:10018000000000000000000000000000000000006F
:10019000000000000000000000000000000000005F
:1001A000000000000000000000000000000000004F
:1001B000000000000000000000000000000000003F
:1001C000000000000000000000000000000000002F
:1001D000000000000000000000000000000000001F
:1001E000000000000000000000000000000000000F
:1001F00000000000000000000000000000000000FF
:1002000010B5054C237833B9044B13B10448AFF350
:1002100000800123237010BDDC09002000000000D5
:100220006C1C010008B5034B1BB103490348AFF335
:10023000008008BD00000000E00900206C1C0100E7
:10024000154B002B08BF134B9D46A3F5803A0021A8
:100250008B460F461348144A121A07F09FF80F4BAB
:10026000002B00D098470E4B002B00D09847002061
:10027000002104000D000D48002802D00C480BF0AE
:100280004DF906F069FF2000290000F06FF906F033
:1002900053FF00BF00000800000001200000000024
:1002A00000000000DC090020E01A00201DB500005D
:1002B000EDC600000000000008B50B1A07EE903AEA
:1002C0009FED177AF8EEE77A8842F4EEC77A18D3F2
:1002D000F1EE10FA1BDB01F57F41FF31081A07EE42
:1002E000900AF8EEE77A17EE900A0FF04BF90AA39E
:1002F000D3E900230FF09EF90FF074FC00EE100A12
:1003000008BDF1EE10FA84BF00F57F40FF30401ABF
:10031000E5E700BFAFF30080316F1F03C303443F25
:1003200000FFFF462DE9F0412DED028B7F48DFF8FD
:1003300038827F4F7F4DA2B007F07AF8602200210B
:100340000AA807F02BF84FF0A0431022C3F8182595
:1003500020210022C3F80C27C3F818154FF40051D0
:10036000C3F808270424C3F81815C3F840270AA8BF
:1003700001F044F8082CFAD801A353F824F000BF88
:10038000A50300006F0300006F0300006F0300006F
:10039000E30300006F0300006F030000D7040000B8
:1003A00067040000644807F043F80AA801F004F865
:1003B000044688B90346614A6148102107F0F2FB00
:1003C00021465F4800F010FD01215E4800F00CFD61
:1003D0002146204601F06CF822B0BDEC028BBDE84E
:1003E000F081594807F024F80AA800F0E5FF00283A
:1003F00047D1564807F01CF801230222052102A824
:1004000000F030FA5248B0EE408A07F011F80123AC
:1004100010220D2103A800F025FA4E48F0EE408A84
:1004200007F006F838EE688A18EE100A0FF0AAF8FE
:1004300002460B46484806F0FBFFF0EE087AB4EEA1
:10044000E78AF1EE10FA03DD01F0E8FB07248EE7FE
:10045000F8EE087AB4EEE78AF1EE10FA11D501F061
:10046000DDFB082483E73D4806F0E2FF01F0FAFBDC
:100470000AA8B0EE418A00F09FFF064618B101F0CD
:10048000EBFB002473E7F0EE087AB4EEE78AF1EEB6
:1004900010FA07DD01F0E0FB0021084601F008F842
:1004A000042464E718EE100A0FF06CF83A46CDE920
:1004B00000011021284607F075FB0121284600F0B5
:1004C00093FC3146264800F08FFC55216FF0540014
:1004D00000F0EEFF4BE7404606F0AAFF01F0C2FB3A
:1004E0000AA8B0EE418A00F067FF06460028C6D190
:1004F000F8EE087AB4EEE78AF1EE10FACAD418EEF4
:10050000100A0FF03FF83A46CDE9000110212846C5
:1005100007F048FB0121284600F066FC31461148EF
:1005200000F062FC6FF054015520D1E79CFF000001
:10053000FEFF0000281A0020B7FF0000BBFF0000EC
:10054000181A0020BA0F0100BEFF0000C5FF00000E
:10055000CDFF0000D5FF0000DDFF0000EDFF000033
:100560000100010008000100F4FF000070B54FF425
:1005700000418EB0002002F05DFF18B13A4A4D21D3
:1005800001F093FD02F088FE3848394C06F050FF28
:100590004FF0A0434FF40002C3F818254FF08072CB
:1005A000C3F818254FF00072C3F8182594E80F001F
:1005B00002AD103485E80F0094E80F0006AE86E81F
:1005C0000F0000231A463146284602F051FA18B1AE
:1005D000254A642101F069FD284600F08DFB0021C9
:1005E000244800F001FC244806F022FF234B0FCBE7
:1005F0000AAC84E80F001322142321462048CDE9D9
:100600000A2304F0E9F918B1174A6F2101F04DFDF2
:100610001B4801F031FA1B4806F00AFF0C230024A6
:100620008DF8003016488DF8014001238DF8023016
:100630008DF803408DF8044001F0D8FB6B4693E839
:10064000030001F0D9FB054601F0F8FB29460E48EE
:1006500006F0EEFE00F086FE0C4806F0E9FE00F023
:100660008BF920460EB070BD440001004B00010024
:10067000140001005D0001006B0001003400010066
:10068000C40001008100010093000100AD000100E1
:1006900090ED007AD1ED007AB4EEE77AF1EE10FA3F
:1006A000CCBF012000204CBF01230023C01A70479B
:1006B000064A136801331360054B1B68022B0CBFFD
:1006C000044A054A0023C2F844317047380A002022
:1006D0000400002000A000400090004002494FF4B8
:1006E000F37002F05DB800BF74010100000000006B
:1006F0002DE9F843884607463B48164606F098FE23
:10070000B8F11F0F01D9FFF7E9FF01254FF0A0490C
:10071000364C05FA08F5C9F80C5544F001044FF4BD
:10072000A060A047B8F11F0F01D9FFF7D7FFC9F8A4
:1007300008554FF44070A047B8F11F0F01D9FFF7DB
:10074000CDFF4FF0A0484FF4A060C8F80C55A0476B
:10075000274806F06DFE274806F06AFE0125B540E1
:100760001F2E01D9FFF7BAFFD8F810351D42F7D078
:10077000214C22480023236006F05AFEA0464FF089
:10078000A0491F2E01D9FFF7A9FFD9F810452C4029
:10079000F7D11B4806F04CFED8ED007A194BF8EE65
:1007A000677A93ED007A67EE877A17EE900A0EF07B
:1007B000E9FE0BA3D3E900230EF03CFF0FF012FA81
:1007C0009FED117A07EE900AF4EEC77AF1EE10FA77
:1007D00046BFC7ED007A01202046BDE8F88300BF80
:1007E0009CC420B07268913FF6000100F000010047
:1007F000FA000100FE000100380A00200201010099
:1008000006010100000000200000C84338B50422A2
:100810000D46134B044606F01FFEEB074FF0020097
:1008200095FBF0F00CD404EB8004D4ED007A14EDC9
:10083000010A30EE270AF6EE007A20EE270A38BDCC
:100840000EF08EFE41EC100B0DF0E2FE51EC100BA1
:100850000FF0A0F904EB800090ED000AEFE700BF75
:10086000910600002DE9F84F1C469B000A3323F047
:10087000070300AF8146ADEB030D1C488A46934643
:1008800006F0D6FD6E46B0460025A54213DB214694
:100890003046FFF7BBFF10EE100A0EF073FE024663
:1008A0000B46134806F0C4FD21463046FFF7AEFF65
:1008B000BD46BDE8F88F0F4806F0BAFD5A465146CE
:1008C0004846FFF715FF0028F8D00B4806F0B0FDAA
:1008D000D9F8000048F8040B0EF054FE02460B460F
:1008E0000648294606F0A4FD0135CEE73C0101008B
:1008F0006801010041010100460101004B010100B6
:100900001FB5164A92E8030002AB002283E80300F9
:100910008DF80A201946124A124804F071FF20B1DE
:10092000114A40F2252101F0C0FB01210091022370
:100930004FF4FA720B4805F0BAF80C4B0C4A1A60E7
:1009400018680EF01FFE02460B460A4806F070FDBE
:10095000044805F005F805B05DF804FBDC00010073
:10096000B1060000E40001001201010000000020B7
:100970000000FA41B70101002DE9F04F2DED028B87
:10098000A5B001F081FDFFF7BBFF4FF0A04310229F
:10099000C3F8182500242022C3F80C47C3F81825F3
:1009A0004FF40052C3F808472146C3F818250CA895
:1009B000C3F8404760220026AD4FDFF800B306F0D1
:1009C000EDFC0FF2A429D9E9008908EE106A25464A
:1009D00047F00107584606F02BFD0CA800F00EFD6D
:1009E0004FF47A40B84701F04FFA0B2CF2D801A32C
:1009F00053F824F0250A0000650A0000D50900001C
:100A0000E70B0000D5090000D5090000D50900005A
:100A1000D5090000D5090000D5090000050B00002C
:100A20007D0B00000021084600F042FD914806F0D1
:100A3000FFFC0CA800F0C0FC014648B18E4B0593AA
:100A4000BDF842509FED8D8A01F0E8F80B24C1E714
:100A50008B489FED8A8A00F0C7F90121894800F090
:100A6000C3F9B7E7FFF75EFC874806F0E1FC0CA886
:100A700000F0A2FC8246002852D19DED057AF2EEEC
:100A80000E7AB4EEE77AF1EE10FA1DD830460EF089
:100A900079FD02460B467D4806F0CAFC18EE100AA6
:100AA0000EF070FD02460B46784806F0C1FC6FF070
:100AB0003101714B0593084618EE106A00F0F8FCFE
:100AC0009FED6E8A544685E701230322042105A881
:100AD000FFF7C8FE18EE100A0EF054FD6C4ACDE97F
:100AE000000110216B4807F05DF851466A4800F09C
:100AF0007BF90121674800F077F93221372000F0B7
:100B0000D7FC67E7654806F093FC01F0ABF80CA84A
:100B1000F0EE418A00F050FC824630B101F09CF8C2
:100B200000249FED568A254654E7DFED5D7AF4EE0A
:100B3000E78AF1EE10FA0AD8014600F0B9FC9FED01
:100B40004F8A01F089F80124BDF8425042E718EEBF
:100B5000900A0EF017FD4E4ACDE9000110214D48D4
:100B600007F020F851464F4800F03EF9012149486E
:100B700000F03AF96FF031013220C0E74A4806F040
:100B800057FC01F06FF80CA8F0EE418A00F014FC5D
:100B900082460028C2D1DFED457AF4EEE78AF1EE15
:100BA00010FA09DB344BBDF8425005939FED338AB0
:100BB00001F052F803240DE718EE900A0EF0E2FC63
:100BC000334ACDE900011021324806F0EBFF5146CF
:100BD000374800F009F901212E4800F005F93221CB
:100BE0006FF031008BE7334806F022FC0CA800F0D0
:100BF000E3FB8246002893D118EE100A0EF0C2FCE7
:100C000042464B460EF09CFF48B101F007F85146B2
:100C1000504600F04DFC9FED198A0A24DAE6BDF833
:100C200042A0039029465046FFF746FB38EE008A63
:100C3000554618EE100A0EF0A5FC154ACDE9000144
:100C40001021144806F0AEFF039B1B48194600F024
:100C5000CBF801210F4800F0C7F83221084600F018
:100C600027FCB7E6AFF300809A9999999999B93F13
:100C7000D0010100DF010100000048420000000037
:100C8000E4010100BA0F0100E8010100F1010100D7
:100C9000FEFF0000281A0020FF01010007020100EA
:100CA0000000AEC2130201001E0201000000A842B3
:100CB000290201003302010040020100D6010100B7
:100CC0001FB500220091022369460430CDE90132AC
:100CD000039204F0B7FC05B05DF804FB38B5054D90
:100CE0000A2445F001054FF47A40A847013CFAD1A7
:100CF00038BD00BF5002010073B502AC0E2324F8CA
:100D0000043D374E21463060FFF7DAFF0546C0B19B
:100D1000344A182101F0C9F9284602B070BD314AA1
:100D20002221F7E72F4A2C21F4E72E4A3621F1E75A
:100D30002C4A4021EEE72B4A4A21EBE7294A54216D
:100D4000E8E7FFF7CBFF022321463068ADF8043017
:100D5000FFF7B6FF05460028E1D1FFF7BFFF4FF4CC
:100D6000804321463068ADF80430FFF7A9FF0546FF
:100D70000028D7D1FFF7B2FF48F2010321463068BF
:100D8000ADF80430FFF79CFF05460028CDD1FFF7F2
:100D9000A5FF4FF4004321463068ADF80430FFF75B
:100DA0008FFF05460028C3D1FFF798FF44F20303E5
:100DB00021463068ADF80430FFF782FF0546002871
:100DC000B9D1FFF78BFF402321463068ADF80430DE
:100DD000FFF776FF05460028B0D1FFF77FFF9BE7BE
:100DE0003C0A0020560201002DE9F34107460C465B
:100DF00006F086FF102806463CD85CBB02A92023DB
:100E000021F8043D1F4B1868FFF75AFF0446C8B984
:100E1000DFF870800025B54238BF7B5DD8F8000050
:100E200028BF20239A0862F07F029B0101A98DF858
:100E300004208DF80530FFF743FF0446F0B1124A55
:100E40008E2101E0104A6D2101F02FF9204602B0F9
:100E5000BDE8F081012C0FD102A9302321F8043D17
:100E6000084B1868FFF72CFF04460028D0D0064A2C
:100E70007521E9E70924E9E70B24E7E70135102D9F
:100E8000C9D1E3E73C0A0020560201002DE9F04FEA
:100E90005D4C87B0002389468DF80F30074600F07F
:100EA00055FA4FF0FF31206803F0DCFBA046824684
:100EB00038B10146554806F0BBFA504607B0BDE8C8
:100EC000F08F206803F02CFC044628B101465048FE
:100ED00006F0AEFAA246F0E7B9F1040F40F28B80BB
:100EE0000546002600E05546042EFDD801A353F820
:100EF00026F000BF090F0000E90E0000790F000086
:100F0000A10F0000C30F00004FF0640BCDF800B03C
:100F10000023012204A9D8F8000003F02DFB82462B
:100F200060B101463B4806F083FA132D05F1010B31
:100F300013D8394806F07CFA5D46D5E7CDF800B005
:100F4000034601220DF11101D8F8000003F014FB53
:100F5000824630B101463148E5E7314806F068FA8B
:100F6000ABE79DF81020AA2ABDD19DF81120552A83
:100F7000054608BF0226B7E7642300930122002339
:100F80000DF10F01D8F8000003F0F6FA82460028B0
:100F900093D19DF80F3002334B452CDA0326A3E79B
:100FA0009DF80F2064230093013205ABF91CD8F89B
:100FB000000003F0E1FA824600287FF47EAF0426A9
:100FC00092E7022204A9384606F04EF99DF80F1068
:100FD000B9703846033100F0E1F99DF80F303B4419
:100FE000DB7883420AD0032C0BD0013421460D4814
:100FF00006F01EFA75E74FF0040A5EE74FF0000AAC
:101000005BE7DFF824A058E708000020B1020100E8
:10101000C2020100D60201000503010083030100A2
:1010200017030100B103010024FAFFFF2DE9F84383
:101030008778032407F1020806460D46274401F18C
:1010400054093319A04501DABDE8F883315D5A78B7
:1010500001391429F6D801A050F821F0B110000090
:101060004510000089110000A5110000C311000007
:10107000EB11000045100000451000004510000075
:101080000912000025120000451000003F12000068
:1010900045100000451000007512000045100000CA
:1010A00045100000D7120000451000000B1300008F
:1010B0000F2A40F04981D9789A7842EA0122EA83DE
:1010C000221DB15C01F001012971B15CC1F3400145
:1010D000E970B25C611DC2F38002AA70725C02F01A
:1010E00001026A70725CC2F340022A70A21DB15CF8
:1010F00001F00101E971B15CC1F34001A971B25C79
:10110000C2F380026A71197ADA7942EA01226A82AC
:10111000997A5A7A42EA0122AA82DA7AAA761A7B64
:10112000EA7604F10D02B15C01F00101A973B15C32
:10113000C1F34001E973B25CC2F380022A749A7B66
:10114000062A1DD012D8C2B1022A15D0DB7B85F841
:10115000203004F110021134B35C03F001032B774B
:10116000B35CC3F340036B77E4B26AE7122A09D099
:10117000162AEBD1042200E0012285F82120E5E7C0
:101180000222FAE70322F8E7032A40F0DD809A788A
:1011900085F82C20DA7885F82D201B7985F82E30FB
:1011A0000534E1E7072A40F0CF80D9789A7842EAFF
:1011B00001226A845A791B7943EA0223AB840934F9
:1011C000D2E7062A40F0C080D9789A7842EA012214
:1011D000AA8159791A7942EA01226A81DA799B79DE
:1011E00043EA02232B810834BEE7022A40F0AC8098
:1011F000D9789A7842EA0122EA825A791B7943EA3D
:1012000002232B830434AFE7042A40F09D809A78B0
:1012100085F82F20DA7885F830201B7985F8313071
:101220000634A1E7042A40F08F809A7885F83220AE
:10123000DA7885F833201B7985F83430F0E706201A
:10124000B2FBF0F100FB1121C9B202297CD19879DF
:10125000597941EA0021E984187AD97941EA0021D3
:101260002985997A5B7A023443EA01236B8552FA25
:1012700084F479E7102A67D1A21C1234B15C01F022
:10128000010185F84410B15CC1F3400185F84410B8
:10129000B15CC1F3800185F84410B25CC2F3C002B6
:1012A00085F8442059791A7942EA0122A5F84820A4
:1012B000D9799A7942EA0122A5F84A20597A1A7A0C
:1012C00042EA0122A5F84C20DA7A9B7A43EA02230B
:1012D000A5F84E3048E70C2A36D1A11C042231442F
:1012E00005F1380005F0C0FFA11D0422314405F1CD
:1012F0003C0005F0B9FF04F10A010422314405F174
:10130000400005F0B1FF0E342EE70D2A1CD19B786A
:101310005A1E53425341E11C85F850300422314497
:10132000484605F0A1FFE11D0422314405F15800B3
:1013300005F09AFF04F10B010422314405F15C0031
:1013400005F092FF0F340FE73C440DE7024A0349D2
:10135000034802F0C5BF00BF4C0401002004010097
:101360006804010010B501F013FB852804D018B102
:10137000094A352100F099FE002001F021FB01F01F
:1013800083F88528044604D018B1034A3B2100F0B5
:101390008CFE204610BD00BFC203010010B5821CA8
:1013A0000023141AA14201DC184610BD12F8014BAB
:1013B0006340F6E7FFF7F2BF10B5827B0C49AAB194
:1013C0000B7883F001030A70C27B0A491AB10C78CA
:1013D000002C08BF13460A70027C07491AB108782E
:1013E000002808BF13460A70184610BD1346EAE7E6
:1013F000400A0020410A0020420A002030B5A5B072
:101400008C220021054601A805F0C8FF8C2101A807
:10141000FFF73CFD044618B9294601A8FFF706FE70
:10142000204625B030BD000070B5C2B00D4602ACFC
:101430000646FE2200210DF10A0005F0AFFF45F23D
:10144000AA532A4631460DF10B00EE1C2380A570ED
:1014500005F00AFF31462046FFF7ACFF0A23A055EE
:10146000044800932A1D00232146006802F0D4FF9F
:1014700042B070BD080000201FB540F20143ADF836
:101480000600ADF80410022201A90DF10A00ADF822
:10149000083005F0E9FE02220DF1060103A805F06F
:1014A000E3FE062102A8FFF7BFFF05B05DF804FBCD
:1014B0002DE97043054608460E4605F039FE044600
:1014C000284605F035FE8442D4BF2C463446AE4251
:1014D00031D070190EF044F88046701B89460EF02A
:1014E0003FF802460B460DF0EFFE15A3D3E90023AB
:1014F0000EF0CAF90B460246494640460EF0C4F9C2
:101500000EF048FB0EF02CF841EC100B0DF008F932
:1015100051EC100B0EF03EFB00F50043B3F5803F9D
:1015200001D2012801D86442012021B200B2BDE8F5
:101530007043FFF7A1BF0020F7E700BFAFF30080C3
:101540000000000000C05E4038B5054D044645F07F
:1015500001054FF47A40A847013CFAD138BD00BFDD
:10156000100501007FB506460D46144672B602F01E
:1015700089F901F0B9FF0028FBD1374805F058FF81
:1015800044F201039E4254D044F202039E425ED1D3
:1015900022886168314805F04BFF03F0D5FB08B99C
:1015A00003F09CFB0023ADF80C308DF80E3003A93E
:1015B000012319208DF80D3003F0D0FB03A918206A
:1015C00003F0CCFB03A9172003F0C8FB192003F09C
:1015D00081FC182003F07EFC172003F07BFC4FF405
:1015E000FA70FFF7B1FF192003F046FC182003F052
:1015F00043FC172003F040FC3220FFF7A5FF192021
:1016000003F068FC182003F065FC172003F062FC6F
:101610004FF4FA70FFF798FF192003F02DFC182003
:1016200003F02AFC172003F027FCFA20FFF78CFFB9
:10163000CCE7A668304603F0C1F823680195009313
:10164000024663680648314605F0F2FEA5E72946E2
:10165000044805F0EDFEA0E790040100A904010094
:10166000C4040100EE04010007B503F06DFB08B9E6
:1016700003F034FB0023ADF804308DF8063001A9E7
:10168000012319208DF8053003F068FB01A918200B
:1016900003F064FB01A9172003F060FB192003F09D
:1016A00019FC182003F016FC172003F013FC4FF46C
:1016B000FA70FFF749FF192003F0DEFB182003F052
:1016C000DBFB172003F0D8FB3220FFF73DFF19208A
:1016D00003F000FC182003F0FDFB172003F0FAFBD9
:1016E0004FF4FA70FFF730FF192003F0C5FB182004
:1016F00003F0C2FB172003F0BFFBFA20FFF724FF23
:10170000CCE770477FB5400003AB8DF80C108DF827
:10171000150000210B480493009102238DF80D2041
:101720008DF8143004AA012340688DF8161003F0D8
:10173000BFF918B1044A392100F0B7FC07B05DF8D1
:1017400004FB00BFE80E00202805010000B589B0A9
:101750000F238DF80E300DF10E03049301239840F2
:101760008DF81500184300218DF81D000E480091DA
:101770000DF10F028DF814308DF8163006928DF8A9
:101780001C3004AA022340688DF80F108DF81E103B
:1017900003F08EF918B1054A2F2100F086FC9DF860
:1017A0000F0009B05DF804FBE80E002028050100D9
:1017B00000B589B008AB069203F8111D049301230C
:1017C00098408DF8150040F0010000218DF81D00B3
:1017D0000B488DF814308DF81630009106238DF8E3
:1017E0001C3004AA022340688DF81E1003F060F933
:1017F00018B1044A252100F058FC09B05DF804FB3B
:10180000E80E002028050100084B5B7A012B07D069
:1018100002D3022B07D07047054B064A1A60704767
:10182000034B054AFAE7024B044AF7E7E80E0020AB
:10183000C80E0020295C0F3C295C8F3C295C8F3D41
:101840000A4B1B7E032B06D8DFE803F0020C0609C7
:10185000074B084A1A607047054B074AFAE7044BE2
:10186000064AF7E7024B064AF4E700BFE80E0020FD
:10187000BC0E002040DA7F3840DAFF3840DA7F398A
:10188000B0E33F3A0A4B93F82130032B06D8DFE848
:1018900003F00206090C074B074A1A607047054B14
:1018A000064AFAE7034B064AF7E7024B054AF4E714
:1018B000E80E0020E00E0020F7CC1239240B9839F6
:1018C0009F71E139240B183A014B5878FFF73EBF5E
:1018D000E80E0020014B9878FFF738BFE80E002093
:1018E00010B5284C237A13B1A27A5201D3B2E27A0E
:1018F000617A607802F0030242EAC1021A43D2B26E
:101900001021FFF7FFFE002211216078FFF7FAFE99
:10191000227B637B002A18BF80222BB1A37B03F0BC
:101920000F0343F040031A4312216078FFF7EAFEE9
:10193000627D237D002A18BF20220BB142F01002E5
:10194000E37C13B142F00802D2B2A37D13B142F09E
:101950000202D2B21E216078FFF7D4FEE27B237C24
:10196000002A18BF20220BB142F01002637C13B191
:1019700042F00802D2B260781321BDE81040FFF7B0
:10198000C1BE00BFE80E002010B51B4C227FE37ED5
:10199000002A18BF20220BB142F01002A37E13B11F
:1019A00042F00802D2B21F216078FFF7ABFEE27D61
:1019B00012B1627E5201D2B2237E607842EAC30243
:1019C00094F91D30D2B2002BA2BF42F0040203F002
:1019D00003031A432021FFF795FEA27F2AB1E27F7D
:1019E000520102F0600242F0800260782121BDE8DD
:1019F0001040FFF787BE00BFE80E002010B51D4C59
:101A000094F8243094F8221094F82320A0785B01F5
:101A10008900002A01F01C0103F0600343EA01037E
:101A200018BF80221A432021FFF76CFE94F8212072
:101A3000A0782121FFF766FE94F8263094F827203D
:101A4000A078002B18BF202302F003021A432221A2
:101A5000FFF758FE94F82520A078920002F00C02BF
:101A60002321FFF74FFEA07800222421BDE810407B
:101A7000FFF748BEE80E0020324B13B55860062031
:101A80005881587646F60122FF201A8058771C228A
:101A90004FF48074072001219A705C8200225884E0
:101AA00040F2011440F2033019725A729A81DA81BD
:101AB0001A829976D97619771A769A77DA7783F82F
:101AC000201083F821209884DA8483F828109C82DF
:101AD0001D49DC821D4B0A801A804A805A808A8008
:101AE0009A801B4B1A701B4A92E803006B4683E8EE
:101AF0000300194A1948194603F082FE20B1184A1A
:101B00004FF4C67100F0D1FAFFF77EFEFFF7BAFE80
:101B1000FFF796FEFFF7D8FE0446FFF7DBFE40EA2C
:101B2000042000B246F63D03984208D1FFF7D8FEE4
:101B3000FFF72AFFFFF762FF002002B010BD4FF051
:101B4000FF30FAE7E80E0020C20E0020B40E00209D
:101B5000C00E002018050100031700002005010039
:101B600028050100F0B5264B264C5878264D274E07
:101B70008BB005AA1821FFF71BFE9DF815309DF8C4
:101B800014009DF816109DF81920247840EA0320CF
:101B90009DF8173041EA03219DF8183043EA0223EB
:101BA0001B4A00B209B21BB22880318013804CB1AD
:101BB000184C2788C01B28806088091A3180A188AA
:101BC0005B1A1380144BD3ED007AB6F9003000EEA7
:101BD000903AB2F9003001EE103AB5F9003000EE5B
:101BE000103AF8EEE00AB8EEC11AB8EEC00A60EE9C
:101BF000A70A20EE270A21EE271A0BB0F0BD00BF7E
:101C0000E80E0020C00E0020CC0E0020CE0E0020DA
:101C1000D00E0020C20E0020C80E002010B50B48C8
:101C200003F0D4FE044670B9094B084800229A60BC
:101C30005A601A6003F0E4FE044803F091FE054B7D
:101C400020461C6010BD0820FCE700BF20050100F5
:101C5000D40E0020E40E0020014803F09DBE00BF1A
:101C60002005010000B52DED028B00218BB02D4821
:101C700003F0DCFE2C4A9FED2D7A13681060C31A26
:101C800007EE903AF8EE677A87EE878AFFF76AFFE9
:101C9000274BF6EE007AB4EEE71AF1EE10FA06DC06
:101CA000BEEE007AB4EEC71AF1EE10FA05D593ED48
:101CB000027AA8EE017A83ED027AB4EEE70AF1EE39
:101CC00010FA06DCBEEE007AB4EEC70AF1EE10FAA6
:101CD00005D593ED007AA8EE007A83ED007AF4EE54
:101CE000E70AF1EE10FA06DCFEEE007AF4EEE70AFF
:101CF000F1EE10FA05D5D3ED017AE8EE207AC3EDC6
:101D0000017A93E807000AAB03E907009DED070A93
:101D1000DDED080A9DED091A0BB0BDEC028B5DF8F4
:101D200004FB00BF20050100E40E002000247449DC
:101D3000D40E00207FB5C1F307238DF80C008DF879
:101D40000D308DF80E1003AB00210B480493009169
:101D500048F60303ADF8143004AA012300688DF897
:101D6000161002F0A5FE18B1044A1E2100F09DF9DC
:101D700007B05DF804FB00BF381A0020BB05010066
:101D800000B58BB00DF10F030693012398408DF839
:101D90001D0040F001008DF80F108DF82500002186
:101DA00010488DF81C308DF81E3000910DF116038F
:101DB000089306AA02230068ADF816108DF82430A7
:101DC0008DF8261002F074FE18B1074A0F2100F0BA
:101DD0006CF9BDF81630D8B21B0A43EA00200BB0EC
:101DE0005DF804FB381A0020BB050100014B1860A8
:101DF000704700BF381A002007B502AB03E90300A3
:101E00009DF800300C2B17D89DF801101B0343EAF6
:101E1000C1239DF8021043EA01139DF8031043EA21
:101E2000C1039DF804109BB201201943FFF782FF04
:101E3000002003B05DF804FB0820FAE710B501218B
:101E40004420FFF79DFF044624F4C0640146A4B279
:101E5000094805F0EDFA2146084844F4806405F08D
:101E6000E7FA2146064805F0E3FA21460120BDE8DD
:101E70001040FFF75FBF00BF7F0501008F05010025
:101E8000A50501000000000010B52DED028B012119
:101E90004420FFF775FF0306F9D500214420FFF722
:101EA0006FFFC0F30F3300EE903AB0EE000AF8EE89
:101EB000600A04460CF086FCC4F30B0407EE904A5B
:101EC00010EE100AB8EEE78A0DF05CFB06A3D3E92A
:101ED00000230DF0AFFB0DF085FE07EE900A28EE13
:101EE000270ABDEC028B10BD7B14AE47E17A843F1C
:101EF0000369C1688B429DBF8268D21802F1FF322C
:101F000003F1FF3394BF501A581A70472DE9F0417E
:101F1000D0E902670446F61B40689642884615469B
:101F2000384405D905F0A0F93D44E560BDE8F081ED
:101F30003246AD1B05F098F92A4608EB06016068A9
:101F400005F092F9F1E72DE9F843C56806468946A0
:101F500017464FF000083469B3687068A54228BF7F
:101F6000E418013C621B5C1BBC4228BF3C46944207
:101F700028BF144649462844224605F075F9B3683F
:101F80002544AB4208BF00253F1BA044A144F56097
:101F9000E1D14046BDE8F88310B5114C114AA26169
:101FA0000223C4E90433104BE361A2644FF40073CD
:101FB0000E4A2362E264002310220D49A362E01D51
:101FC0006362E362A3656365E365226505F032FE43
:101FD0000849204605F02EFE2023A37110BD00BF46
:101FE0003C1A002012060100240F0020140F0020CC
:101FF0001B0601001F060100F8B5184C182300FB52
:10200000033503FB00402544C46A012C0F461646E5
:1020100011D003D3022C1BD000240AE02846FFF77E
:1020200067FF864205D8324639462846FFF76EFFDD
:1020300034462046F8BD2846FFF75AFF864234460C
:1020400028BF0446224639462846FFF75FFFF0E7DF
:102050002846BDE8F840FFF776BF00BF3C1A0020D5
:1020600070B50B4B1B7804460D4616460BB9FFF7AF
:1020700093FF002000F0D0FA324629462046FFF7B1
:10208000BBFF0446002000F0D7FA204670BD00BF19
:102090003C1A0020FFF780BF10B511461C461A46B7
:1020A0000020FFF7DDFF204610BD00B583B0029091
:1020B0000091019244F2010071466A46FFF752FA1C
:1020C00003B000BD094A537891780133DBB29942DD
:1020D00008BF0023117899421FBF0370507818235E
:1020E00003FB002014BF043000207047241100209F
:1020F00037B5044600200D4600F08EFA0DF10700BA
:10210000FFF7E0FF90B10570094B9DF80720446090
:102110005A700024002000F08FFA24B9054B4FF4C8
:102120008012C3F80021204603B030BD0424F1E73B
:102130002411002000E100E0024B4FF43C6043F02A
:102140000103184730060100F8B51F491F4B002551
:10215000C1F84051C1F84451C1F84851C1F84C513F
:10216000C1F80051C1F804511B684BB3D1F80445C4
:1021700017490968641A24F07F442F461A68A2425E
:1021800009D8A41A15441A7CDE691AB11F74D3E960
:1021900005209047AEB90F4B0F4A197813788B4240
:1021A00005D10133DBB2022B08BF00231370127874
:1021B0000A4B43F822500A4B4FF48012C3F8002117
:1021C000F8BD3346DAE700BF00100140441200209A
:1021D000401200203C1200203D120020341200204A
:1021E00000E100E02DE9F74F9C4A9D4913780978FA
:1021F0009C4D99423CD00133DBB2022B08BF002337
:10220000137099491278994B0F6853F822003B18C4
:1022100023F07F4300220B602B6816461446944639
:1022200013B942B12B6006E0196881420ED902B1A0
:102230002B60091A19604FF001082B68DFF834A2EF
:1022400000930027BEB9DFF834B260E0401A0C44B6
:10225000D968C3F800C0D3F81CE031B13A1922F0B4
:102260007F42C3E90121DE611E4601227346D7E7A2
:102270000026B046E1E73446F6697B4A6368126897
:10228000DFF8FCC1A068991A21F07F41614500F296
:10229000A58001442160012222742A680023C4E938
:1022A0000133E361002A40F0A2802C60CAE75A1C87
:1022B0009BF80210D2B291428BF8002004BF00229A
:1022C0008BF80020182202FB03B32A6819799C6856
:1022D000022974D003297ED0012918D1217CB1B9FB
:1022E000DA6862601A69A2605A69E2609B69A36158
:1022F0005F4B1B78002BC0D06160BEE79C4200F0B2
:1023000090809946DB69002BF8D1002323749BF859
:1023100000309BF801209A42C9D12B682FB9009A4E
:10232000934202D1B8F1000F43D0002B41D0D3F833
:1023300000A0504D4C4BD5F804751C68DFF8448163
:102340003E1B98F8003026F07F4603369BB94FF4C9
:102350008033C5F84433C5F80433474B4FF400329B
:102360004FF00109C3F880211A60C5F80090FFF70B
:10237000E3FE88F80090B2452CBF5444A41924F021
:102380007F44C5F84045D5F80435DB1B23F07F4377
:10239000E41B033324F07F44A3420AD9D5F8043563
:1023A000C5F84035FFF7C8FE334B4FF40032C3F891
:1023B00000212F4B00221A7003B0BDE8F08F1346A6
:1023C0009146A0E71174D2690123002AFAD1002BAB
:1023D0009DD02A609BE700231946F6E7D31A23F025
:1023E0007F43834234BFC31A0023236053E721682D
:1023F0001368994213D8591A1160E26155E7091A16
:10240000D8691A4638B1034618688842F7D3401A8B
:102410001860184613462160E061DC6112E713463C
:10242000F2E74C450DD1D3692B6053B90E480192A8
:102430000121CAF8081003600D4B1970FFF77CFEEC
:10244000019AE1692368C9F81C1011B108680344B6
:102450000B602B689A4218BF012756E73C120020F8
:102460003D120020441200204012002034120020AF
:10247000301200200010014000E100E02411002093
:10248000FEFF7F0031120020F8B5194E194D1A4F8A
:102490004FF40033C6F8803001244FF48033C5F880
:1024A0004833C5F808336C60FFF746FEAC60002483
:1024B0003C60FFF741FE114B1C70114B0B221C803E
:1024C0009A70104B1C60104B1C70104B4FF4801214
:1024D0001C70E023C6F8802186F814333260C5F8FA
:1024E000084586F81133D5F804353B602046F8BD21
:1024F00000E100E0001001404012002031120020F5
:1025000024110020441200203C1200203D12002023
:10251000074B9B784BB132B128B10368187C20B9C6
:1025200059745A617047072070470820704700BFF0
:10253000241100202DE9F3411C4EB37804460D46CA
:1025400017468BB380B304292CD9436963B3437C0A
:102550000020012B0CBF88464FF0000800F05CF80B
:102560000DF10700FFF7AEFDD0B101230370104B52
:102570004460D3F80435C0E90487C0E902359DF80A
:10258000073073700024002000F056F824B9094B7E
:102590004FF48012C3F80021204602B0BDE8F0815C
:1025A0000424F0E70724F7E70824F5E724110020C6
:1025B0000010014000E100E0064A92783AB130B1E3
:1025C000426922B1002202740221FFF791BD082066
:1025D000704700BF2411002072B6024A136801330D
:1025E0001360704748120020034A1368013B1360D0
:1025F00003B962B6704700BF48120020EFF30583AD
:10260000C3F308032BB9EFF31480C04300F00100BB
:10261000704701207047000008B5FFF7EFFF012861
:1026200003D00449432000F0BBF8BDE80840FFF7A1
:10263000D3BF00BF3606010008B5FFF7DFFF012852
:1026400003D00449512000F0ABF8BDE80840FFF783
:10265000CBBF00BF36060100024B1B680021986803
:1026600005F0D8B9180000201EF0040F1CBFEFF3CE
:1026700009800AE0EFF308800549064A884201D83C
:10268000904202D88D464FF00000034B18470000DF
:102690000000012000E000209D2600002DE9F34706
:1026A000054601F0EFF800F01FFF0028FBD12F4B8B
:1026B0002F4C9F6A2F4BE41AE408240444F00104D1
:1026C000002D4ED0AA692C49204601F08DF8EB6808
:1026D0000193AB6800932949D5E90023204601F016
:1026E00099F8EB6900932649D5E90423204601F0C7
:1026F00085F81E4BDB6A980703D52249204601F076
:102700006FF8DFF89490DFF894A000264FF00108EE
:1027100008FA06F33B4206D059F826201AB1514672
:10272000204601F061F801361A2EF1D1390605D59F
:102730000E4B15495A6B204601F056F83A0405D560
:102740000A4B12499A6B204601F04EF8104B1B6859
:10275000DB0700D500BE2846FEF786FF02B0BDE8C5
:10276000F0870C49204601F03BF8C2E700ED00E09D
:10277000D81C0100701C01008B060100A00601009E
:10278000D5060100300701007F0701009F07010007
:10279000F0ED00E0FD060100BC0701007407010038
:1027A00007B5ADF8000001916A46002144F202002D
:1027B000FEF7D8FE03B05DF804FB50E8002F0B468F
:1027C00040E8003C9CF0000FF7D11046704750E8FD
:1027D000003F43EA010240E8002C9CF0000FF6D1D4
:1027E0001046704750E8002F02EA010340E8003C21
:1027F0009CF0000FF6D11046704750E8003F03EB05
:10280000010240E8002C9CF0000FF6D11046704702
:1028100050E8003FA3EB010240E8002C9CF0000FC1
:10282000F6D1104670470121FFF7D1BF0021FFF715
:10283000D9BF000010B50446002834D003681BB986
:102840001A49FF20FFF7ACFF636823B917494FF41B
:102850008070FFF7A5FFA36823B9144940F2011067
:10286000FFF79EFFE36823B910494FF48170FFF72B
:1028700097FF238A23B90D4940F20310FFF790FF19
:10288000D4E9012321689B1ADBB20A60013BDBB269
:10289000FF2B226802D10020107110BD1168481C66
:1028A00010600B70F2E70E20F7E700BFE40C0100A8
:1028B00038B5044620B912494FF49270FFF770FF03
:1028C0000020FFF7A9FE2268616813688B4215D9C2
:1028D000591E116013F8015C228AE36802FB05357A
:1028E0002268A36811685B1A1179DBB2994200D2A1
:1028F00013710020FFF7A0FE284638BD0025F8E739
:10290000E40C010038B50C46054620B90E4940F2EA
:102910004710FFF745FF24B90B494FF4A470FFF7A8
:102920003FFF0020FFF778FE2A681368591C1160EA
:10293000EA68A41A2A8AB4FBF2F41C700020BDE8ED
:102940003840FFF779BE00BFE40C010038B5084CF1
:1029500004F108030546002818BF1C4623682BB164
:102960001A6822605B6828469847F7E738BD00BFC1
:102970005412002020B9054B01225A70FFF7E6BF20
:10298000012802D1014A9070F8E770474C120020EC
:1029900038B5094C23786BB908486360A36023619C
:1029A000E36002F0C5F8054602F0D8F80123237071
:1029B000284638BD8525FBE74C120020752900000C
:1029C00038B51A4C237805461BB91949E920FFF799
:1029D000E7FEA37803F0FF00ABB115B16B680120EF
:1029E00098470020FFF718FEE36800200133E360FA
:1029F000FFF722FEE368C3B90D4940F20510BDE8B8
:102A00003840FFF7CDBEFFF707FE25B12269134618
:102A10003BB92A602561E368002BE5D102F0BCF8E0
:102A2000E2E79D42F7D01B68F2E738BD4C12002068
:102A3000340D01007FB503788DF8043043680293AC
:102A400083688DF80C30C368049303698DF81430E3
:102A5000054A064B01A853F8213052F82110984737
:102A600007B05DF804FB00BF601200206C1200206C
:102A7000F0B50646944616F8047B194A42F827C07A
:102A8000184A42F82730184B0C460FCB85B06D46DC
:102A900085E80F0023788DF8003063788DF80130D9
:102AA000A3788DF80230E3788DF8033023798DF820
:102AB000053063798DF80630A3680293237B8DF887
:102AC0000C30BCF1000F637B8DF80D30074A3B469C
:102AD00008BF00222946304602F0AAFC05B0F0BD2E
:102AE0006C120020601200208C0D0100352A0000BD
:102AF0001FB503788DF8003003798DF804304379E1
:102B00008DF8053083688DF80630C3688DF807307E
:102B10000369029343690393054A064B684653F8D9
:102B2000213052F82110984705B05DF804FB00BF32
:102B3000781200208012002002494FF4F370FFF752
:102B40002FBE00BF740101001F2810B5044601D933
:102B5000FFF7F2FF012303FA04F44FF0A043C3F898
:102B6000084510BD024B4FF4807043F00103184735
:102B7000A00D01002DE9F14F924690F80080364AF1
:102B800042F828A0354A42F828304B7B81460C4653
:102B90007BB30B684FF0A04503F5E07340F20C6285
:102BA00045F823204B6803F5E073002645F8232001
:102BB0000868FFF7C9FF6068FFF7C6FF236803F5E1
:102BC000E07340F20D6245F82320636803F5E0737B
:102BD0004FF0010B45F82320FFF7C4FF67681F2F54
:102BE00001D9FFF7A9FFD5F81035FB40DB070ED55B
:102BF00006BBBAF1000F1A4A434608BF002221461D
:102C000009F1040001B0BDE8F04F03F033B82768C4
:102C10001F2F01D9FFF790FF0BFA07F7C5F80C75C6
:102C2000FFF7A0FF01362068FFF78EFFFFF79AFF3E
:102C3000092ED3D165681F2D01D9FFF77DFF4FF015
:102C4000A0420123AB40C2F80C35FFF78BFF606850
:102C5000FFF77AFFCDE700BF801200207812002036
:102C6000F12A00001FB503788DF800304368019306
:102C700083688DF80830C3680393054A054B68469E
:102C800053F8213052F82110984705B05DF804FB45
:102C9000881200208C1200201FB503788DF80030B8
:102CA0004368019383688DF80830C3680393054A2D
:102CB000054B684653F8213052F82110984705B06B
:102CC0005DF804FB881200208C120020F0B5194B2F
:102CD000067891F81DE043F82620174B94460A69C0
:102CE00043F82620154B03F806E00C4607460FCCA8
:102CF00089B06D460FC594E80F0085E80F00049673
:102D0000BEF1000F0AD0BCF1000F0D4A694608BFA2
:102D10000022381D03F04AFE09B0F0BDBCF1000FDF
:102D2000084A694608BF002207F10C0003F070FB57
:102D3000F2E700BF8C12002088120020B41A002095
:102D4000652C0000992C000010B5044618B90649FE
:102D50003120FFF725FDA2682AB163692168206947
:102D600098470023A36010BDA60D01000EB433B533
:102D7000059D044618B912494220FFF711FD636909
:102D80001BB90F494320FFF70BFD23681BB90C4902
:102D90004420FFF705FD63681BB909494520FFF78B
:102DA000FFFC3DB102AA06AB42F8043D294620468D
:102DB00000F06EF802B0BDE8304003B0704700BFCD
:102DC000A60D0100826830B40468551C8560A154CA
:102DD000D0E901329A4202D330BCFFF7B5BF30BC14
:102DE000704700002DE9F84F9946DDE90A43174680
:102DF000824688460A460126BA420FD24E4538BF5F
:102E00004E4613F0010B01D164B900240125B9F13C
:102E1000010F1AD909F1FF397D43F8E7B2FBF7F248
:102E20000136E9E79B070ED5B9F1000F0CBF30253D
:102E30002025A642EAD2013C29465046FFF7C2FFB0
:102E4000002CF6D1E1E72025F3E7B8FBF5F39F422C
:102E5000E2D9DFF83890B8FBF5F3504619F80310C3
:102E600005FB1388FFF7AEFFB5FBF7F5002DF2D198
:102E7000BBF1000F02D00CB1A64201D3BDE8F88F20
:102E800020215046013CFFF79DFFF4E7EC0D0100C7
:102E90002DE9F74F0E469046054620B9AC494FF450
:102EA000A270FFF77DFC6B6923B9A9494FF4A370A9
:102EB000FFF776FC2B6823B9A54940F24710FFF7CE
:102EC0006FFC6B6823B9A2494FF4A470FFF768FC4C
:102ED000002E00F03A8116F8011B002958D0252950
:102EE00040F0D180002702E047F001071646324645
:102EF00012F8013B2D2BF7D0302B04D02B2B05D112
:102F000047F00407F2E747F00207EFE700242A2B17
:102F100006F101021BD1D8F80030191DC8F80010C5
:102F20001B6816461C4433782E2B1CD101364FF0FB
:102F3000000A314611F8012BA2F13000092814D8FB
:102F40000A2303FB0A23A3F1300A0E46F1E712F825
:102F5000013CA3F130010929E5D80A2101FB043421
:102F6000303C1646D3E74FF0000A324612F8011BF8
:102F700001F0FB0068281646F8D0692916D054D80D
:102F8000582970D00ED825297DD03378002BA2D1B6
:102F90002B7B002B00F0D980284603B0BDE8F04F12
:102FA000FFF7D2BE632968D06429EED1D8F800209B
:102FB000111DC8F80010D2F8009089EAE972A2EB5E
:102FC000E9724FF0010B092A61DCD34538BFD346C3
:102FD0002CB1B9F1000F01DB790700D5013CBA072C
:102FE00002D5BAF1000F04D0FB0702D4002C54D153
:102FF0000024B9F1000F58DAC9F100092D21284643
:10300000FFF7E0FE07F00302022A05D1BAF1000F34
:1030100002D1002C4DD10024CDE9004753460A22AD
:1030200049462846FFF7DEFEAFE7732954D016D88D
:103030007029AAD1D8F800301A1DC8F80020302114
:1030400028461C68FFF7BEFE78212846FFF7BAFE27
:1030500000220823CDE9003221461022E1E775293C
:103060002FD0782991D1D8F800100A1DC8F8002077
:10307000CDE90047534610222CE0D8F800301A1D45
:10308000C8F8002019782846FFF79CFE7DE70A2340
:103090000BF1010B92FBF3F295E7A345A9D2202196
:1030A0002846013CFFF78EFEA0E77807AAD52B2122
:1030B000A5E7A345B0D230212846013CFFF782FEA8
:1030C000A7E7D8F80010CDE900470A1DC8F800208E
:1030D00053460A220968A4E7D8F800301A1DC8F838
:1030E0000020F907D3F8009012D54F46A7EB090B43
:1030F00017F8011B41B9A345BFF447AF202128466B
:10310000013CFFF75FFEF6E72846FFF75BFEEDE7C1
:10311000B9F1000F17D0484604F0F2FD0746BC4253
:1031200000D954B909F1FF3919F8011F00293FF4FA
:103130002CAF2846FFF746FEF6E720212846013C43
:10314000FFF740FEEBE74F46E9E703B0BDE8F08F3D
:10315000FC0D01007047000007B5044B0093044AC2
:10316000402300F032F803B05DF804FB7531000035
:10317000911200202DE9F84389461446B2B10F4B55
:103180000F4E0325002743F00108224609EB0701F3
:103190000020FEF731FF0744241A48B933782BB1D9
:1031A0004FF47A40C047013D02D13570BDE8F88345
:1031B00001233370002CE8D1F8E700BF600E010056
:1031C000901200207047FEF765BFF0B595B01C4621
:1031D000164608460D4600F020FD1A9B0D93CDE9DA
:1031E000086400242346082205A928460A948DF87D
:1031F0002C400C9400F03AFD079B0293BDF8183068
:10320000ADF80C30BDF81A30ADF80E309DF8143022
:103210008DF8114003F00302012A1DD1BDF81440BE
:10322000059EC3F3C203C4F383148DF81030A200CB
:1032300008230EA9284600F019FDC6F3952608AB11
:103240000093224602AB0EA9304600F08BFB2846C5
:1032500000F0E7FC15B0F0BD022AF8D1BDF8164029
:10326000C3F3C203A4098DF810300827082C2646A2
:1032700028BF08263B4632460EA9284600F0F6FC39
:10328000A41B08AB02AA31460EA8374400F0CEFBBF
:10329000002CEBD1DBE7000008B5FFF794FF042119
:1032A000064800F0C5FA002803DA05494120FFF777
:1032B00077FA044B01225A7108BD00BF401D01007E
:1032C000740E01000C000020037813F0040216D0E5
:1032D00003F00303012B03D0022B09D00120704718
:1032E0000A6800880232C0F3831002440A60F5E7DE
:1032F0000B684288023303EB92130B60EEE7104633
:10330000704700002DE9F04F484C87B00D46064647
:10331000871C00200092FFF77FF923682B60D4E917
:1033200001231344226801339B1A04F21C4804F55C
:10333000836B04F21449BB4219D3009A0023002A7C
:103340006CD0012262F3010343F0040366F3891396
:103350002168A2680A4003320F44002044F822305A
:103360002760FFF769F9012007B0BDE8F08F012160
:103370004046FFF742FA5846FFF755FA0DF1180A92
:103380004846FFF750FA60684AF8100DA5682840D3
:10339000033004EB80005146FFF796FF0246029887
:1033A000002AF4D105EA000304EB8303811CDB68E7
:1033B00003930130054004EB850503F00303012B63
:1033C0000291ED6823D0022B08D0194901924FF4E5
:1033D000BF70FFF7E5F9019A154607E0BDF80E301A
:1033E0009B0903332D0C01EB930302934846FFF72F
:1033F0001DFA08B1029B636029464046FFF7FDF9BC
:10340000D4E901231344226801339B1A93E7BDF8E2
:103410000C30C3F383132D0C0B44E6E7022262F356
:10342000010343F0040366F39F5391E7A4130020C4
:10343000E30E01000B4B0C48FF2210B59A600022EE
:10344000C3F81824C3E90022C3F81424012283F826
:10345000202400F09BFB044610B9044800F01CFC3B
:10346000204610BDA4130020F01C01003C0F0100F9
:1034700030B50A4C71B10A4A0A49121BD20800231E
:103480009A4201D1002030BD31F82350854202D04C
:103490000133F5E7034654F83300F4E7701C0100EC
:1034A000F01C0100DC090020094B013903EBC000CE
:1034B000032909D8DFE801F00A0204060420704756
:1034C00000797047407970470020704702207047AC
:1034D000701C0100034BD3E90030C31A5842584115
:1034E000704700BFA41300202DE9F04385B0FFF71B
:1034F000F1FF0646002840F0F9807D4DC5F818041C
:10350000BFF34F8F6868AC6804AF47F8100D2040D8
:10351000033005EB80003946FFF7D6FE009B18B15B
:10352000D5F81824002A5FD004EA0302991C01335D
:1035300005EB8202234005EB8303D268DB6802932C
:1035400002F00303022B0192009162D1BDF8063014
:1035500068484FEA9318B8F1500FC14628BF4FF0A2
:10356000500969F38F1309F10801ADF8063000F036
:1035700025FB0746002800F0A48000F04EFB01A9BF
:1035800000230822384600F05BFB009924EA01067C
:103590000136B600B14535D95FFA89F97EB3F6B286
:1035A000A9EB0609214003315FFA89F4B146524E76
:1035B00005EB810108234A46384600F041FB36B14D
:1035C00009F1080322463146384600F039FB009BDA
:1035D00008F1030803EB98030093D5F81834002B87
:1035E0004BD1D5F810445BE02A689A4204D86A604F
:1035F000304605B0BDE8F08304EA030088E73E49A1
:103600003446D7E72140033108234A4605EB8101C0
:10361000DAE7012B55D1BDF804303648C3F38311E6
:10362000062928BF062161F3891302318900ADF80C
:10363000043000F0C3FA0746002842D000F0EDFA4B
:103640000023082201A9384600F0FAFA0026BDF846
:103650000420C2F38312B31C96424FEA8303BCD208
:1036600000994A1C21400331009205EB810104229C
:10367000384600F0E5FA0136E9E7384600F0D1FABD
:10368000FFF728FF80F00100C6B2B1E7E3685B797D
:1036900023B1236839461B6820469847E3681C68B5
:1036A000002CF3D1384600F0BCFA2046FEF7B4FFF8
:1036B000D5F818340BB9009B6B600020FEF7BCFFF7
:1036C000DEE7D5F8104454B90C4B0D480D49C01A2B
:1036D000C008000440F0020000F082F8D0E7236840
:1036E00020469B689847E3681C68ECE700267FE764
:1036F000A4130020F01C0100B0130020701C010076
:10370000C81C0100480F01002DE9F74F2F4C8046DF
:103710000F46914601A9012218469B46D4F808A0FD
:10372000FFF7F0FD00283DD0019D0026A91C5E4555
:1037300006EB010240D100212548FFF73EF880F357
:10374000100B244B244A4FEA18499B1AB9EBD30FAC
:1037500004D3224940F2A310FFF722F86B1C03EABE
:103760000A0304EB830349EA0B42DA6005EA0A0321
:103770000333012114F8232068F3C50204F8232041
:1037800034F8232066F3891224F8232054F82320E8
:1037900067F39F2244F8232061F301026FF3820252
:1037A00004F8232094F820341BB1FFF79DFE002875
:1037B000FBD103B0BDE8F08F0AEA020204EB8202FB
:1037C00059F82630D3600136B1E700BFA4130020BA
:1037D000C0170020F01C0100701C0100E30E010066
:1037E00000231A46FFF790BF13B502AC012344F83B
:1037F000042D2246FFF788FF02B010BD1FB5CDE9AA
:103800000123069B039301AA0323FFF77DFF05B065
:103810005DF804FB1FB5CDE90023069B0293079BCF
:1038200003936A460423FFF76FFF05B05DF804FBBE
:1038300030B5134AD2F810440023214651B9C46868
:103840002371D2F810445CB9C2F81004C268116048
:10385000184630BDC9680D799D420AD00968EDE768
:10386000E468C16824680C60D2F81024D268106043
:10387000EEE701330A2BE0D14FF0FF33E8E700BF5A
:10388000A413002038B5094A0123D2F8104482F865
:1038900020341D4604B938BDE3685D7123682046B5
:1038A0005B689847E3681C68F4E700BFA413002036
:1038B00010B5037A052B0C460FD0437A23B1084A82
:1038C00008492046FFF752FA07492046FFF74EFA0B
:1038D0002046BDE81040FFF737BA002AF8D0F3E7DA
:1038E000930F0100980F0100B80F010073B5C38852
:1038F00004460D4633B1144A00921449144A28462E
:10390000FFF734FA217A05291CD0637A4BB1A088DD
:10391000FFF7CAFD0F4B104953F820202846FFF748
:1039200025FA227A0D4BA08853F822600021FFF778
:103930009FFD0B4903463246284602B0BDE8704061
:10394000FFF714BA02B070BD930F0100A30F01007E
:103950009B0F0100600F0100980F0100C80F0100CC
:10396000BB0F01002DE9F04385B01F460C9D0023DD
:1039700006460C46904695F80C902B73294638461F
:10398000FFF7B4FFB8F1060F09D8DFE808F004121A
:10399000181F2833400031462846FFF7E7F9002278
:1039A00029463846FFF784FF85F80C9005B0BDE83E
:1039B000F083226831462846FFF7D8F9EFE7D4E9CB
:1039C000002331462846FFF7D1F9E8E7A3680093C2
:1039D0003146D4E900232846FFF7C8F9DFE7E3685A
:1039E0000193A36800933146D4E900232846FFF7EA
:1039F000BDF9D4E723690293E3680193A3680093B8
:103A00003146D4E900232846FFF7B0F9C7E76369D8
:103A1000039323690293E3680193A36800933146FB
:103A2000D4E900232846FFF7A1F9B8E708292DE9D2
:103A3000F84F80460E4617461C4635D8002593F8A9
:103A40000C901D7319461046FFF750FFDFF88CA04D
:103A5000DFF88CB0AE4229D918F805205946204627
:103A6000FFF784F90135082DF4D11A49DFF874B055
:103A70002046FFF77BF94FF0000A564524D918F885
:103A80000A507E2D17D92E2259462046FFF76EF98F
:103A90000AF1010ABAF1080FEFD101222146384696
:103AA000FFF706FF84F80C90BDE8F88F51462046DA
:103AB000FFF75CF9D6E703F081FB2844427812F067
:103AC000970FE0D02A46DFE703492046FFF74EF97B
:103AD000DEE700BF8E0F01008C0F01008A0F01008E
:103AE000840F0100900F01002DE9F74F99469DF8D2
:103AF0003030019388461746054618B92249B6204A
:103B0000FEF74EFEEA8895F805B00BFB02FBABF121
:103B1000040BCB4503D81C49C420FEF741FE3E6888
:103B2000B5F806A006EB09025A4509F1040188BF61
:103B3000ABEB0906B1FBFAF43E600AFB141144B981
:103B4000AAEB0107B74228BF37462EB903B0BDE83C
:103B5000F08F2D68013CF2E7019A043108EB040371
:103B6000681872B101463A461846F61B03F07CFB12
:103B7000B2453C442D6857464FF0000128BF3746F8
:103B8000E3E73A461946F0E727100100FEF752BE78
:103B9000F8B546790146721E0546002393422D680A
:103BA00003D30024A64202D8F8BD0133F6E70F681C
:103BB0002846FEF7A7FE01343946F3E72DE9F8431E
:103BC000CD1C068A0746FEF773FE043E35440446C4
:103BD000B5FBF6F5F0B14FF48073EDB28380C6808B
:103BE000013D076081464FF00008A84512D23846D3
:103BF000FEF75EFE064648B163790133637108F152
:103C00000108C9F8000007608146EEE72046FFF78B
:103C1000BFFF34462046BDE8F88301210430FEF79B
:103C2000ECBD10B5012104460430FEF7F1FD10F0A3
:103C3000FF0F04D12046BDE81040FFF7A9BF10BD1B
:103C400030B585B0144604AA002542F8044D00950D
:103C5000FFF74AFF039BA34203D00349F620FEF778
:103C60009FFD05B030BD00BF2710010030B585B005
:103C7000144604AA012542F8044D0095FFF734FFCD
:103C8000039BA34204D003494FF48070FEF788FDE4
:103C900005B030BD27100100826800239360826860
:103CA0001361826853618268D3608268536082685E
:103CB00013607047026813685268934291BFD01A2C
:103CC00080680130801888BFC01A704738B50C462C
:103CD000054618B904497720FEF762FDAB68A34298
:103CE0008CBF601C002038BD801001002DE9F84316
:103CF00003681D685C68A54284BF8368013317466A
:103D0000884694BF641B5C1BC2684168BC4206467F
:103D100005FB02110CD37A43404603F0A5FAB368C1
:103D20003D449D4288BF002533681D60BDE8F8838F
:103D300004FB02F94A46404603F096FAF2687168BD
:103D40003C1B624308EB090003F08EFA33681C60E9
:103D5000ECE7000038B5044618B907498A20FEF799
:103D60001FFD236820461D685968FFF7AFFF431BFE
:103D70005842584138BD00BF801001002DE9F04184
:103D80000D46044618B92B499520FEF709FD1DB9CB
:103D900028499620FEF704FD0020FEF73DFC204652
:103DA000FFF7D8FF804610B1237C002B3BD127685A
:103DB00020467E687968FFF789FF7860B8F1000FC8
:103DC00005D0276820463968FFF780FF3860E26831
:103DD0006068531E072B20D8DFE803F004101F147F
:103DE0001F1F1F182B7883552046FFF763FF23689A
:103DF0009A68824200D29860002415E02B8820F84F
:103E00001630F1E72B6840F82630EDE7D5E90023BE
:103E100000EBC600C0E90023E6E7294606FB0200E6
:103E200003F022FAE0E704240020FEF705FC204618
:103E3000BDE8F0818010010070B50E4614460546BD
:103E400020B90F4940F2D510FEF7AAFC26B90C495B
:103E50004FF4EB70FEF7A4FC84B10020FEF7DCFB0E
:103E60002846FFF727FF844228BF044622462846FB
:103E70003146FFF73BFF0020FEF7DEFB204670BD1A
:103E80008010010010B5044620B9094940F2EF1036
:103E9000FEF786FC0020FEF7BFFB20680C22002105
:103EA00003F07CFA0020BDE81040FEF7C5BB00BF60
:103EB0008010010010B5044620B9084940F2FD10F9
:103EC000FEF76EFC0020FEF7A7FB2046FFF7F2FE90
:103ED00004460020FEF7B0FB204610BD8010010014
:103EE00010B5044620B9064940F20A20FEF758FCF6
:103EF000236818685B68C31A5842584110BD00BF58
:103F0000801001002DE9F0410C469046054618B995
:103F10002249D920FEF744FC1CB92049DA20FEF7DB
:103F20003FFC0020FEF778FB2846FFF7D9FF00286A
:103F300032D12F683E68B8F1000F04D139682846A5
:103F4000FFF7C4FE3860EA686968531E072B1DD866
:103F5000DFE803F0040D1C111C1C1C158B5D237085
:103F600000240020FEF768FB2046BDE8F08131F810
:103F700016302380F4E751F826302360F0E701EB98
:103F8000C601D1E90023C4E90023E9E706FB0211D9
:103F9000204603F069F9E3E70524E2E78010010019
:103FA00038B5044620B9054940F21220FEF7F8FB67
:103FB0002046A568FFF77EFF281A38BD8010010053
:103FC0002DE9F843044616468846FFF7E9FF2368C3
:103FD000A5685A680135AD1A8146E2685868636879
:103FE000B54202FB003017D37243414603F03CF95F
:103FF0002268A168536833448B4296BF53680026F9
:10400000F61856602046FFF755FE23689A688242EC
:1040100038BF9860BDE8F88305FB02F73A46414691
:1040200003F022F9E2686068751B6A4308EB070138
:1040300003F01AF92368B1455D60E3D22568204694
:104040006968FFF743FE2860DCE7000070B50E46A4
:104050001446054620B913494FF4B470FEF7A0FB8F
:1040600026B9104940F26910FEF79AFB84B100208E
:10407000FEF7D2FA2B7C6BB9AB689C4228BF1C467A
:10408000284622463146FFF79BFF0020FEF7D4FA70
:10409000204670BD2846FFF783FF844228BF0446B0
:1040A000EEE700BF8010010043691B68DB6803B1C5
:1040B00018477047012303707047000010B504468D
:1040C00018B908499220FEF76BFB2368012B03D037
:1040D00004499320FEF764FBBFF35F8F0023236046
:1040E00010BD00BFCE10010010B4074C0378E35C94
:1040F00023B104305DF8044B02F060BD0C305DF874
:10410000044B02F085BA00BFB41A002010B4074C6B
:104110000378E35C23B104305DF8044B02F0CEBDBC
:104120000C305DF8044B02F0EFBA00BFB41A002067
:1041300070B50578012D06460C4603D029D3022D13
:1041400025D070BD4B69027A1B6841685B681868AE
:10415000FFF77CFF337A834205D903212046BDE86F
:104160007040FFF7A1BF29462046FFF79DFF636916
:104170001B689B6820465A7A5968FFF7C7FF0028DA
:10418000DFD011499B20BDE87040FEF709BB2946EE
:10419000E4E74B691B685A689D6856680021204611
:1041A000FFF782FF2A7A29683046FFF745FE00288C
:1041B000C7D0C2B229682046FFF796FF0028C0D0BA
:1041C0000149B220DFE700BF6811010010B50446C5
:1041D00018B907498520FEF7E3FA01212046FEF7CA
:1041E000ECFABFF35F8FB0FA80F0400910BD00BF5A
:1041F000CE1001000378044AD35C13B1043002F0FE
:1042000051BD0C3002F074BAB41A002003681A7859
:1042100012B11B6903B11847704700002DE97043C4
:1042200004464FF4FA784FF400404FF00009E0FBE9
:104230000189164600234FF47A72404649460BF036
:1042400021FD0428054604D8012333700020BDE871
:104250007083074A00212046FEF75AF90028F6D15C
:10426000324629462068BDE87043FEF763B900BFB7
:10427000B54000002DE9F04743691B6806461878F1
:104280000F46144618BBFF2A28BFFF24DFF84C90C6
:104290002546274406F10C0A337819F80330A7EBBA
:1042A000050883B1301D02F0A1FD00B115B9601BF6
:1042B000BDE8F087012241463046FFF727FF00287E
:1042C000F5D1013DE8E7504602F0B4FAEDE75B684E
:1042D000BDE8F0471868FFF7AFBD00BFB41A002073
:1042E000F0B50E4689B01546044608B101B11AB9B9
:1042F0004449BF20FEF754FA63691B68002B7ED146
:104300002B783BB16B680BB1AB681BB93D49C92039
:10431000FEF746FA31462022684602F0A5FF2B78C8
:104320000494991E4A424A41002B8DF81D2069468B
:10433000354A204608BF0022FEF7C8FC0646002882
:1043400038D163691D6063691B685B6843B1586855
:10435000FFF798FD63691B685B681868FFF792FDBB
:10436000656915F1080F03D128497220FEF718FA84
:104370000023AB60BFF35F8F67693A1D1D4603D111
:1043800022497220FEF70CFA7D60BFF35F8F6369EC
:1043900003221A73009B013301BF6269137B23F070
:1043A00002031373019A6369013206D11A7B22F06A
:1043B00001021A73304609B0F0BD1B681B78022B4E
:1043C00009D163691B689B6820465A7A5968FFF7D0
:1043D0009DFE0646EEE723780D4AD35C53B10D49A6
:1043E00040F25A20FEF7DCF963691B681B78002B4A
:1043F000E7D1DFE704F10C0002F024FAF4E78526A8
:10440000D8E700BF6811010031410000CE10010063
:10441000B41A00201A1101002DE9F04F0F4685B0A3
:1044200016469B46044620B952494FF4A670FEF743
:10443000B7F960690368002B00F09180027B910757
:1044400040F18F80002E5DD007F06042B2F1005F36
:1044500003D01B78022B00F086800430FFF7B6FEF5
:10446000002800F0828000238DF80C300E9B5A1C2F
:104470000ED003AA1946A069FFF7D0FE054638B151
:1044800060690430FFF71AFE284605B0BDE8F08FDA
:10449000DFF8E090354663691A681378A3BBFF2DF7
:1044A000A84628BF4FF0FF085FFA88F23946204639
:1044B000FFF71AFE18B149466920FEF771F9B5EB0E
:1044C0000805474406D06069FFF7A0FE9DF80C3050
:1044D000002BE0D0BBF1000F02D0761BCBF80060C0
:1044E0009DF80C3033B90E9B013303D0A3691868D3
:1044F000FEF762F860690430FFF7E0FD15B19DF842
:104500000C30A3BB0025BFE75368D2F808A05B6856
:10451000019318462A463946FFF798FD8046204603
:10452000FFF768FE019B0028C9D19AF80820DAF845
:1045300000101846FFF780FC024628B90190494652
:104540007820FEF72DF9019ADAF80010D2B2204651
:10455000FFF7CAFD0028B2D049467A20ADE7802592
:1045600092E7082590E710258EE711258CE70D25A9
:104570008AE700BF681101002DE9F7430A9F8846CA
:1045800016469946044620B9344940F2A310FEF776
:1045900007F960690368002B57D0037BDA0756D50B
:1045A000002E38D00830FFF711FE002851D000232C
:1045B0008DF804307B1C30D135462A4641462046D2
:1045C000FFF758FE2D1A80440ED09DF80430606924
:1045D000002B37D003681B7833B12378204AD35C93
:1045E0005BB3201D02F00AFCB9F1000F02D0761B6C
:1045F000C9F800609DF804302BB9013703D0E36996
:104600001868FDF7D9FF60690830FFF757FD15B14D
:104610009DF80430FBB900250BE001AA3946E0699A
:10462000FFF7FCFD05460028C6D060690830FFF79B
:1046300045FD284603B0BDE8F08304F10C0002F00C
:1046400017F9D1E7FFF7E2FDB7E78025F1E7082585
:10465000EFE71125EDE70D25EBE700BF681101003D
:10466000B41A002073B50E46044620B92B494FF406
:10467000FD70FEF795F860690368002B46D0027B59
:10468000920745D51B78002B3ED00430FFF79EFDE6
:1046900000283FD000238DF80430731C0DD001AAF0
:1046A0003146A069FFF7BAFD054630B160690430B4
:1046B000FFF704FD284602B070BD63691B685B68A4
:1046C0005868FFF70DFC054640B96069FFF79EFD8D
:1046D0009DF80430002BF0D0002504E02046FFF7C1
:1046E00089FD0028F1D19DF804302BB9013603D0A3
:1046F000A3691868FDF760FF60690430FFF7DEFC0E
:1047000015B99DF804303BB90025D3E78025D1E7E2
:104710000825CFE71125CDE70D25CBE7681101006E
:1047200013B5044620B9154940F25920FEF738F870
:1047300060690368E3B1037BDB071BD50830FFF733
:1047400045FDC8B101220DF107012046FFF792FD9A
:104750000028F7D163691B685B68186808B1FFF728
:1047600091FB60690830FFF7A9FC002002B010BD82
:104770008020FBE70820F9E71120F7E76811010026
:104780000D4930B5A1F58C720225914201D8002067
:104790000EE08B1ADB1093FBF5F302EBC30452F827
:1047A0003330834205D802D204F10802EDE7606895
:1047B00030BD2146E9E700BFE412010008B5FFF76C
:1047C000DFFF024B002808BF184608BDB8110100E2
:1047D000C0B2002348700B707047000070B50D46E2
:1047E000044618B908497120FDF7DAFF23681A68F2
:1047F00012683AB11A681B6851681B682846BDE800
:104800007040184770BD00BF75160100F0B5044632
:1048100087B018B92D493720FDF7C2FF2368187EED
:104820001A68C0B207B296684FEAC70C06EB0C02D2
:1048300056F8376051791779927912F0010F4FEAE3
:10484000510501F0010139D0002937D1D3F800E03A
:104850009EF80CE00130704530DAD3F800E00CF13E
:104860000800DEF808C084449CF805C0B5EB5C0F76
:1048700024D11A6891680A1851F800C0187E51793D
:1048800092F804E09279013011F0010F4FEA4212E0
:10489000C0B20CBF0321022102F0200218768DF86D
:1048A000041004F10C0001A98DF80550CDE9027E39
:1048B000CDE9046C01F034FB07B0F0BD52014FF0BC
:1048C000000C02F02002E646E9E700BF7516010081
:1048D0002DE9F84F0E46044618B927498720FDF701
:1048E0005FFF2568DFF894B04FF000090020FDF766
:1048F00093FE16B923681B6843B9002229466068F5
:10490000FFF700FB88B3C5F8009000260020FDF7F4
:1049100093FE7EB32B681B694BBB2F1D10223946BB
:10492000686902F06FFCA8B104F10C0A504604F16A
:10493000080801F099FA23465A4639464046FEF7E0
:1049400019F918B10C49B420FDF72AFF504601F0BF
:1049500041FA6F6185F818902046FFF757FF01462E
:1049600040B12046FFF73AFFC0E70126CEE72B68AB
:104970001F69D3E7BDE8F88F751601008149000073
:1049800038B50C46054618B91249D220FDF708FF84
:1049900023681B681BB90F49D820FDF701FF297850
:1049A00071B92268137E10680133007BDBB2984234
:1049B00007D913762046FFF729FF014608B938BD0D
:1049C00003212046FFF70AFF20460121BDE83840B9
:1049D000FFF77EBF75160100F8B50E46044620B9F4
:1049E00019494FF48470FDF7DBFE636823B916495B
:1049F00040F20910FDF7D4FE63689B6823B91249A1
:104A00004FF48570FDF7CCFE26B90F4940F20B102C
:104A1000FDF7C6FE23460D4A314604F10800FEF7B5
:104A2000A9F8074670B904F10C0001F0D3F9236826
:104A30001F6096E80F002568043585E80F0023689D
:104A40001A1D5A613846F8BD7516010081490000EB
:104A500037B50546019120B9144940F22D10FDF7F4
:104A60009FFE019B23B911494FF49770FDF798FE03
:104A7000019B9B6823B90D4940F22F10FDF790FE72
:104A8000019B1B7B23B909494FF49870FDF788FE01
:104A900001A96868FFF772F9044618B9014628466B
:104AA000FFF716FF204603B030BD00BF75160100AA
:104AB0002DE9F04186B0884617461E460C9C0546F7
:104AC00020B9194940F24F10FDF76AFE27B916497F
:104AD0004FF4A870FDF764FE26B9134940F2511057
:104AE000FDF75EFE0023ADF8003001238DF80030A5
:104AF00001A90E4B01932846CDF808D003978DF8F5
:104B00001060CDF81480FFF7A3FF20B106B0BDE818
:104B1000F08104B1A0479DF80030002BF9D19DF839
:104B20000100C0B2F2E700BF75160100D1470000D6
:104B300010B5044618B90749A020FDF731FE064B11
:104B4000187920B901221C601A71587110BD852096
:104B5000FCE700BFC91601006018002008B50B4B28
:104B60001B791BB90A49B920FDF71AFE094B1A68CF
:104B7000D2075FBFE02283F8002301221A604FF0C2
:104B800080430122C3F8182508BD00BF601800202B
:104B9000C916010000E100E037B5144B1B791BB9C1
:104BA0001349E620FDF7FCFD124B00221A601B683A
:104BB0000193019B4FF080430222C3F804230E4A65
:104BC000D06840F08073D3600C4B1C6844F0010146
:104BD00019605D685968491BB1F50A5FFAD31C601A
:104BE000074BD06001221A6003B030BD601800206E
:104BF000C916010004010040F0ED00E0001000E0E3
:104C00000800004007B5154B1A687AB100221A60F7
:104C10001B680093009B4FF080430122C3F80823D8
:104C20000F4B587910B95A711B6898470D4B1A6889
:104C300082B100221A601B680193019B4FF08043F0
:104C40000222C3F80823064B1B68012003B05DF85D
:104C500004EB184703B05DF804FB00BF00010040FF
:104C6000601800200401004000F1804000F5C040C1
:104C7000002382B0036003680193019B02B0704778
:104C8000054B4FF0FF32072843F8202084BF1B1844
:104C900083F84820704700BF6818002002494FF48D
:104CA000F370FDF77DBD00BF740101001F2838B50A
:104CB00004460D4601D9FFF7F1FFA00000F1A04026
:104CC000D0F8003723F44033C0F80037D0F800376D
:104CD00043EA0543C0F8003738BD000010B5164C54
:104CE00094F8583033BBFF21E2180133202B82F8AF
:104CF0003010F9D10021C8B2FFF7C2FF01310C29F1
:104D0000F9D1042200210D4802F048FB0C4BE022AF
:104D100083F8062340221A604FF4BE70FFF7A4FF09
:104D2000084B4FF00042C3F80423012384F85830A5
:104D3000002010BD0820FCE768180020BC180020E7
:104D400000E100E000600040034B93F858000030A1
:104D500018BF0120704700BF681800201F2870B5D9
:104D600004460D4604D941494FF49870FDF718FDEB
:104D70003F4E96F85830012B04D03C4940F2311098
:104D8000FDF70EFD25B939494FF49970FDF708FD7F
:104D9000331993F93020013265D1AA78002A54D012
:104DA000002356F8231001314FEA830248D131190C
:104DB00002F1804281F83030002102F5C04246F80D
:104DC0002310D2F810052B78697820F498101B0472
:104DD000090520F4F85001F4801103F44033C2F8BF
:104DE00010050B432102D2F8100501F4F8510B43D2
:104DF0000343C2F810356B78012B4FF0010528D121
:104E00001F2C01D9FFF74AFF4FF0A043A540C3F87C
:104E100008551F2C01D9FFF741FF04F5E0724FF050
:104E2000A043032143F82210E2081249012304F0B1
:104E3000070403FA04F48B5C1C438C54002003E049
:104E40000133082BADD1042070BDFE2283F8302041
:104E5000D1E71F2C01D9FFF721FF4FF0A043A54058
:104E6000C3F80C55D5E70820EEE700BF1C1701007A
:104E700068180020BC1800201F2838B5054604D942
:104E800012494FF4BE70FDF78BFC114C621992F978
:104E90003020013204D10D4940F27D10FDF780FC35
:104EA000631993F83030072B04D808494FF4BF70CA
:104EB000FDF776FC1F2D01D9FFF7F0FE012303FA61
:104EC00005F54FF0A043C3F8085538BD1C17010085
:104ED000681800201F2838B5054604D912494FF438
:104EE000C370FDF75DFC114C621992F9302001325C
:104EF00004D10D4940F28710FDF752FC631993F875
:104F00003030072B04D808494FF4C470FDF748FC33
:104F10001F2D01D9FFF7C2FE012303FA05F54FF05B
:104F2000A043C3F80C5538BD1C17010068180020B9
:104F30002DE9F04F87B000245B4A5C4E5C4D039432
:104F400001211368A2F5C040012B80B206D1D6F82A
:104F500004330B4202D0FFF787FE0C430432AA420F
:104F60004FEA4101EDD1534B1B68012B0AD14FF49D
:104F7000BE70FFF779FE4FF0A04344F00044D3F831
:104F80001035039314F0FF0F1AD04B4F0025012664
:104F9000344210D0AB0003F1804303F5C043D3F893
:104FA0001005D3F8101557F82530C0F30420C1F3CD
:104FB000014103B198470135082D4FEA4606E7D174
:104FC000002C6EDA00224FF0FF33CDE904233A4F74
:104FD0004FF0000A56464FF0A04907EB0A0393F939
:104FE0005040631C46D0E4B2012224F0C00504F016
:104FF000070B02FA0BFBEB0806AAD11811F8042CD8
:1050000012EA0B0F36D07A19A40992F9302057F81A
:105010002280B8F1000F0AD1032C2BD10DF1100C16
:105020001CF8030040EA0B000CF8030001E0032C1D
:10503000F4D01F2D03D90191FFF730FE019911F82B
:105040000C1C05F5E07311EA0B0F59F82330C3F37C
:10505000014320D0022B0DD1032C05D12146284637
:10506000FFF724FE0136F6B2B8F1000F02D0214658
:105070002846C0470AF1010ABAF1040FADD186B142
:105080004FF0A043039AD3F810359A4209D0039306
:10509000049B05939CE7032BECD1032CE4D1022164
:1050A000DDE707B0BDE8F08F006100400060004020
:1050B000206100407C6100406818002010B5054C5C
:1050C00022681AB904495120FDF76AFB2368BDE83C
:1050D00010401847C41800207517010038B50D4658
:1050E00028B90C497720FDF75BFB002038BD0A4B3F
:1050F0009842FAD10020FDF78FFA084B1C7914B9B9
:1051000001221D601A710020FDF796FA002CECD0E8
:105110001120EBE77517010000200040C4180020A3
:1051200018B906499B20FDF73BBB054B984201BFD0
:10513000044B00221A601A71704700BF75170100F6
:1051400000200040C41800200023435082B0435880
:105150000193019B02B0704770B5D0F8103105463D
:105160000C4653B14FF48871FFF7EEFF63795A078D
:1051700003D523680BB101209847D5F814315BB1F2
:105180004FF48A712846FFF7DFFF63791B0703D5C9
:1051900023680BB102209847D5F81C315BB1284633
:1051A0004FF48E71FFF7D0FF607910F0100002D13C
:1051B000236803B19847D5F8043163B14FF4827185
:1051C0002846FFF7C1FF0123237123681BB1032089
:1051D000BDE87040184770BD01490248FFF7BCBFE9
:1051E000CC18002000C0014001490248FFF7B4BFBD
:1051F000D41800200010024001490248FFF7ACBF5C
:10520000DC1800200020024000F1804000F5E04062
:10521000002382B0036003680193019B02B07047D2
:10522000F0B5514B514C1B6885B0DBB14FF4827027
:1052300094F82E20FFF7E8FF12B194F82F30A3B1B5
:10524000636802932389ADF80C30E36800218DF880
:105250000410002B44D12374236801A8984700232D
:1052600084F82F3094F82E3003B3414B1B68EBB118
:105270004FF48070FFF7C8FF94F82D20638B91B234
:105280008B4238D95B1A21899BB26383CB1A616840
:1052900001EB4301374BC3F82C16C3F830264FF40B
:1052A0008270FFF7B1FF344B01221A60334B1B6849
:1052B0005BB14FF48870FFF7A7FF002304A82374A5
:1052C000022300F80C3D236898472D4B1B6813B34D
:1052D0004FF48A70FFF798FF0023237405B0F0BDE8
:1052E000208B608363602081E160002AB4D1214B70
:1052F00001221A60B0E7D2D1E368012184F82F10AF
:105300003BB1002161831B49C1F82C36C1F830261E
:10531000C5E76383C3E766694FF000470125002EA8
:10532000DCD0B6FA86F227FA02F34632920026EA79
:10533000030602F1804303F5E0431B68002BEED027
:105340001046FFF761FFA2F58C72D30882F00402C9
:10535000C2F380028DF808308DF804508DF80920D2
:10536000236801A89847DAE704710040E418002098
:105370000071004000700040047000401071004057
:105380001471004002494FF4F370FDF709BA00BFF1
:10539000740101001F2810B5044601D9FFF7F2FF80
:1053A000012303FA04F44FF0A043C3F80C4510BDE9
:1053B0001F2810B5044601D9FFF7E4FF012303FAC3
:1053C00004F44FF0A043C3F8084510BD13B54FF0E7
:1053D0004023D3F818310BB3114B124C00221A6042
:1053E0001B680193019B236823B90F494FF4277071
:1053F000FDF7D6F9E07FFF2803D0A37F5BB1FFF76D
:10540000C9FF002363772372D4E90031074802B053
:10541000BDE810401847FFF7CBFFF2E702B010BD20
:105420001841004014190020D21701001C19002057
:105430002DE9F74F8146CDE900230C4619B97B4988
:10544000AD20FDF7ADF999F80460794F242303FBF3
:1054500006FB07EB0B0A9AF81C10002940F0E080CD
:10546000D9F8005073492846FFF738FE80460028D7
:1054700040F0D980009B47F80B30019BCAF80430FC
:10548000237B2078012B00F2B980FFF783FF94F88B
:1054900000A0BAF11F0F01D9FFF774FF0AF5E07AF7
:1054A0004FF0A043012243F82A2094F801A0BAF15A
:1054B000FF0F00F0A6805046FFF76CFFBAF11F0FF8
:1054C000D34601D9FFF75EFF0AF5E07A4FF0A0431B
:1054D000032243F82A20A378FF2B00F095801F2B8E
:1054E0009A4603D90093FFF74DFF009B03F5E07345
:1054F0004FF0A042042142F82310242303FB06733B
:10550000A27883F82020E278DA77E078FF2817D0B5
:105510002379002B7BD0FFF73DFFE3781F2B03D9C6
:105520000093FFF72FFF009B03F5E0734FF0A042BD
:10553000032142F82310242303FB067322799A7770
:105540002378C5F80835C5F80CB5C5F810A5A368CB
:10555000C5F82435637B227B003318BF0123022A60
:1055600058D0032A59D0012A01D143F00203C5F8CB
:105570005435A379C5F8C03524237343FB5813B1C0
:105580004022C5F804230722C5F800255BB3D9F8EB
:10559000003064794FEA133A94424FFA8AF503D9FE
:1055A00025496B20FDF7FCF8002DACBF05F16043E9
:1055B000224B4FEA4414B8BF0AF00F0AE4B2AABF64
:1055C00003F5614303F80A4083F80043D9F800303B
:1055D0001B0B5AB2012103F01F0301FA03F3520916
:1055E000174941F82230242303FB06760023737702
:1055F00001233377404603B0BDE8F08FFFF7D8FEB4
:1056000045E74FF0FF3B66E74FF0FF3A75E7FFF7DE
:10561000CFFE82E743F00403A9E743F00603A6E7C1
:105620004FF00808E6E74FF01108E3E7D217010052
:1056300014190020CD5300001E18010014ED00E0E5
:1056400000E100E02DE9F341584F0679242303FBE4
:10565000067380461B7F0D46144623B9544940F219
:105660003220FDF79DF82B6833B96B6823B15049A0
:1056700040F23320FDF794F8AB6833B9EB6823B1FF
:105680004B494FF40D70FDF78BF898F804302BB9A7
:10569000EB68FF2B02D86B68FF2B04D9444940F21A
:1056A0003720FDF77DF824237343FA18517F002932
:1056B00079D1FB5823B114F0140F04BF01235377A1
:1056C00095E80F004FF0240C0CFB067C0CF10C0E3F
:1056D0008EE80F009CF81F00FF2804D09CF81E30B5
:1056E000C3B1FFF765FE2A6822B102F06043B3F14F
:1056F000005F06D1AB6883B103F06043B3F1005F94
:105700000BD0242303FB067600237377102002B00E
:10571000BDE8F081FFF73EFEE5E7D8F800306968A4
:10572000C3F84425C3F84815D5E90212C3F8341567
:10573000C3F838250022C3F81821D3F818210192A4
:10574000019A14F0010218BF0122C3F8502514F089
:10575000020218BF0122C3F8402522075CBF0122C4
:105760001A6124227243BA5892B9D3F81821002A38
:10577000FBD0242303FB0676F07FFF2803D0B47F01
:105780001CB1FFF707FE0020C1E7FFF711FEFAE7A3
:1057900014F004004FF0400202D0C3F80823F2E7EF
:1057A000C3F80423B3E71120B1E700BF14190020A8
:1057B000D21701002DE9F743002406460F4600F5F5
:1057C000A0754FF48038A14604F150002B6880008A
:1057D00080B26BB1D6F8043308FA04F21A4207D04B
:1057E000C5F800902B680193019BD7E900319847D9
:1057F0000134042C05F10405E6D103B0BDE8F083C3
:105800002DE9F3470446154606790F4619B94E4966
:105810004A20FCF7C5FF1DB94B494B20FCF7C0FFE0
:105820004A4A0C2303FB062390461B7A002B40F0C8
:1058300088802368464A93420FD002F580529342F3
:105840000BD002F58052934207D002F5803293428A
:1058500003D002F58052934202D1BB78032B03D9C7
:1058600039495F20FCF79CFF0C23734308EB0302CC
:1058700048F803507B68536000210D466079236827
:10588000CAB2904201F1010153D897F803901D0B61
:10589000B9F1070F4FFA85FA03D92E496B20FCF7AF
:1058A0007FFFBAF1000FAEBF0AF1604305F00F03AE
:1058B000294A2A484FEA49195FFA89F9AABF03F52C
:1058C000614302F8039083F8009323681B0B59B2DD
:1058D0004909012203F01F0302FA03F340F82130C3
:1058E00020687B78D0F8041503F0030321F003014E
:1058F0000B43C0F804352068BB78D0F8081503F0D6
:10590000030321F003010B43C0F8083520683B78FE
:10591000D0F8101503F00F0321F00F010B43C0F86E
:1059200010350C2303FB06860020327202B0BDE85E
:10593000F087920002F5A0729D509B580193019B45
:105940009CE70820F2E700BF671801003819002023
:10595000008000401E18010014ED00E000E100E0AE
:1059600038B50B4C02790C2101FB02420546127A34
:10597000012A03D007498F20FCF712FF2B68012270
:105980001A602B790C2202FB034302221A7238BDE3
:10599000381900206718010038B50A4C02790C212B
:1059A00001FB02420546127A1AB907499720FCF713
:1059B000F7FE2B6801221A612B790C2101FB0343AE
:1059C0001A7238BD381900206718010038B50A4C22
:1059D00002790C2101FB02420546127A1AB90749E5
:1059E0009F20FCF7DDFE2B790C2202FB0343187A83
:1059F000831E5842584138BD3819002067180100ED
:105A000010B5084A03790C2101FB032304461B7AD5
:105A10001BB90549B320FCF7C3FE23680122DA60F5
:105A200010BD00BF381900206718010038B5104AB2
:105A300003790C460C2101FB032305461B7A1BB995
:105A40000C49C220FCF7ACFE6B79A34203D809498C
:105A5000C320FCF7A5FE04F110039B00DBB22A680B
:105A60000121D15004F5A8742B6853F8240038BDE7
:105A7000381900206718010073B54FF480348C404A
:105A800005688BB101F150039B000026EE50EB58E6
:105A90000193019B0368C3F80443036801F5A871EF
:105AA00043F8212002B070BDC5F80843F5E7F0B413
:105AB00007689DF810C0D7F8004240F201158D40EC
:105AC00024EA0504C7F800420568D5F800422343DC
:105AD000C5F80032F0BC6346FFF7CEBF014902486B
