:020000022000DC
:106000000000012039C8020061C802004178020086
:1060100065C8020067C8020069C8020000000000ED
:106020000000000000000000000000006BC802003B
:106030006DC80200000000006FC8020071C80200B5
:10604000FD95020073C80200B59A020059A402002F
:10605000D19D020073C8020029990200259C02000C
:1060600019A4020029A4020039A4020073C8020086
:1060700073C8020073C8020073C8020073C802002C
:1060800073C80200E172020073C8020073C8020004
:106090007D73020073C8020035BB020073C80200A2
:1060A00073C8020073C8020073C8020073C80200FC
:1060B000DD9B020073C80200000000000000000029
:1060C00073C80200ED9B0200FD9B020073C8020032
:1060D00073C8020073C8020073C802000000000009
:1060E00000000000000000000000000000000000B0
:1060F00000000000000000000000000000000000A0
:10610000000000000000000000000000000000008F
:10611000000000000000000000000000000000007F
:10612000000000000000000000000000000000006F
:10613000000000000000000000000000000000005F
:10614000000000000000000000000000000000004F
:10615000000000000000000000000000000000003F
:10616000000000000000000000000000000000002F
:10617000000000000000000000000000000000001F
:10618000000000000000000000000000000000000F
:1061900000000000000000000000000000000000FF
:1061A00000000000000000000000000000000000EF
:1061B00000000000000000000000000000000000DF
:1061C00000000000000000000000000000000000CF
:1061D00000000000000000000000000000000000BF
:1061E00000000000000000000000000000000000AF
:1061F000000000000000000000000000000000009F
:1062000010B5054C237833B9044B13B10448AFF3F0
:1062100000800123237010BDECA2002000000000CC
:106220005C53030008B5034B1BB103490348AFF3AC
:10623000008008BD00000000F0A200205C530300B5
:10624000154B002B08BF134B9D46A3F5803A002148
:106250008B460F461348144A121A06F03DFC0F4BAA
:10626000002B00D098470E4B002B00D09847002001
:10627000002104000D000D48002802D00C4808F051
:10628000E5FC06F007FB2000290000F013F806F0FB
:10629000F1FA00BF0000080000000120000000002B
:1062A00000000000ECA2002020B600204DEC02000F
:1062B0001DFE020070B54FF400418EB0002002F0C8
:1062C000ADF918B13A4A4F2100F0B7FF02F0D4F807
:1062D0003848394C06F04AFC4FF0A0434FF4000216
:1062E000C3F818254FF08072C3F818254FF00072DC
:1062F000C3F8182594E80F0002AD103485E80F00AC
:1063000094E80F0006AE86E80F0000231A463146D7
:10631000284601F00FFD18B1254A662100F08DFFD7
:10632000284600F0F3F90021244800F067FA2448D9
:1063300006F01CFC234B0FCB0AAC84E80F001322A1
:10634000142321462048CDE90A2303F029F818B187
:10635000174A712100F071FF1B4800F03BFD1B48FC
:1063600006F004FC0C2300248DF8003016488DF84C
:10637000014001238DF802308DF803408DF8044070
:1063800000F0FAFD6B4693E8030000F0FBFD0546C4
:1063900000F01AFE29460E4806F0E8FB00F080FAED
:1063A0000C4806F0E3FB00F017F820460EB070BD75
:1063B00050340300573403002034030069340300D1
:1063C0007734030040340300D03403008D340300DD
:1063D0009F340300B93403002DE9F04385B001F088
:1063E0001FF900F03BF94FF0A04310220024C3F83E
:1063F00018252022C3F80C47C3F818254FF4005283
:10640000C3F808473148C3F81825C3F8404705F0DA
:106410007FFF2F4D2F4B304F1860284605F0C0FFEF
:106420002E4B01974FF004080121CDE9025322467B
:1064300023460846CDF8008005F0D6FF284E294BAC
:10644000DFF8B8900121CDE90253224623460846E1
:10645000CDE9008605F0C8FF234BCDE90253234D5B
:10646000012123462246CDE90085084605F0BCFF00
:1064700006F040F82C46B04600F0CAFD484687EDCD
:10648000000A06F073FB03220421404600F058F88E
:1064900010220D21284600F053F838680CF0B4FAA9
:1064A00002460B46124806F061FB30680CF0ACFA6D
:1064B00002460B460F4806F059FB20680CF0A4FA80
:1064C00002460B460C4806F051FBD5E7A898002081
:1064D000BC98002068B50020B8980020E4980020FF
:1064E000F0980020F898002002990020F4980020ED
:1064F00020350300EE340300FD340300E8340300CC
:10650000064A136801331360054B1B68022B0CBF4E
:10651000044A054A0023C2F84431704748A30020CA
:106520001099002000A000400090004002494FF464
:10653000F37005F083BD00BF9C3503000000000030
:106540002DE9F843884607463B48164606F00EFB01
:10655000B8F11F0F01D9FFF7E9FF01254FF0A0495E
:10656000364C05FA08F5C9F80C5544F001044FF40F
:10657000A060A047B8F11F0F01D9FFF7D7FFC9F8F6
:1065800008554FF44070A047B8F11F0F01D9FFF72D
:10659000CDFF4FF0A0484FF4A060C8F80C55A047BD
:1065A000274806F0E3FA274806F0E0FA0125B5404F
:1065B0001F2E01D9FFF7BAFFD8F810351D42F7D0CA
:1065C000214C22480023236006F0D0FAA0464FF069
:1065D000A0491F2E01D9FFF7A9FFD9F810452C407B
:1065E000F7D11B4806F0C2FAD8ED007A194BF8EE45
:1065F000677A93ED007A67EE877A17EE900A0CF0CF
:1066000003FA0BA3D3E900230CF056FA0CF02CFD8F
:106610009FED117A07EE900AF4EEC77AF1EE10FAC8
:1066200046BFC7ED007A01202046BDE8F88300BFD1
:106630009CC420B07268913F56350300503503006A
:106640005A3503005E35030048A30020623503007D
:10665000663503000C9900200000C8431FB5164A98
:1066600092E8030002AB002283E803008DF80A20C1
:106670001946124A124803F0C9FD20B1114A40F2EE
:10668000252100F0DAFD0121009102234FF4FA7276
:106690000B4803F0AAFE0C4B0C4A1A6018680CF069
:1066A000B3F902460B460A4806F060FA044803F0C4
:1066B00065FE05B05DF804FB3C3503000165020092
:1066C00044350300723503000C9900200000FA41A4
:1066D000DF3503001FB50022009102236946043014
:1066E000CDE90132039203F0B3FC05B05DF804FB81
:1066F00038B5054D0A2445F001054FF47A40A84706
:10670000013CFAD138BD00BF0036030073B502ACBE
:106710000E2324F8043D374E21463060FFF7DAFFA0
:106720000546C0B1344A182100F087FD284602B062
:1067300070BD314A2221F7E72F4A2C21F4E72E4A77
:106740003621F1E72C4A4021EEE72B4A4A21EBE7BC
:10675000294A5421E8E7FFF7CBFF0223214630689E
:10676000ADF80430FFF7B6FF05460028E1D1FFF78A
:10677000BFFF4FF4804321463068ADF80430FFF787
:10678000A9FF05460028D7D1FFF7B2FF48F2010361
:1067900021463068ADF80430FFF79CFF054600281D
:1067A000CDD1FFF7A5FF4FF4004321463068ADF887
:1067B0000430FFF78FFF05460028C3D1FFF798FF8D
:1067C00044F2030321463068ADF80430FFF782FF3E
:1067D00005460028B9D1FFF78BFF402321463068DA
:1067E000ADF80430FFF776FF05460028B0D1FFF77B
:1067F0007FFF9BE74CA30020063603002DE9F34101
:1068000007460C4606F0FCFA102806463CD85CBB4E
:1068100002A9202321F8043D1F4B1868FFF75AFFF7
:106820000446C8B9DFF870800025B54238BF7B5DEB
:10683000D8F8000028BF20239A0862F07F029B014D
:1068400001A98DF804208DF80530FFF743FF0446B9
:10685000F0B1124A8E2101E0104A6D2100F0EDFCEA
:10686000204602B0BDE8F081012C0FD102A93023EF
:1068700021F8043D084B1868FFF72CFF0446002858
:10688000D0D0064A7521E9E70924E9E70B24E7E7B8
:106890000135102DC9D1E3E74CA3002006360300D3
:1068A00010B501F065F9852804D018B1094A3521E1
:1068B00000F0C3FC002001F077F900F0B1FE85285C
:1068C000044604D018B1034A3B2100F0B6FC204630
:1068D00010BD00BF6136030038B5054D044645F0D4
:1068E00001054FF47A40A847013CFAD138BD00BFFA
:1068F000803703007FB505460E46144672B602F097
:10690000C3F801F0E5FE0028FBD13E4806F02EF961
:1069100041F201039D4264D006D8012D12D03146C8
:10692000394806F023F910E044F201039D425AD0A1
:1069300044F202039D42F2D122886168334806F096
:1069400015F902E0324806F011F902F0F9FE08B933
:1069500002F0C0FE0023ADF80C308DF80E3003A914
:10696000012319208DF80D3002F0F4FE03A9182040
:1069700002F0F0FE03A9172002F0ECFE192002F04D
:10698000A5FF182002F0A2FF172002F09FFF4FF48E
:10699000FA70FFF7A1FF192002F06AFF182002F039
:1069A00067FF172002F064FF3220FFF795FF1920E0
:1069B00002F08CFF182002F089FF172002F086FFFA
:1069C0004FF4FA70FFF788FF192002F051FF1820EA
:1069D00002F04EFF172002F04BFFFA20FFF77CFF7A
:1069E000CCE70C48AFE7A568284602F0C7FB236850
:1069F00001960093024663680748294606F0B6F8F8
:106A0000A3E700BFBF3603005C370300173703005E
:106A1000D8360300F53603003237030007B502F01D
:106A20008FFE08B902F056FE0023ADF804308DF851
:106A3000063001A9012319208DF8053002F08AFEE5
:106A400001A9182002F086FE01A9172002F082FE9B
:106A5000192002F03BFF182002F038FF172002F047
:106A600035FF4FF4FA70FFF737FF192002F000FFEF
:106A7000182002F0FDFE172002F0FAFE3220FFF788
:106A80002BFF192002F022FF182002F01FFF172011
:106A900002F01CFF4FF4FA70FFF71EFF192002F0FE
:106AA000E7FE182002F0E4FE172002F0E1FEFA20D3
:106AB000FFF712FFCCE770477FB5400003AB8DF8BE
:106AC0000C108DF8150000210B480493009102234F
:106AD0008DF80D208DF8143004AA012340688DF83C
:106AE000161002F0C9FC18B1044A392100F0A5FBC8
:106AF00007B05DF804FB00BF8CA7002098370300A7
:106B000000B589B00F238DF80E300DF10E030493FC
:106B1000012398408DF81500184300218DF81D00C1
:106B20000E4800910DF10F028DF814308DF81630DB
:106B300006928DF81C3004AA022340688DF80F10CD
:106B40008DF81E1002F098FC18B1054A2F2100F0B4
:106B500074FB9DF80F0009B05DF804FB8CA70020C2
:106B600098370300084B5B7A012B07D002D3022B26
:106B700007D07047054B064A1A607047034B054A19
:106B8000FAE7024B044AF7E78CA7002084A700200D
:106B9000295C0F3C295C8F3C295C8F3D0A4B1B7E96
:106BA000032B06D8DFE803F0020C0609074B084A5E
:106BB0001A607047054B074AFAE7044B064AF7E7A5
:106BC000024B064AF4E700BF8CA7002078A70020FC
:106BD00040DA7F3840DAFF3840DA7F39B0E33F3AB5
:106BE0000A4B93F82130032B06D8DFE803F00206A6
:106BF000090C074B074A1A607047054B064AFAE72B
:106C0000034B064AF7E7024B054AF4E78CA700203E
:106C100088A70020F7CC1239240B98399F71E139ED
:106C2000240B183A014B5878FFF76ABF8CA7002055
:106C3000014B9878FFF764BF8CA7002010B5284C53
:106C4000237A13B1A27A5201D3B2E27A617A6078E0
:106C500002F0030242EAC1021A43D2B21021FFF746
:106C60002BFF002211216078FFF726FF227B637B38
:106C7000002A18BF80222BB1A37B03F00F0343F03F
:106C800040031A4312216078FFF716FF627D237DCF
:106C9000002A18BF20220BB142F01002E37C13B18E
:106CA00042F00802D2B2A37D13B142F00202D2B286
:106CB0001E216078FFF700FFE27B237C002A18BFCB
:106CC00020220BB142F01002637C13B142F00802A3
:106CD000D2B260781321BDE81040FFF7EDBE00BFCF
:106CE0008CA7002010B51B4C227FE37E002A18BF22
:106CF00020220BB142F01002A37E13B142F0080231
:106D0000D2B21F216078FFF7D7FEE27D12B1627E1A
:106D10005201D2B2237E607842EAC30294F91D3058
:106D2000D2B2002BA2BF42F0040203F003031A43C5
:106D30002021FFF7C1FEA27F2AB1E27F520102F0BB
:106D4000600242F0800260782121BDE81040FFF728
:106D5000B3BE00BF8CA7002010B51D4C94F82430A2
:106D600094F8221094F82320A0785B018900002A6F
:106D700001F01C0103F0600343EA010318BF802205
:106D80001A432021FFF798FE94F82120A0782121B2
:106D9000FFF792FE94F8263094F82720A078002B75
:106DA00018BF202302F003021A432221FFF784FEBA
:106DB00094F82520A078920002F00C022321FFF71E
:106DC0007BFEA07800222421BDE81040FFF774BEAE
:106DD0008CA70020324B13B5586006205881587696
:106DE00046F60122FF201A8058771C224FF4807447
:106DF000072001219A705C820022588440F201141D
:106E000040F2033019725A729A81DA811A829976A5
:106E1000D97619771A769A77DA7783F8201083F87B
:106E200021209884DA8483F828109C821D49DC8212
:106E30001D4B0A801A804A805A808A809A801B4B98
:106E40001A701B4A92E803006B4683E80300194A54
:106E50001948194603F0DAF920B1184A4FF4C671FF
:106E600000F0EBF9FFF77EFEFFF7BAFEFFF796FEA4
:106E7000FFF7D8FE0446FFF7DBFE40EA042000B22D
:106E800046F63D03984208D1FFF7D8FEFFF72AFFE8
:106E9000FFF762FF002002B010BD4FF0FF30FAE7AD
:106EA0008CA700207EA7002070A700207CA70020D0
:106EB00088370300B76A0200903703009837030051
:106EC0007FB5C1F307238DF80C008DF80D308DF8D8
:106ED0000E1003AB00210B480493009148F6030306
:106EE000ADF8143004AA012300688DF8161002F0E2
:106EF000C3FA18B1044A1E2100F09FF907B05DF8EB
:106F000004FB00BF6CB500202B38030000B58BB02C
:106F10000DF10F030693012398408DF81D0040F0FA
:106F200001008DF80F108DF82500002110488DF814
:106F30001C308DF81E3000910DF11603089306AA3F
:106F400002230068ADF816108DF824308DF8261055
:106F500002F092FA18B1074A0F2100F06EF9BDF85D
:106F60001630D8B21B0A43EA00200BB05DF804FBD0
:106F70006CB500202B380300014B1860704700BF30
:106F80006CB5002007B502AB03E903009DF80030A3
:106F90000C2B17D89DF801101B0343EAC1239DF861
:106FA000021043EA01139DF8031043EAC1039DF860
:106FB00004109BB201201943FFF782FF002003B0A9
:106FC0005DF804FB0820FAE710B501214420FFF723
:106FD0009DFF044624F4C0640146A4B2094805F0AC
:106FE000C5FD2146084844F4806405F0BFFD2146F4
:106FF000064805F0BBFD21460120BDE81040FFF723
:107000005FBF00BFEF370300FF37030015380300F1
:1070100010B52DED028B01214420FFF777FF030609
:10702000F9D500214420FFF771FFC0F30F3300EEC4
:10703000903AB0EE000AF8EE600A04460AF004FE48
:10704000C4F30B0407EE904A10EE100AB8EEE78A7C
:107050000BF0DAFC06A3D3E900230BF02DFD0CF0B6
:1070600003F807EE900A28EE270ABDEC028B10BD4C
:107070007B14AE47E17A843F0369C1688B429DBFB0
:107080008268D21802F1FF3203F1FF3394BF501A25
:10709000581A70472DE9F041D0E902670446F61B03
:1070A0004068964288461546384405D905F07AFC72
:1070B0003D44E560BDE8F0813246AD1B05F072FC51
:1070C0002A4608EB0601606805F06CFCF1E72DE943
:1070D000F843C5680646894617464FF000083469EC
:1070E000B3687068A54228BFE418013C621B5C1BB2
:1070F000BC4228BF3C46944228BF14464946284417
:10710000224605F04FFCB3682544AB4208BF00257A
:107110003F1BA044A144F560E1D14046BDE8F8839F
:1071200010B5114C114AA2610223C4E90433104B7B
:10713000E361A2644FF400730E4A2362E264002309
:1071400010220D49A362E01D6362E362A3656365DB
:10715000E365226505F0E6FD0849204605F0E2FDFD
:107160002023A37110BD00BF70B50020823803003A
:10717000C8A70020B8A700208B3803008F38030071
:10718000F8B5184C182300FB033503FB00402544D9
:10719000C46A012C0F46164611D003D3022C1BD013
:1071A00000240AE02846FFF767FF864205D83246EA
:1071B00039462846FFF76EFF34462046F8BD28467C
:1071C000FFF75AFF8642344628BF04462246394616
:1071D0002846FFF75FFFF0E72846BDE8F840FFF7D5
:1071E00076BF00BF70B5002073B50D4B1B78044609
:1071F0000D4616460BB9FFF793FF02A8002300F8CF
:10720000013D00F0C5FA324629462046FFF7B8FF97
:1072100004469DF8070000F0EBFA204602B070BD6E
:1072200070B50020FFF77CBF10B511461C461A460A
:107230000020FFF7D9FF204610BD00B583B00290B3
:107240000091019244F2010071466A46FFF752FB39
:1072500003B000BD094A537891780133DBB29942FB
:1072600008BF0023117899421FBF0370507818237C
:1072700003FB002014BF043000207047C8A9002081
:1072800073B5054602A8002400F8014D0E4600F033
:107290007FFA0DF10600FFF7DDFF90B106700A4B93
:1072A0009DF8062045605A709DF8070000F0A0FA8E
:1072B00024B9064B4FF48012C3F80021204602B0D7
:1072C00070BD0424F0E700BFC8A9002000E100E081
:1072D000024B4FF43C6043F001031847A038030011
:1072E000F8B51F491F4B0025C1F84051C1F8445162
:1072F000C1F84851C1F84C51C1F80051C1F80451CE
:107300001B684BB3D1F8044517490968641A24F087
:107310007F442F461A68A24209D8A41A15441A7C41
:10732000DE691AB11F74D3E905209047AEB90F4B3F
:107330000F4A197813788B4205D10133DBB2022B47
:1073400008BF0023137012780A4B43F822500A4BEF
:107350004FF48012C3F80021F8BD3346DAE700BFCE
:1073600000100140E8AA0020E4AA0020E0AA0020C2
:10737000E1AA0020D8AA002000E100E02DE9F74FA3
:107380009C4A9D49137809789C4D99423CD0013321
:10739000DBB2022B08BF0023137099491278994B76
:1073A0000F6853F822003B1823F07F4300220B6044
:1073B0002B6816461446944613B942B12B6006E07A
:1073C000196881420ED902B12B60091A19604FF079
:1073D00001082B68DFF834A200930027BEB9DFF85C
:1073E00034B260E0401A0C44D968C3F800C0D3F846
:1073F0001CE031B13A1922F07F42C3E90121DE617C
:107400001E4601227346D7E70026B046E1E7344620
:10741000F6697B4A63681268DFF8FCC1A068991AB4
:1074200021F07F41614500F2A580014421600122E5
:1074300022742A680023C4E90133E361002A40F082
:10744000A2802C60CAE75A1C9BF80210D2B291426B
:107450008BF8002004BF00228BF80020182202FBCA
:1074600003B32A6819799C68022974D003297ED055
:10747000012918D1217CB1B9DA6862601A69A26069
:107480005A69E2609B69A3615F4B1B78002BC0D0F7
:107490006160BEE79C4200F090809946DB69002B5A
:1074A000F8D1002323749BF800309BF801209A4206
:1074B000C9D12B682FB9009A934202D1B8F1000FBD
:1074C00043D0002B41D0D3F800A0504D4C4BD5F801
:1074D00004751C68DFF844813E1B98F8003026F0E4
:1074E0007F4603369BB94FF48033C5F84433C5F863
:1074F0000433474B4FF400324FF00109C3F88021A9
:107500001A60C5F80090FFF7E3FE88F80090B245D6
:107510002CBF5444A41924F07F44C5F84045D5F845
:107520000435DB1B23F07F43E41B033324F07F444B
:10753000A3420AD9D5F80435C5F84035FFF7C8FE8F
:10754000334B4FF40032C3F800212F4B00221A7046
:1075500003B0BDE8F08F13469146A0E71174D269DD
:107560000123002AFAD1002B9DD02A609BE700233B
:107570001946F6E7D31A23F07F43834234BFC31A78
:107580000023236053E721681368994213D8591ADE
:107590001160E26155E7091AD8691A4638B1034605
:1075A00018688842F7D3401A1860184613462160BD
:1075B000E061DC6112E71346F2E74C450DD1D36977
:1075C0002B6053B90E4801920121CAF808100360DC
:1075D0000D4B1970FFF77CFE019AE1692368C9F829
:1075E0001C1011B1086803440B602B689A4218BF45
:1075F000012756E7E0AA0020E1AA0020E8AA00201F
:10760000E4AA0020D8AA0020D4AA0020001001403B
:1076100000E100E0C8A90020FEFF7F00D5AA0020FD
:10762000F8B5194E194D1A4F4FF40033C6F8803093
:1076300001244FF48033C5F84833C5F808336C6033
:10764000FFF746FEAC6000243C60FFF741FE114BA3
:107650001C70114B0B221C809A70104B1C60104B3D
:107660001C70104B4FF480121C70E023C6F8802170
:1076700086F814333260C5F8084586F81133D5F81A
:1076800004353B602046F8BD00E100E000100140F9
:10769000E4AA0020D5AA0020C8A90020E8AA00205A
:1076A000E0AA0020E1AA0020074B9B784BB132B141
:1076B00028B10368187C20B959745A6170470720B3
:1076C00070470820704700BFC8A900202DE9F74384
:1076D0001D4FBB7805460E4690469BB390B30429D8
:1076E0002ED9436973B3437C02A80024012B00F810
:1076F000014D0CBF8946A14600F04AF80DF1060085
:10770000FFF7A8FDD0B101230370104B4560D3F8FB
:107710000435C0E90498C0E902369DF806307B7054
:107720009DF8070000F064F824B9094B4FF480126B
:10773000C3F80021204603B0BDE8F0830424EFE73E
:107740000724F7E70824F5E7C8A900200010014046
:1077500000E100E0064A92783AB130B1426922B1C4
:10776000002202740221FFF78BBD0820704700BF82
:10777000C8A90020EFF30583C3F308032BB9EFF387
:107780001480C04300F001007047012070470000E2
:1077900070B50446FFF7EEFF012803D010494320DF
:1077A00004F04CFCEFF3108672B60E4A9068012389
:1077B00098B993600C4B0D4DD3F88010294011609F
:1077C000C3F88050D3F8841051604FF0FF32C3F8F3
:1077D0008420207006B962B670BD2370FAE700BF3E
:1077E000A6380300E8B5002000E100E0FC06FFBD7C
:1077F00010B50446FFF7BEFF012803D00949512008
:1078000004F01CFC084B9A685AB154B9EFF310818C
:1078100072B6064A18681060586850609C6001B9DA
:1078200062B610BDA6380300E8B5002000E100E014
:10783000024B1B680021986805F0ACB92C99002018
:107840001EF0040F1CBFEFF309800AE0EFF308807D
:107850000549064A884201D8904202D88D464FF029
:107860000000034B184700000000012000E000204A
:10787000757802002DE9F347054601F005F900F09F
:1078800027FF0028FBD12F4B2F4C9F6A2F4BE41A68
:10789000E408240444F00104002D4ED0AA692C49C8
:1078A000204601F099F8EB680193AB6800932949F1
:1078B000D5E90023204601F0AFF8EB690093264993
:1078C000D5E90423204601F09BF81E4BDB6A98079C
:1078D00003D52249204601F07BF8DFF89490DFF8C9
:1078E00094A000264FF0010808FA06F33B4206D0A8
:1078F00059F826201AB15146204601F06DF801369C
:107900001A2EF1D1390605D50E4B15495A6B204672
:1079100001F062F83A0405D50A4B12499A6B2046E9
:1079200001F05AF8104B1B68DB0700D500BE284653
:10793000FFF774F802B0BDE8F0870C49204601F06B
:1079400047F8C2E700ED00E0D8530300705303008E
:10795000FB3803001039030045390300A039030048
:10796000EF3903000F3A0300F0ED00E06D3903003A
:107970002C3A0300E439030050E8002F0B4640E89E
:10798000003C9CF0000FF7D11046704750E8003FD4
:1079900043EA010240E8002C9CF0000FF6D11046AB
:1079A000704750E8002F02EA010340E8003C9CF0D9
:1079B000000FF6D11046704750E8003F03EB01027C
:1079C00040E8002C9CF0000FF6D11046704750E8BC
:1079D000003FA3EB010240E8002C9CF0000FF6D121
:1079E000104670470121FFF7D1BF0021FFF7D9BF33
:1079F00010B50446002834D003681BB91A49FF208B
:107A000004F01CFB636823B917494FF4807004F03D
:107A100015FBA36823B9144940F2011004F00EFBD2
:107A2000E36823B910494FF4817004F007FB238AFF
:107A300023B90D4940F2031004F000FBD4E90123FF
:107A400021689B1ADBB20A60013BDBB2FF2B226884
:107A500002D10020107110BD1168481C10600B701D
:107A6000F2E70E20F7E700BF543F030037B50546A5
:107A700020B914494FF4927004F0E0FA02A80024EF
:107A800000F8014DFFF784FE2A68696813688B428D
:107A900010D9591E116013F8014C2A8AEB6802FBB9
:107AA00004342A68AB6811685B1A1179DBB2994219
:107AB00038BF13719DF80700FFF79AFE204603B008
:107AC00030BD00BF543F030037B50C46054620B912
:107AD000104940F2471004F0B1FA24B90D494FF4AF
:107AE000A47004F0ABFA02A8002300F8013DFFF7F0
:107AF0004FFE2A681368591C1160EA68A41A2A8A82
:107B0000B4FBF2F41C709DF80700FFF771FE03B0A0
:107B100030BD00BF543F030038B5084C04F10803E2
:107B20000546002818BF1C4623682BB11A6822603E
:107B30005B6828469847F7E738BD00BFF4AA0020E5
:107B400020B9054B01225A70FFF7E6BF012802D188
:107B5000014A9070F8E77047ECAA002020B9034B67
:107B600001225A70FFF7D8BF704700BFECAA00206F
:107B700038B50B4C237883B90A486360A36023614E
:107B8000E36001F0B9FC054603F0BAFF08B901F063
:107B9000C9FC01232370284638BD8525FBE700BFBB
:107BA000ECAA0020417B020037B51E4C2378054625
:107BB0001BB91D49E92004F041FAA37803F0FF0244
:107BC000D3B115B16B680120984700230DF1070070
:107BD0008DF80730FFF7DCFDE3689DF807000133FF
:107BE000E360FFF705FEE36823B90F4940F2051093
:107BF00004F024FA03B030BD0DF107008DF8072022
:107C0000FFF7C6FD25B1226913463BB92A602561FD
:107C1000E368002BE0D101F0A3FCDDE79D42F7D043
:107C20001B68F2E7ECAA0020A43F030013B5154C33
:107C3000237823B914494FF4857004F0FFF9E36801
:107C400023B9114940F20B1004F0F8F902A80023FF
:107C500000F8013DFFF79CFDE368013BE360E3684A
:107C600053B903F04DFF18B10749792004F0E6F944
:107C700001F0ACFC0023A3709DF80700FFF7B8FDEE
:107C800002B010BDECAA0020A43F0300012813B5E8
:107C900009D003D303281BD002B010BD134B01221F
:107CA000C3F88020F8E702A80023114C00F8013D3A
:107CB000FFF76EFD23780BB9FFF75AFFE3689DF8D5
:107CC00007000133E3600123A370FFF791FDE3E7B1
:107CD000074B1B7823B9074940F2452004F0AEF961
:107CE00001F020FCFFF7A2FFD6E700BF00E100E0B3
:107CF000ECAA0020A43F03007FB503788DF8043080
:107D00004368029383688DF80C30C3680493036959
:107D10008DF81430054A064B01A853F8213052F86B
:107D20002110984707B05DF804FB00BF00AB0020AE
:107D30000CAB0020F0B50646944616F8047B194AB1
:107D400042F827C0184A42F82730184B0C460FCB90
:107D500085B06D4685E80F0023788DF80030637894
:107D60008DF80130A3788DF80230E3788DF8033078
:107D700023798DF8053063798DF80630A368029376
:107D8000237B8DF80C30BCF1000F637B8DF80D3038
:107D9000074A3B4608BF00222946304602F04AF80F
:107DA00005B0F0BD0CAB002000AB0020FC3F030091
:107DB000F97C02001FB503788DF8003003798DF847
:107DC000043043798DF8053083688DF80630C36838
:107DD0008DF807300369029343690393054A064B04
:107DE000684653F8213052F82110984705B05DF8E5
:107DF00004FB00BF18AB002020AB002002494FF469
:107E0000F37004F01BB900BF9C3503001F2810B5A8
:107E1000044601D9FFF7F2FF012303FA04F44FF0FF
:107E2000A043C3F8084510BD024B4FF4807043F0E7
:107E300001031847104003002DE9F14F924690F8D6
:107E40000080364A42F828A0354A42F828304B7B59
:107E500081460C467BB30B684FF0A04503F5E073F9
:107E600040F20C6245F823204B6803F5E0730026CE
:107E700045F823200868FFF7C9FF6068FFF7C6FFD1
:107E8000236803F5E07340F20D6245F82320636830
:107E900003F5E0734FF0010B45F82320FFF7C4FF13
:107EA00067681F2F01D9FFF7A9FFD5F81035FB40F0
:107EB000DB070ED506BBBAF1000F1A4A434608BFCE
:107EC0000022214609F1040001B0BDE8F04F02F0A4
:107ED0006FBB27681F2F01D9FFF790FF0BFA07F739
:107EE000C5F80C75FFF7A0FF01362068FFF78EFF7D
:107EF000FFF79AFF092ED3D165681F2D01D9FFF72F
:107F00007DFF4FF0A0420123AB40C2F80C35FFF7D4
:107F10008BFF6068FFF77AFFCDE700BF20AB002042
:107F200018AB0020B57D020010B5044618B906490B
:107F3000312004F083F8A2682AB1636921682069BE
:107F400098470023A36010BD164003000EB433B55C
:107F5000059D044618B91249422004F06FF8636980
:107F60001BB90F49432004F069F823681BB90C4979
:107F7000442004F063F863681BB90949452004F004
:107F80005DF83DB102AA06AB42F8043D2946204601
:107F900000F06EF802B0BDE8304003B0704700BF9B
:107FA00016400300826830B40468551C8560A154F3
:107FB000D0E901329A4202D330BCFFF7B5BF30BCE2
:107FC000704700002DE9F84F9946DDE90A4317464E
:107FD000824688460A460126BA420FD24E4538BF2D
:107FE0004E4613F0010B01D164B900240125B9F10B
:107FF000010F1AD909F1FF397D43F8E7B2FBF7F217
:108000000136E9E79B070ED5B9F1000F0CBF30250B
:108010002025A642EAD2013C29465046FFF7C2FF7E
:10802000002CF6D1E1E72025F3E7B8FBF5F39F42FA
:10803000E2D9DFF83890B8FBF5F3504619F8031091
:1080400005FB1388FFF7AEFFB5FBF7F5002DF2D166
:10805000BBF1000F02D00CB1A64201D3BDE8F88FEE
:1080600020215046013CFFF79DFFF4E75C400300F0
:108070002DE9F74F0E469046054620B9AC494FF41E
:10808000A27003F0DBFF6B6923B9A9494FF4A37019
:1080900003F0D4FF2B6823B9A54940F2471003F041
:1080A000CDFF6B6823B9A2494FF4A47003F0C6FF5B
:1080B000002E00F03A8116F8011B002958D025291E
:1080C00040F0D180002702E047F001071646324613
:1080D00012F8013B2D2BF7D0302B04D02B2B05D1E0
:1080E00047F00407F2E747F00207EFE700242A2BE6
:1080F00006F101021BD1D8F80030191DC8F8001094
:108100001B6816461C4433782E2B1CD101364FF0C9
:10811000000A314611F8012BA2F13000092814D8C9
:108120000A2303FB0A23A3F1300A0E46F1E712F8F3
:10813000013CA3F130010929E5D80A2101FB0434EF
:10814000303C1646D3E74FF0000A324612F8011BC6
:1081500001F0FB0068281646F8D0692916D054D8DB
:10816000582970D00ED825297DD03378002BA2D184
:108170002B7B002B00F0D980284603B0BDE8F04FE0
:10818000FFF7D2BE632968D06429EED1D8F8002069
:10819000111DC8F80010D2F8009089EAE972A2EB2C
:1081A000E9724FF0010B092A61DCD34538BFD34691
:1081B0002CB1B9F1000F01DB790700D5013CBA07FA
:1081C00002D5BAF1000F04D0FB0702D4002C54D121
:1081D0000024B9F1000F58DAC9F100092D21284611
:1081E000FFF7E0FE07F00302022A05D1BAF1000F03
:1081F00002D1002C4DD10024CDE9004753460A227C
:1082000049462846FFF7DEFEAFE7732954D016D85B
:108210007029AAD1D8F800301A1DC8F800203021E2
:1082200028461C68FFF7BEFE78212846FFF7BAFEF5
:1082300000220823CDE9003221461022E1E775290A
:108240002FD0782991D1D8F800100A1DC8F8002045
:10825000CDE90047534610222CE0D8F800301A1D13
:10826000C8F8002019782846FFF79CFE7DE70A230E
:108270000BF1010B92FBF3F295E7A345A9D2202164
:108280002846013CFFF78EFEA0E77807AAD52B21F0
:10829000A5E7A345B0D230212846013CFFF782FE76
:1082A000A7E7D8F80010CDE900470A1DC8F800205C
:1082B00053460A220968A4E7D8F800301A1DC8F806
:1082C0000020F907D3F8009012D54F46A7EB090B11
:1082D00017F8011B41B9A345BFF447AF2021284639
:1082E000013CFFF75FFEF6E72846FFF75BFEEDE790
:1082F000B9F1000F17D0484604F082FD0746BC4292
:1083000000D954B909F1FF3919F8011F00293FF4C8
:108310002CAF2846FFF746FEF6E720212846013C11
:10832000FFF740FEEBE74F46E9E703B0BDE8F08F0B
:108330006C4003007047000007B5044B0093044AEB
:10834000402300F032F803B05DF804FB55830200CF
:1083500029AB00202DE9F84389461446B2B10F4BF2
:108360000F4E0325002743F00108224609EB0701C1
:108370000020FEF705FF0744241A48B933782BB1D3
:108380004FF47A40C047013D02D13570BDE8F88313
:1083900001233370002CE8D1F8E700BFD040030080
:1083A00028AB00207047FEF73DBFF0B595B01C46E6
:1083B000164608460D4600F032FD1A9B0D93CDE996
:1083C000086400242346082205A928460A948DF84B
:1083D0002C400C9400F04CFD079B0293BDF8183024
:1083E000ADF80C30BDF81A30ADF80E309DF81430F1
:1083F0008DF8114003F00302012A1DD1BDF814408D
:10840000059EC3F3C203C4F383148DF81030A20099
:1084100008230EA9284600F02BFDC6F3952608ABCD
:108420000093224602AB0EA9304600F09DFB284681
:1084300000F0F9FC15B0F0BD022AF8D1BDF81640E5
:10844000C3F3C203A4098DF810300827082C264670
:1084500028BF08263B4632460EA9284600F008FDF4
:10846000A41B08AB02AA31460EA8374400F0E0FB7B
:10847000002CEBD1DBE7000008B5FFF794FF0421E7
:10848000064800F0D7FA002803DA0549412003F036
:10849000D5FD044B01225A7108BD00BF9054030062
:1084A000E440030014990020037813F0040216D06E
:1084B00003F00303012B03D0022B09D001207047E6
:1084C0000A6800880232C0F3831002440A60F5E7AC
:1084D0000B684288023303EB92130B60EEE7104601
:1084E000704700002DE9F04F89B00646871C08A8A8
:1084F000484C009200230D4600F8113DFFF748F963
:1085000023682B60D4E901231344226801339B1AAA
:1085100004F21C4804F5836B04F21449BB421AD3DD
:10852000009A0023002A6DD0012262F3010343F078
:10853000040366F389132168A2689DF80F000A40BE
:1085400003320F4444F822302760FFF751F901202D
:1085500009B0BDE8F08F01214046FFF72DFA5846DB
:10856000FFF740FA0DF1200A4846FFF73BFA606832
:108570004AF8100DA5682840033004EB80005146EE
:10858000FFF792FF02460498002AF4D105EA00039F
:1085900004EB8303811CDB6805930130054004EB89
:1085A000850503F00303012B0491ED6823D0022B12
:1085B00008D0194901924FF4BF7003F03FFD019AB2
:1085C000154607E0BDF816309B0903332D0C01EB6F
:1085D000930304934846FFF708FA08B1049B6360CD
:1085E00029464046FFF7E8F9D4E9012313442268FD
:1085F00001339B1A92E7BDF81430C3F383132D0C9B
:108600000B44E6E7022262F3010343F0040366F33E
:108610009F5390E73CAC0020534103000B4B0C48A8
:10862000FF2210B59A600022C3F81824C3E9002283
:10863000C3F81424012283F8202400F0A9FB044687
:1086400010B9044800F040FC204610BD3CAC0020AE
:1086500008540300AC41030030B50A4C71B10A4A1A
:108660000A49121BD20800239A4201D1002030BDD2
:1086700031F82350854202D00133F5E7034654F820
:108680003300F4E77053030008540300ECA2002009
:10869000094B013903EBC000032909D8DFE801F0D9
:1086A0000A02040604207047007970474079704739
:1086B000002070470220704770530300034BD3E93A
:1086C0000030C31A58425841704700BF3CAC0020EC
:1086D0002DE9F04387B0FFF7F1FF0646002840F090
:1086E000FC807F4DC5F81804BFF34F8F6868AC68F5
:1086F00006AF47F8100D2040033005EB80003946E7
:10870000FFF7D2FE029B18B1D5F81824002A5FD0DB
:1087100004EA0302991C013305EB8202234005EBB6
:108720008303D268DB68049302F00303022B0392F5
:10873000029162D1BDF80E306A484FEA9318B8F141
:10874000500FC14628BF4FF0500969F38F1309F14C
:108750000801ADF80E3000F033FB0746002800F0AA
:10876000A78000F05CFB03A900230822384600F034
:1087700069FB029924EA01060136B600B14535D9F4
:108780005FFA89F97EB3F6B2A9EB060921400331FD
:108790005FFA89F4B146544E05EB810108234A463D
:1087A000384600F04FFB36B109F108032246314646
:1087B000384600F047FB029B08F1030803EB9803DF
:1087C0000293D5F81834002B4BD1D5F810445BE058
:1087D0002A689A4204D86A60304607B0BDE8F08340
:1087E00004EA030088E740493446D7E721400331D3
:1087F00008234A4605EB8101DAE7012B58D1BDF881
:108800000C303848C3F38311062928BF062161F3D1
:10881000891302318900ADF80C3000F0D1FA074617
:10882000002845D000F0FBFA0023082203A93846AF
:1088300000F008FB0026BDF80C20C2F38312B31C25
:1088400096424FEA8303BCD202994A1C214003316D
:10885000029205EB81010422384600F0F3FA01365A
:10886000E9E7384600F0DFFAFFF728FF80F0010063
:10887000C6B2B1E7E3685B7923B1236839461B6868
:1088800020469847E3681C68002CF3D1384600F076
:10889000CAFA06A800F8114DFEF77AFFD5F8183489
:1088A0000BB9029B6B609DF80700FEF7A1FFDBE7A9
:1088B000D5F8104454B90D4B0D480E49C01AC008E4
:1088C000000440F0020000F083F8CDE72368204662
:1088D0009B689847E3681C68ECE700267CE700BFCC
:1088E0003CAC00200854030048AC00207053030047
:1088F000C8530300B84103002DE9F74F2F4C8046C1
:108900000F46914601A9012218469B46D4F808A0BB
:10891000FFF7E8FD00283DD0019D0026A91C5E451B
:1089200006EB010240D100212548FFF725F880F32E
:10893000100B244B244A4FEA18499B1AB9EBD30F6A
:1089400004D3224940F2A31003F078FB6B1C03EA26
:108950000A0304EB830349EA0B42DA6005EA0A03DF
:108960000333012114F8232068F3C50204F82320FF
:1089700034F8232066F3891224F8232054F82320A6
:1089800067F39F2244F8232061F301026FF3820210
:1089900004F8232094F820341BB1FFF799FE002837
:1089A000FBD103B0BDE8F08F0AEA020204EB8202B9
:1089B00059F82630D3600136B1E700BF3CAC002047
:1089C00058B00020085403007053030053410300C3
:1089D00000231A46FFF790BF13B502AC012344F8F9
:1089E000042D2246FFF788FF02B010BD07B5CDE980
:1089F000002302236A46FFF77FFF03B05DF804FB04
:108A00001FB5CDE90123069B039301AA0323FFF7BA
:108A100073FF05B05DF804FB1FB5CDE90023069B8D
:108A20000293079B03936A460423FFF765FF05B093
:108A30005DF804FB30B5134AD2F8104400232146F8
:108A400051B9C4682371D2F810445CB9C2F810045B
:108A5000C2681160184630BDC9680D799D420AD0C0
:108A60000968EDE7E468C16824680C60D2F8102456
:108A7000D2681060EEE701330A2BE0D14FF0FF33EC
:108A8000E8E700BF3CAC002038B5094A0123D2F822
:108A9000104482F820341D4604B938BDE3685D7186
:108AA000236820465B689847E3681C68F4E700BFCA
:108AB0003CAC002010B5037A052B0C460FD0437A4E
:108AC00023B1084A08492046FFF740FA07492046E3
:108AD000FFF73CFA2046BDE81040FFF725BA002A10
:108AE000F8D0F3E7034203000842030028420300E2
:108AF00073B5C38804460D4633B1144A0092144935
:108B0000144A2846FFF722FA217A05291CD0637AF5
:108B10004BB1A088FFF7BCFD0F4B104953F8202044
:108B20002846FFF713FA227A0D4BA08853F82260EB
:108B30000021FFF791FD0B4903463246284602B05B
:108B4000BDE87040FFF702BA02B070BD03420300F7
:108B5000134203000B420300D0410300084203000C
:108B6000384203002B4203002DE9F04385B01F4635
:108B70000C9D002306460C46904695F80C902B73EE
:108B800029463846FFF7B4FFB8F1060F09D8DFE8E9
:108B900008F00412181F2833400031462846FFF71A
:108BA000D5F9002229463846FFF784FF85F80C9056
:108BB00005B0BDE8F083226831462846FFF7C6F9C4
:108BC000EFE7D4E9002331462846FFF7BFF9E8E78D
:108BD000A36800933146D4E900232846FFF7B6F98D
:108BE000DFE7E3680193A36800933146D4E90023EB
:108BF0002846FFF7ABF9D4E723690293E3680193B2
:108C0000A36800933146D4E900232846FFF79EF974
:108C1000C7E76369039323690293E3680193A36839
:108C200000933146D4E900232846FFF78FF9B8E7CF
:108C300008292DE9F84F80460E4617461C4635D8C0
:108C4000002593F80C901D7319461046FFF750FF4E
:108C5000DFF88CA0DFF88CB0AE4229D918F80520D7
:108C600059462046FFF772F90135082DF4D11A490B
:108C7000DFF874B02046FFF769F94FF0000A564557
:108C800024D918F80A507E2D17D92E22594620468D
:108C9000FFF75CF90AF1010ABAF1080FEFD10122DE
:108CA00021463846FFF706FF84F80C90BDE8F88FA0
:108CB00051462046FFF74AF9D6E703F01DFE284447
:108CC000427812F0970FE0D02A46DFE703492046AA
:108CD000FFF73CF9DEE700BFFE410300FC41030063
:108CE000FA410300F4410300004203002DE9F74F6D
:108CF00099469DF83030019388461746054618B9C5
:108D00002249B62003F09AF9EA8895F805B00BFBE2
:108D100002FBABF1040BCB4503D81C49C42003F084
:108D20008DF93E68B5F806A006EB09025A4509F12F
:108D3000040188BFABEB0906B1FBFAF43E600AFB05
:108D4000141144B9AAEB0107B74228BF37462EB920
:108D500003B0BDE8F08F2D68013CF2E7019A0431C1
:108D600008EB0403681872B101463A461846F61B30
:108D700003F018FEB2453C442D6857464FF0000101
:108D800028BF3746E3E73A461946F0E79742030023
:108D9000FEF72EBEF8B546790146721E0546002341
:108DA00093422D6803D30024A64202D8F8BD0133B4
:108DB000F6E70F682846FEF787FE01343946F3E7E9
:108DC0002DE9F843CD1C068A0746FEF74FFE043E08
:108DD00035440446B5FBF6F5F0B14FF48073EDB2BF
:108DE0008380C680013D076081464FF00008A8459A
:108DF00012D23846FEF73AFE064648B1637901338F
:108E0000637108F10108C9F8000007608146EEE7C8
:108E10002046FFF7BFFF34462046BDE8F883012116
:108E20000430FEF7C9BD10B5012104460430FEF739
:108E3000CEFD10F0FF0F04D12046BDE81040FFF733
:108E4000A9BF10BD30B585B0144604AA002542F86C
:108E5000044D0095FFF74AFF039BA34203D003494B
:108E6000F62003F0EBF805B030BD00BF97420300D9
:108E700030B585B0144604AA012542F8044D00958A
:108E8000FFF734FF039BA34204D003494FF48070E3
:108E900003F0D4F805B030BD97420300064B10B57F
:108EA00000241C70054B1C60BFF35F8F044905480C
:108EB00000F012F9204610BD00B1002004B10020DE
:108EC000E8420300F8B000208268002393608268C3
:108ED0001361826853618268D360826853608268DC
:108EE00013607047026813685268934291BFD01AAA
:108EF00080680130801888BFC01A704738B50C46AA
:108F0000054618B90449772003F098F8AB68A342E6
:108F10008CBF601C002038BDFD42030038B50446FC
:108F200018B907498A2003F089F8236820461D688C
:108F30005968FFF7E3FF431B5842584138BD00BF53
:108F4000FD4203002DE9F3410D46044618B92E49B0
:108F5000952003F073F81DB92B49962003F06EF8A5
:108F600002A8002300F8013DFEF712FC2046FFF79F
:108F7000D5FF804610B1237C002B3BD127682046CB
:108F80007E687968FFF7BAFF7860B8F1000F05D006
:108F9000276820463968FFF7B1FF3860E2686068EB
:108FA000531E072B20D8DFE803F004101F141F1FE7
:108FB0001F182B7883552046FFF794FF23689A6883
:108FC000824200D29860002415E02B8820F81630E9
:108FD000F1E72B6840F82630EDE7D5E9002300EBF8
:108FE000C600C0E90023E6E7294606FB020003F0BD
:108FF000D9FCE0E704249DF80700FEF7F9FB2046C2
:1090000002B0BDE8F08100BFFD42030010B5044688
:1090100020B9064940F20A2003F010F823681868C6
:109020005B68C31A5842584110BD00BFFD4203009F
:109030002DE9F3410C469046054618B92549D9203B
:1090400002F0FCFF1CB92349DA2002F0F7FF02A866
:10905000002300F8013DFEF79BFB2846FFF7D6FFF3
:10906000002834D12F683E68B8F1000F04D1396868
:109070002846FFF743FF3860EA686968531E072BEC
:109080001FD8DFE803F0040F1E131E1E1E178B5D92
:10909000237000249DF80700FEF7AAFB204602B0CB
:1090A000BDE8F08131F816302380F2E751F8263020
:1090B0002360EEE701EBC601D1E90023C4E90023F8
:1090C000E7E706FB0211204603F06CFCE1E705240C
:1090D000E0E700BFFD42030038B50D46044618B96D
:1090E0000849502002F0AAFF1DB90649512002F09C
:1090F000A5FF25602B6863606A68934204BF002364
:10910000636038BD4B43030010B5044618B90B49E2
:10911000632002F093FF23681BB90849642002F022
:109120008DFF636843B1226891680B4463605268A5
:10913000934204BF0023636010BD00BF4B43030094
:109140000D4930B5A1F594720225914201D8002055
:109150000EE08B1ADB1093FBF5F302EBC30452F81D
:109160003330834205D802D204F10802EDE760688B
:1091700030BD2146E9E700BFF044030008B5FFF722
:10918000DFFF024B002808BF184608BDB4430300A8
:10919000C0B2002348700B707047000070B50D46D8
:1091A000044618B90849712002F048FF23681A687C
:1091B00012683AB11A681B6851681B682846BDE8F6
:1091C0007040184770BD00BFAA480300F0B50446C0
:1091D00087B018B92D49372002F030FF2368187E78
:1091E0001A68C0B207B296684FEAC70C06EB0C02C9
:1091F00056F8376051791779927912F0010F4FEADA
:10920000510501F0010139D0002937D1D3F800E030
:109210009EF80CE00130704530DAD3F800E00CF134
:109220000800DEF808C084449CF805C0B5EB5C0F6C
:1092300024D11A6891680A1851F800C0187E517933
:1092400092F804E09279013011F0010F4FEA4212D6
:10925000C0B20CBF0321022102F0200218768DF863
:10926000041004F10C0001A98DF80550CDE9027E2F
:10927000CDE9046C01F0F8FA07B0F0BD52014FF0EF
:10928000000C02F02002E646E9E700BFAA4803000E
:109290002DE9F74F0E46044618B92949872002F0F8
:1092A000CDFE2568DFF89CB04FF0000802A800F85A
:1092B000018DFEF76DFA16B923681B6843B90022C9
:1092C00029466068FFF7B4FE90B3C5F80080002619
:1092D0009DF80700FEF78CFA7EB32B681B694BBB29
:1092E0002F1D10223946686903F02AFBA8B104F14A
:1092F0000C0A504604F1080901F05AFA23465A466E
:1093000039464846FEF798FD18B10D49B42002F0E1
:1093100095FE504601F002FA6F6185F818802046EC
:10932000FFF754FF014640B12046FFF737FFBDE786
:109330000126CDE72B681F69D3E703B0BDE8F08FA6
:10934000AA4803004993020038B50C46054618B9EF
:109350001249D22002F072FE23681B681BB90F4924
:10936000D82002F06BFE297871B92268137E10684C
:109370000133007BDBB2984207D913762046FFF712
:1093800025FF014608B938BD03212046FFF706FF37
:1093900020460121BDE83840FFF77ABFAA48030004
:1093A000F8B50E46044620B919494FF4847002F00E
:1093B00045FE636823B9164940F2091002F03EFEEB
:1093C00063689B6823B912494FF4857002F036FE3A
:1093D00026B90F4940F20B1002F030FE23460D4A29
:1093E000314604F10800FEF727FD074670B904F185
:1093F0000C0001F093F923681F6096E80F002568C0
:10940000043585E80F0023681A1D5A613846F8BDF7
:10941000AA4803004993020037B50546019120B9D7
:10942000144940F22D1002F009FE019B23B91149A5
:109430004FF4977002F002FE019B9B6823B90D491F
:1094400040F22F1002F0FAFD019B1B7B23B9094962
:109450004FF4987002F0F2FD01A96868FFF772FD01
:10946000044618B901462846FFF712FF204603B00C
:1094700030BD00BFAA4803002DE9F04186B0884600
:1094800017461E460C9C054620B9194940F24F105C
:1094900002F0D4FD27B916494FF4A87002F0CEFDB2
:1094A00026B9134940F2511002F0C8FD0023ADF86F
:1094B000003001238DF8003001A90E4B019328469E
:1094C000CDF808D003978DF81060CDF81480FFF721
:1094D000A3FF20B106B0BDE8F08104B1A0479DF81C
:1094E0000030002BF9D19DF80100C0B2F2E700BFB7
:1094F000AA4803009191020010B5044618B9074923
:10950000A02002F09BFD064B187920B901221C60B7
:109510001A71587110BD8520FCE700BFFE4803009A
:1095200008B1002008B50B4B1B791BB90A49B920BB
:1095300002F084FD094B1A68D2075FBFE02283F86E
:10954000002301221A604FF080430122C3F818253E
:1095500008BD00BF08B10020FE48030000E100E0A4
:1095600037B5144B1B791BB91349E62002F066FD91
:10957000124B00221A601B680193019B4FF080433D
:109580000222C3F804230E4AD06840F08073D360EF
:109590000C4B1C6844F0010119605D685968491B57
:1095A000B1F50A5FFAD31C60074BD06001221A6044
:1095B00003B030BD08B10020FE48030004010040A4
:1095C000F0ED00E0001000E00800004008B5084B96
:1095D0001B791BB90749F32002F030FD064B01222D
:1095E0001A604FF08042D2F81834DB03FBD408BD78
:1095F00008B10020FE4803000C00004007B5154BE1
:109600001A687AB100221A601B680093009B4FF021
:1096100080430122C3F808230F4B587910B95A71BF
:109620001B6898470D4B1A6882B100221A601B68AC
:109630000193019B4FF080430222C3F80823064B9D
:109640001B68012003B05DF804EB184703B05DF818
:1096500004FB00BF0001004008B1002004010040ED
:1096600000F1804000F5C040002382B00360036831
:109670000193019B02B07047054B4FF0FF32072862
:1096800043F8202084BF1B1883F84820704700BF90
:1096900010B1002002494FF4F37002F0CFBC00BFBC
:1096A0009C3503001F2838B504460D4601D9FFF745
:1096B000F1FFA00000F1A040D0F8003723F44033C0
:1096C000C0F80037D0F8003743EA0543C0F8003748
:1096D00038BD000010B5164C94F8583033BBFF214C
:1096E000E2180133202B82F83010F9D10021C8B2E2
:1096F000FFF7C2FF01310C29F9D1042200210D48E6
:1097000003F0EAF90C4BE02283F8062340221A60AA
:109710004FF4BE70FFF7A4FF084B4FF00042C3F8B0
:109720000423012384F85830002010BD0820FCE7F2
:1097300010B1002064B1002000E100E000600040B2
:10974000034B93F85800003018BF0120704700BF4A
:1097500010B100201F2870B504460D4604D94149B8
:109760004FF4987002F06AFC3F4E96F85830012B87
:1097700004D03C4940F2311002F060FC25B939496F
:109780004FF4997002F05AFC331993F930200132EA
:1097900065D1AA78002A54D0002356F8231001314D
:1097A0004FEA830248D1311902F1804281F830300A
:1097B000002102F5C04246F82310D2F810052B789C
:1097C000697820F498101B04090520F4F85001F47E
:1097D000801103F44033C2F810050B432102D2F884
:1097E000100501F4F8510B430343C2F810356B78B0
:1097F000012B4FF0010528D11F2C01D9FFF74AFF9B
:109800004FF0A043A540C3F808551F2C01D9FFF71E
:1098100041FF04F5E0724FF0A043032143F822100A
:10982000E2081249012304F0070403FA04F48B5CF4
:109830001C438C54002003E00133082BADD10420DD
:1098400070BDFE2283F83020D1E71F2C01D9FFF72D
:1098500021FF4FF0A043A540C3F80C55D5E70820E1
:10986000EEE700BF5149030010B1002064B10020B1
:109870001F2838B5054604D912494FF4BE7002F0CE
:10988000DDFB114C621992F93020013204D10D49EF
:1098900040F27D1002F0D2FB631993F83030072BB1
:1098A00004D808494FF4BF7002F0C8FB1F2D01D93E
:1098B000FFF7F0FE012303FA05F54FF0A043C3F8CC
:1098C000085538BD5149030010B100201F2838B594
:1098D000054604D912494FF4C37002F0AFFB114C96
:1098E000621992F93020013204D10D4940F28710FB
:1098F00002F0A4FB631993F83030072B04D8084911
:109900004FF4C47002F09AFB1F2D01D9FFF7C2FE7D
:10991000012303FA05F54FF0A043C3F80C5538BDF9
:109920005149030010B100202DE9F04F87B0002409
:109930005B4A5C4E5C4D039401211368A2F5C04064
:10994000012B80B206D1D6F804330B4202D0FFF7C8
:1099500087FE0C430432AA424FEA4101EDD1534B3A
:109960001B68012B0AD14FF4BE70FFF779FE4FF050
:10997000A04344F00044D3F81035039314F0FF0FD4
:109980001AD04B4F00250126344210D0AB0003F112
:10999000804303F5C043D3F81005D3F8101557F8EA
:1099A0002530C0F30420C1F3014103B198470135CC
:1099B000082D4FEA4606E7D1002C6EDA00224FF060
:1099C000FF33CDE904233A4F4FF0000A56464FF0DB
:1099D000A04907EB0A0393F95040631C46D0E4B258
:1099E000012224F0C00504F0070B02FA0BFBEB0880
:1099F00006AAD11811F8042C12EA0B0F36D07A19E6
:109A0000A40992F9302057F82280B8F1000F0AD14A
:109A1000032C2BD10DF1100C1CF8030040EA0B00B5
:109A20000CF8030001E0032CF4D01F2D03D90191A1
:109A3000FFF730FE019911F80C1C05F5E07311EAEF
:109A40000B0F59F82330C3F3014320D0022B0DD163
:109A5000032C05D121462846FFF724FE0136F6B235
:109A6000B8F1000F02D021462846C0470AF1010A8A
:109A7000BAF1040FADD186B14FF0A043039AD3F8E9
:109A800010359A4209D00393049B05939CE7032B5E
:109A9000ECD1032CE4D10221DDE707B0BDE8F08F63
:109AA0000061004000600040206100407C61004097
:109AB00010B1002010B5054C22681AB90449512094
:109AC00002F0BCFA2368BDE8104018476CB10020D2
:109AD000AA49030037B50D4630B90F49772002F087
:109AE000ADFA002003B030BD0C4B9842F9D102A86A
:109AF000002300F8013DFDF74BFE094B1C7914B91A
:109B000001221D601A719DF80700FDF771FE002CFF
:109B1000E7D01120E6E700BFAA490300002000407B
:109B20006CB1002018B906499B2002F087BA054B9A
:109B3000984201BF044B00221A601A71704700BF9F
:109B4000AA490300002000406CB1002000234350CC
:109B500082B043580193019B02B0704770B5D0F8B2
:109B6000103105460C4653B14FF48871FFF7EEFFF4
:109B700063795A0703D523680BB101209847D5F8BC
:109B800014315BB14FF48A712846FFF7DFFF637928
:109B90001B0703D523680BB102209847D5F81C3169
:109BA0005BB128464FF48E71FFF7D0FF607910F05B
:109BB000100002D1236803B19847D5F8043163B18E
:109BC0004FF482712846FFF7C1FF012323712368F8
:109BD0001BB10320BDE87040184770BD0149024821
:109BE000FFF7BCBF74B1002000C00140014902482A
:109BF000FFF7B4BF7CB100200010024001490248C9
:109C0000FFF7ACBF84B100200020024000F180408B
:109C100000F5E040002382B0036003680193019BDC
:109C200002B07047F0B5514B514C1B6885B0DBB1A9
:109C30004FF4827094F82E20FFF7E8FF12B194F8E9
:109C40002F30A3B1636802932389ADF80C30E36829
:109C500000218DF80410002B44D12374236801A83F
:109C60009847002384F82F3094F82E3003B3414BEB
:109C70001B68EBB14FF48070FFF7C8FF94F82D20FC
:109C8000638B91B28B4238D95B1A21899BB2638373
:109C9000CB1A616801EB4301374BC3F82C16C3F8AC
:109CA00030264FF48270FFF7B1FF344B01221A6067
:109CB000334B1B685BB14FF48870FFF7A7FF00239D
:109CC00004A82374022300F80C3D236898472D4B09
:109CD0001B6813B34FF48A70FFF798FF00232374B7
:109CE00005B0F0BD208B608363602081E160002AB5
:109CF000B4D1214B01221A60B0E7D2D1E36801212F
:109D000084F82F103BB1002161831B49C1F82C3628
:109D1000C1F83026C5E76383C3E766694FF00047A3
:109D20000125002EDCD0B6FA86F227FA02F346327D
:109D3000920026EA030602F1804303F5E0431B6824
:109D4000002BEED01046FFF761FFA2F58C72D3080E
:109D500082F00402C2F380028DF808308DF80450BE
:109D60008DF80920236801A89847DAE704710040BC
:109D70008CB1002000710040007000400470004071
:109D8000107100401471004002494FF4F37002F06A
:109D900055B900BF9C3503001F2810B5044601D9F2
:109DA000FFF7F2FF012303FA04F44FF0A043C3F8D6
:109DB0000C4510BD1F2810B5044601D9FFF7E4FF7C
:109DC000012303FA04F44FF0A043C3F8084510BD83
:109DD00013B54FF04023D3F818310BB3114B124C8D
:109DE00000221A601B680193019B236823B90F4965
:109DF0004FF4277002F022F9E07FFF2803D0A37F01
:109E00005BB1FFF7C9FF002363772372D4E9003108
:109E1000074802B0BDE810401847FFF7CBFFF2E754
:109E200002B010BD18410040BCB10020074A030039
:109E3000C4B100202DE9F74F8146CDE900230C463F
:109E400019B97D49AD2002F0F9F899F804607B4F0B
:109E5000242303FB06FB07EB0B0A9AF81C100029CE
:109E600040F0E480D9F8005075492846FFF732FEEB
:109E70008046002840F0DD80009B47F80B30019BB6
:109E8000CAF80430237B2078012B00F2BD80FFF755
:109E900083FF94F800A0BAF11F0F01D9FFF774FFF8
:109EA0000AF5E07A4FF0A043012243F82A2094F803
:109EB00001A0BAF1FF0F00F0AA805046FFF76CFF37
:109EC000BAF11F0FD34601D9FFF75EFF0AF5E07A1A
:109ED0004FF0A043032243F82A20A378FF2B00F081
:109EE00099801F2B9A4603D90093FFF74DFF009BE3
:109EF00003F5E0734FF0A042042142F8231024231D
:109F000003FB0673A27883F82020E278DA77E07802
:109F1000FF2817D02379002B7FD0FFF73DFFE37890
:109F20001F2B03D90093FFF72FFF009B03F5E0736E
:109F30004FF0A042032142F82310242303FB0673B1
:109F400022799A772378C5F80835C5F80CB5C5F895
:109F500010A5A368C5F82435637B227B003318BFA6
:109F60000123022A5CD0032A5DD0012A01D143F0EB
:109F70000203C5F85435A379C5F8C03524237343CB
:109F8000FB5813B14022C5F804230722C5F8002569
:109F90007BB3D9F8003064794FEA133AA31E012B42
:109FA0004FFA8AF506D9631F022B03D925496B2086
:109FB00002F044F8002DACBF05F16043224B4FEA9C
:109FC0004414B8BF0AF00F0AE4B2AABF03F5614314
:109FD00003F80A4083F80043D9F800301B0B5AB24B
:109FE000012103F01F0301FA03F35209174941F855
:109FF0002230242303FB0676002373770123337773
:10A00000404603B0BDE8F08FFFF7D4FE41E74FF0C4
:10A01000FF3B62E74FF0FF3A71E7FFF7CBFE7EE7C9
:10A0200043F00403A5E743F00603A2E74FF0080856
:10A03000E6E74FF01108E3E7074A0300BCB1002050
:10A04000D19D0200534A030014ED00E000E100E05E
:10A050002DE9F341584F0679242303FB067380460C
:10A060001B7F0D46144623B9544940F2322001F0BB
:10A07000E5FF2B6833B96B6823B1504940F23320B8
:10A0800001F0DCFFAB6833B9EB6823B14B494FF407
:10A090000D7001F0D3FF98F804302BB9EB68FF2B5B
:10A0A00002D86B68FF2B04D9444940F2372001F0F5
:10A0B000C5FF24237343FA18517F002979D1FB5837
:10A0C00023B114F0140F04BF0123537795E80F0058
:10A0D0004FF0240C0CFB067C0CF10C0E8EE80F00EC
:10A0E0009CF81F00FF2804D09CF81E30C3B1FFF776
:10A0F00061FE2A6822B102F06043B3F1005F06D12D
:10A10000AB6883B103F06043B3F1005F0BD024234D
:10A1100003FB067600237377102002B0BDE8F081C0
:10A12000FFF73AFEE5E7D8F800306968C3F8442540
:10A13000C3F84815D5E90212C3F83415C3F8382519
:10A140000022C3F81821D3F818210192019A14F0C3
:10A15000010218BF0122C3F8502514F0020218BFF3
:10A160000122C3F8402522075CBF01221A61242284
:10A170007243BA5892B9D3F81821002AFBD024238D
:10A1800003FB0676F07FFF2803D0B47F1CB1FFF7F6
:10A1900003FE0020C1E7FFF70DFEFAE714F004000C
:10A1A0004FF0400202D0C3F80823F2E7C3F80423BB
:10A1B000B3E71120B1E700BFBCB10020074A03009C
:10A1C0002DE9F743002406460F4600F5A0754FF42D
:10A1D0008038A14604F150002B68800080B26BB13A
:10A1E000D6F8043308FA04F21A4207D0C5F80090F2
:10A1F0002B680193019BD7E9003198470134042C67
:10A2000005F10405E6D103B0BDE8F0832DE9F3477D
:10A21000544B0779154602689A4204460E4603D10C
:10A220005149482001F00AFF1EB94F494A2001F068
:10A2300005FF1DB94C494B2001F000FF4B4A0C2390
:10A2400003FB072390461B7A002B40F0898023688C
:10A25000444A93420FD002F5805293420BD002F54C
:10A260008052934207D002F58032934203D002F528
:10A270008052934202D1B378032B03D93A495F202D
:10A2800001F0DCFE0C237B4308EB030248F803508B
:10A29000736853600022154660792168D3B29842F2
:10A2A00002F1010254D8F578AB1E4FEA113A012BA6
:10A2B0004FFA8AF906D96B1F022B03D92C496B2060
:10A2C00001F0BCFEB9F1000FAEBF09F160430AF026
:10A2D0000F03284A28484FEA4515EDB2AABF03F5F7
:10A2E0006143D55483F8005323681B0B59B24909C5
:10A2F000012203F01F0302FA03F340F82130206823
:10A300007378D0F8041503F0030321F003010B4325
:10A31000C0F804352068B378D0F8081503F00303BB
:10A3200021F003010B43C0F8083520683378D0F8DA
:10A33000101503F00F0321F00F010B43C0F8103587
:10A340000C2303FB078700203A7202B0BDE8F087B8
:10A350009B0003F5A073CD50CB580193019B9BE765
:10A360000820F2E7008000409C4A0300E0B1002092
:10A37000534A030014ED00E000E100E038B50B4C57
:10A3800002790C2101FB02420546127A012A03D010
:10A3900007498F2001F052FE2B6801221A602B79A9
:10A3A0000C2202FB034302221A7238BDE0B10020E6
:10A3B0009C4A030073B54FF480348C4005688BB120
:10A3C00001F150039B000026EE50EB580193019BD6
:10A3D0000368C3F80443036801F5A87143F821201A
:10A3E00002B070BDC5F80843F5E7F0B407689DF802
:10A3F00010C0D7F8004240F201158D4024EA050450
:10A40000C7F800420568D5F800422343C5F800327A
:10A41000F0BC6346FFF7CEBF01490248FFF7D0BE4C
:10A42000E0B100200080004001490248FFF7C8BEAB
:10A43000ECB100200090004001490248FFF7C0BE87
:10A44000F8B1002000A000400023435082B04358E0
:10A450000193019B02B07047F0B5504C236887B060
:10A4600023B94F4940F2452001F0E8FD4D4AD2F8AA
:10A4700024311546A3B14FF492711046FFF7E4FF63
:10A48000D2F8043163B9A368C2F808330223A36089
:10A49000A368C2F8043301231362536107B0F0BD0F
:10A4A000D5F80431002B49D03F4F3E484FF482711C
:10A4B000FFF7CAFF0FCF01AE0FC63B68336094F8B9
:10A4C0002E307BB1237B012B0CBFD5F83C25D5F872
:10A4D0004C250292022B334B0CBFD3F83C35D3F8FA
:10A4E0004C3503934FF4B0712E48FFF7ADFF4FF496
:10A4F000AE712C48FFF7A8FF94F8303013B194F8F0
:10A500002E303BB1274B0022C3F80022A260274A1D
:10A51000C3F80823234AD2F8C434C2F8C4349A07D3
:10A5200036D501238DF8003094F830300BB984F81B
:10A530002F30D4E9003168469847AFE74FF4A47153
:10A540001848FFF781FF237B83B9174F0FCF01AE68
:10A550000FC63B68336094F83030002BDAD1C5F871
:10A560000032A360114BC5F80833D3E74FF40073F2
:10A57000C5F8003240F20223A36003F1CE73C5F8A0
:10A580000833A368C5F804330123AB602B6285E769
:10A5900013F0040318BF0223C4E700BF04B2002075
:10A5A000EF4A03000030004010B2002002029C017C
:10A5B0002DE9F74F8046934601930C4619B950494F
:10A5C000A92001F03BFDD4E900239A4203D14C4974
:10A5D000AA2001F033FD98F804704A4E342303FB9F
:10A5E00007FA06EB0A0999F82D20002A40F083802B
:10A5F0004549D8F80000FFF76DFA054600287CD1E0
:10A6000046F80AB0019BC9F80800C9F8043089F877
:10A61000300089F82F00637B89F83230D4F800903D
:10A62000B9F11F0F04D939494FF4F37001F006FD59
:10A630004FF0A04309F5E07940F20C6243F829207D
:10A64000D4F804A0BAF11F0F994604D92F494FF44A
:10A65000F37001F0F3FC0AF5E07A40F20C6349F87C
:10A660002A30D4E90012D8F80030C3F80815C3F82E
:10A670000C25A268C3F8242534237B43F35883B305
:10A68000D8F80030247B4FEA133AA31E012B4FFA6F
:10A690008AF906D9631F022B03D91D496B2001F0EB
:10A6A000CDFCB9F1000FACBF09F16043194B4FEA83
:10A6B0004414B8BF0AF00F0AE4B2AABF03F561431D
:10A6C00003F80A4083F80043D8F800301B0B5AB255
:10A6D000012103F01F0301FA03F352090E4941F867
:10A6E0002230342303FB0766012386F82D302846E9
:10A6F00003B0BDE8F08F0825F9E71125F7E700BFA3
:10A70000EF4A030004B2002059A402009C35030064
:10A71000534A030014ED00E000E100E070B50D4D78
:10A720000479342202FB0452064692F82D20012AB5
:10A7300004D0094940F2111001F080FC3368062270
:10A74000C3F80025342303FB0454022384F82D307E
:10A7500070BD00BF04B20020EF4A030070B5114D78
:10A760000479342202FB0452064692F82D2022B9C5
:10A770000D494FF48E7001F061FC3422336802FB06
:10A7800004540021094AA160C3F80823D3F8002229
:10A7900022F4BC52C3F80022C3F80015012384F848
:10A7A0002D3070BD04B20020EF4A030002029C016C
:10A7B000F8B5294D0479342303FB0453064693F876
:10A7C0002D301BB92549F82001F038FC34236343B0
:10A7D000EB5863B133681B0B5AB20121520903F0E5
:10A7E0001F0301FA03F320321D4941F8223030469D
:10A7F000FFF7B4FF3068FFF795F9342303FB0453E8
:10A8000093F8323003BB3368D3F808751F2F04D98F
:10A8100014494FF4F37001F011FC4FF0A04307F519
:10A82000E077022243F827203268D2F80C751F2FF8
:10A830001E4604D90B494FF4F37001F0FFFB07F5F6
:10A84000E077022346F82730342303FB0454002327
:10A8500084F82D30F8BD00BF04B20020EF4A030099
:10A8600000E100E09C3503002DE9F843037904463C
:10A870000D4690462BB94B68FF2B02D88B68FF2BF7
:10A8800004D9B6494FF4F87001F0D8FB2779B44EDB
:10A8900034237B43F3583BB92B78022B04D1AF49C7
:10A8A0004FF4FB7001F0CAFB34237B43F3583BB9F0
:10A8B0002B78032B04D1A94940F2F71001F0BEFB1D
:10A8C000EB6803F06043B3F1005F03D01022104641
:10A8D000BDE8F8832468A34BC4F808334FF0340C68
:10A8E0000CFB076C9CF82F302BB1DCF80830C4F857
:10A8F00004331122EBE718F0140F0CBF01230023DF
:10A900008CF82F30A946B9E80F000CF10C0EAEE818
:10A910000F00D9F80030CEF80030C8F300138CF8DF
:10A9200030306B78C4F888354FF482712046FFF7D9
:10A930008BFD4FF49271FFF787FD18F0010318BFEC
:10A940000123C4F8503518F0020318BF0123C4F8DE
:10A9500040352B78032B00F2E080DFE803F0A0C83D
:10A96000810218F0100F04D07C4940F2711001F000
:10A9700065FB18F0080F04D078494FF4B97001F066
:10A980005DFB18F0040F04D0744940F2731001F01D
:10A9900055FB2B6903F06043B3F1005F96D14FF490
:10A9A0008073C4F800326B68EA68C4F84425204616
:10A9B000C4F848354FF4A871FFF746FD4FF4B07165
:10A9C000FFF742FD4FF4A471FFF73EFD0123236220
:10A9D000A360D4F85031002BFBD04FF4A87120466F
:10A9E000FFF732FDAB682A69C4F84425C4F848353E
:10A9F000342303FB07635C4A9A604FF48273082197
:10AA0000002218F0080F04D1287803281CBF012069
:10AA100060503421794370187158002940F08280C9
:10AA2000012523441968002900F089803421D4F8D5
:10AA3000C434C4F8C43401FB0766002186F82F1023
:10AA4000002B3FF444AF13F0020F48F2012208BF7D
:10AA5000032213F0040F48F2022318BF1A4636E708
:10AA60006B68EA68C4F84425C4F848352B6903F0DC
:10AA70006042B2F1005F7FF429AFAA68C4F83435B0
:10AA80004FF48453C4F83825C4F80032342303FB50
:10AA9000076340F202229A6001232362ADE76B68EC
:10AAA000EA68C4F8442518F0200FC4F848354FF080
:10AAB000340310D003FB07634FF48072C4F8002204
:10AAC000294A9A604FF4A471FFF7BEFC4FF4A473B7
:10AAD0000122226293E74FF4007203FB0763C4F87C
:10AAE000002240F202229A604FF48273F0E76B6812
:10AAF000EA68C4F83425C4F838354FF48053C4F8F4
:10AB00000032342303FB076340F202229A600123E0
:10AB1000236200214FF4827372E74FF4827308219D
:10AB200007226EE718F0040F1CBF4FF40073836018
:10AB3000342303FB0766B368C4F80433C7E6D4F8CC
:10AB4000241100293FF46EAF4FF492712046FFF7B5
:10AB50007BFC25624FF48273656162E7EF4A030074
:10AB600004B2002002029C01000204006DDF704765
:10AB700079DF70477DDF704764DF70472DE9F74F5D
:10AB80000C9CBDF834B02788002580468A46914643
:10AB90002E46B8F80020B2420BDC35B12288013ACB
:10ABA000D21B92B2FF2A39D8DA55002003B0BDE893
:10ABB000F08FD8F8042052F82600019000220DF101
:10ABC000030101A8FFF7D8FF0028EFD19DF803206B
:10ABD0004A4521D12288002D14BF0020022002EB1B
:10ABE00009010144594519DC3DB9013292B2228074
:10ABF00003F802A022880132228022880DF103018D
:10AC00001A4401A8FFF7B8FF0028CFD121889DF88A
:10AC100003200A44228001250136BAE70C20C5E74B
:10AC20002DE9F341089CBDF824501746CDE90045B5
:10AC300002220646FFF7A2FF48B9102239463046E5
:10AC4000CDE9084502B0BDE8F041FFF797BF02B07B
:10AC5000BDE8F0812DE9F04F00231688138090F8AD
:10AC60002D3085B007460D46144653B3082E01D843
:10AC70000C2026E102A8FFF779FF002840F021818F
:10AC800013880822CA54238801339BB21B222380D5
:10AC9000CA542088013080B2208006220DF10901BB
:10ACA000284401F07FFE23889DF8082006339BB2DC
:10ACB00012F0FE0218BF01222380EA5423880133D8
:10ACC0002380BB78FBB123880433B342D0D802A8D9
:10ACD000FFF74EFF002840F0F48023880322EA5457
:10ACE000238801339BB219222380EA542388BDF8BC
:10ACF000082001339BB2E9182380EA54120A4A70F3
:10AD0000238802332380FA789AB12388D91CB14270
:10AD1000AED80221E954238801339BB2012123805C
:10AD2000E95423880B449BB22380EA5423880B44C4
:10AD300023807A68AAB12388D91CB14298D802210D
:10AD400092F90020E954238801339BB20A21238021
:10AD5000E954238801339BB22380EA5423880133CA
:10AD600023803B89002B40F0A0803B8A5BB1CDE97A
:10AD700000462B460722032107F11000FFF750FF82
:10AD8000002840F09E803B8B5BB1CDE900462B460E
:10AD90001522142107F11800FFF742FF002840F0A8
:10ADA00090803A6A002A40F08F80D7F82480B8F16A
:10ADB000000F30D0B8F804302188981C8A1C024457
:10ADC000B2423FF655AFFE283FF652AF03336B5405
:10ADD000238801339BB2FF222380EA542388013366
:10ADE0009BB22380B8F80020EA54E918120A4A708E
:10ADF0002088023080B22080B8F804205AB1D8F8F8
:10AE0000081000296AD0284401F0CCFD2388B8F846
:10AE100004201344238097F82C30002B40F09980B5
:10AE2000387800284DD03B88012B57D021888A1CC8
:10AE3000B2423FF61DAF012805D17B7802330B44A7
:10AE40009E42FFF415AF023E761A04A9B6B221F86D
:10AE5000086DA818FFF78EFE98BB3978BDF808205A
:10AE6000022900F0BB807B78934202D3B24240F2C9
:10AE7000B380012940F0B4809BB29E42C0F0B08004
:10AE8000ADF808300821BDF80830FE2B3FF6F0AED3
:10AE900022880133AB542288013292B22280A95415
:10AEA00022881344238000200BE0CDE900462B4686
:10AEB0000622022107F10800FFF7B2FE00283FF446
:10AEC00054AF05B0BDE8F08FB4F800C00CF1060334
:10AED000B3423FF6CDAE1188052901D80720F0E72F
:10AEE0006FF4486E01EB0E039BB24FF27D3E73454B
:10AEF000F4D95388052BF1D96FF44860181880B243
:10AF00007045EBD94FF6FF70814203D0834201D0E8
:10AF10009942E3D8052305F80C30238801339BB20E
:10AF200012212380E954238801339BB223801188A6
:10AF3000E954E818090A4170238802339BB2238040
:10AF40005288EA54E918120A4A702388023323808F
:10AF50002BE7BB6A002BC1D04FF000094FF00C0A61
:10AF60004FF0160B97F82C305FFA89F293427FF678
:10AF700057AFB96A0AFB02F201EB0208B8F80430D5
:10AF8000981CFE283FF674AE208803332B54238888
:10AF900001339BB2238005F803B0238801339BB2B1
:10AFA00023808A5AEA54E918120A4A70208802302B
:10AFB00080B22080B8F804205AB1D8F808100029CF
:10AFC0008CD0284401F0EEFC2388B8F80420134408
:10AFD000238009F10109C5E7092154E7B242FBD9F1
:10AFE000ADF808604EE770B5C0B14AB116880024CC
:10AFF000B44203D305196D789D4208D0A14201D80F
:10B0000000200BE0055D01352C44A4B2F0E7A1421D
:10B01000F6D9A31C1380005D013880B270BD37B52E
:10B0200002AC002324F8023D134622460546FFF7F2
:10B03000DAFF10B1BDF80600284403B030BD72DF5E
:10B04000704773DF704738B5012204460D46B0F8EB
:10B050003812D0F83402FFF7E2FF00B1057004F1B6
:10B060003C0204F50D7104F15400BDE83840FFF7CF
:10B07000E6BF80F830107047F8B504460F46002947
:10B0800075D0002873D091F87A301BB191F89830C0
:10B09000002B6ED1D7F8A030042B6AD0D7F89C30A3
:10B0A000042B66D04FF0000C84F802C007F178063C
:10B0B0000FCE251D0FC50FCE0FC596E8070085E8FA
:10B0C000070084F830C0D7F8A4306363D7F8A830FD
:10B0D000A3634FF6FF7504F50D73C4F84432A4F86A
:10B0E00048520722614604F24A2001F0F5FC237819
:10B0F0000BB984F8545094F8243004F15501C4F885
:10B10000341283B3EE23A4F8383204F50E723846B5
:10B11000FFF7A0FD30BB94F8243004F24311C4F8CB
:10B120003C1213B3EE23A4F8403204F5107207F179
:10B130003C00FFF78FFDA8B9A269A4F848200123BD
:10B140006269206484F850006264014684F85130DA
:10B1500084F83C3004F13C0204F15400FFF76FFF27
:10B1600000B92370F8BD1F23CDE71F23DBE70E20B6
:10B17000F8E70720F6E7F8B5077804460D46002FF4
:10B1800000F0058100F24A26A17007220021304616
:10B1900001F0A2FCE38813B1A378012B04D0E3797A
:10B1A0004BB1A378022B06D1636BA3B1012284F8C3
:10B1B000512208209847334604F5147113F8012FE3
:10B1C00012B99942FAD117466B1E032B53D8DFE808
:10B1D00003F0050B0F1284F85132ECE7A3791BB191
:10B1E00094F8243003B95FB9E3790BB1002F44D14F
:10B1F000237A002B43D1637A002B0CBF0025042552
:10B20000636BA570002B3CD0033D012D39D86279CA
:10B21000002A36D094F85222002A32D184F85422DF
:10B22000012284F853220720984704F13C05182294
:10B230000021284601F050FCE36A94F82420012103
:10B24000581E884288BF0B4684F83C1084F8513061
:10B2500032B1884296BFA36A84F8521084F8523003
:10B26000A178002384F8503004291BD8DFE801F0CE
:10B27000770D223559000025C2E70225C0E70325D6
:10B28000BEE7002384F85332CFE7C4F84432C4E960
:10B2900010630223012284F83C30802384F831209B
:10B2A000A4F84830A378002B5CD1636B002B6AD1E3
:10B2B000002067E0022384F8313062B1072384F86C
:10B2C0003C302369A4F848300023C4F84432E368D2
:10B2D00026646364E6E70323F1E763696364A369B3
:10B2E000A4F8483012B1062384F83C306379B3B136
:10B2F00094F852329BB994F8543283B1022384F803
:10B30000503004212046FFF79EFE0028CAD10523B5
:10B3100084F8313004F50D73C4F84432C2E70323D6
:10B32000F6E7E3696364236AA4F8483012B10623A0
:10B3300084F83C30637983B194F852326BB994F855
:10B34000543253B1022384F8503004212046FFF7D1
:10B350007AFE0028A6D10623DAE70423D8E784F88A
:10B3600031309FE72A46D4F8441204F15400FFF725
:10B3700066FE38B994F8301094F85400FFF761FE77
:10B38000002892D0F8BD94F83100984790E7082043
:10B39000F8E710B50388112B0C460AD0262B1FD0D6
:10B3A000102B05D1C37B012B02D18388A1F8483231
:10B3B00010BD002381F852328288B1F848329A4297
:10B3C000F6D10B79002BF3D101212046FFF7D3FEF4
:10B3D0000028EDD0A36B002BEAD0BDE81040184741
:10B3E000037A013B012BE3D889780523013191FBD6
:10B3F000F3F303EB8303C91AC9B2E6E7704775DFBD
:10B40000704776DF70477ADF70477BDF7047000058
:10B41000034B1A8882420CBF18460020704700BFB9
:10B4200054B20020024B9B6903B11847704700BF1C
:10B4300038B2002037B585B22846FFF7E9FF03464A
:10B4400070B1164C017A227B91420BD200F10A01B5
:10B450002846FFF7D4FFE8B1112801D0FFF7E2FF3B
:10B4600003B030BD237C0022027243B13B21284649
:10B47000FFF7C7FF30F0080301D0FFF7D3FF636980
:10B48000002BEDD000228DF80420ADF8065001A865
:10B490009847E5E71A7A01321A72E1E738B20020DC
:10B4A00013B50B46497A0F4C024669B9D4E901102D
:10B4B0001C7A002C18BF01465868FCF707F908B140
:10B4C000FFF7B0FF02B010BD002119726369002BB5
:10B4D000F8D00121ADF806008DF8041001A89847B6
:10B4E000F0E700BF38B2002030B583880588B3F597
:10B4F000FA7F24BF6FF4F9729C184A8838BF002481
:10B5000095420CD84088904209D38A88A24206D33B
:10B5100003F2F310904234BF0020012030BD002020
:10B52000FCE7000070B50388112B014648D002D813
:10B53000102B1ED070BD122B52D0502BFAD12F4B96
:10B54000C288DB899A42F5D1038A022BF2D1868820
:10B550003046FFF75DFF05460028EBD001F11200F1
:10B5600000F08AF830BB6868FCF7F4F80028E1D0F6
:10B5700009E0C37B012BDDD14FF6FF70FFF748FFD9
:10B58000054620B90420BDE87040FFF74BBF8E8808
:10B590001B4A0680002303721368C5F80A300A307C
:10B5A000536843601031FFF79FFF144B6872DB89CB
:10B5B000002BBFD129463046BDE87040FFF770BF71
:10B5C0008088FFF725FF04460028B3D04068FCF7C9
:10B5D000C1F808B1FFF726FF4FF6FF732380A9E7F4
:10B5E00086883046FFF714FF05460028A2D00831B0
:10B5F0000A30FFF779FF6872DCE700BF38B200203D
:10B6000068B20020F8B5064650B305460FCD154F79
:10B610003C460FC495E8070084E807003068124BE9
:10B620003B60B8B1FFF7EFFEC8B931680A681A602D
:10B630004A685A600D480E4A4FF6FF7303800D4B5F
:10B6400040F8043F0021FCF72FF8002814BF032026
:10B65000002004E01846FFF7D8FE0028EAD0F8BD25
:10B660000E20FCE738B2002068B2002054B200205F
:10B6700035B4020070B20020007800F0010070477D
:10B6800090DF7047A5DF7047B5DF70477FB50023B7
:10B69000ADF80810ADF80A106A4602A906460393F1
:10B6A0000093ADF80430FFF7EBFF0546F8B1114BFE
:10B6B000114CE41AE408FDF761FD240444F0010490
:10B6C000034632460D492046FDF790F9BDF80020AB
:10B6D000BDF8023002B91BB109492046FDF786F9D1
:10B6E000BDF804201AB107492046FDF775F9284630
:10B6F00004B070BD70530300E05303004B4B0300D4
:10B70000954B0300D44B030088B14FF0F71303604F
:10B71000FB230371F723C3801723038141F6FB3218
:10B72000002301618372C3728281184670470E2024
:10B730007047000013B5034680880C46A0B91A88EC
:10B74000232A00F0AF8011D8102A25D0112A54D016
:10B75000A37A4BB1E1880020FFF794FF002840F066
:10B76000A7800123A072E37202B010BD3A2A4ED026
:10B77000552A68D0242AEBD11A7A0B694A73002B18
:10B78000E6D04DF67A21ADF80400ADF80010ADF822
:10B7900002008DF8042081E00A790A73DB7B012B1B
:10B7A00013D0022B14D0E18823898B4205D20020CC
:10B7B000FFF768FF70B90123E372217B637B8B4243
:10B7C000C6D20020FFF762FFC2E70B88E380EAE7FA
:10B7D0004B88FBE7112802D10123A372EDE7FDF7A7
:10B7E000CDFC3C4A3C4B3D499B1ADB081B040246FE
:10B7F00043F00100FDF7F0F8DFE7F723CB801723D4
:10B800000B8141F6FB338872C8728B81A0E75B899C
:10B81000CA88934228BF1346172B0A6938BF1723DB
:10B820000B8162B1C97A51B140F67721ADF80010B1
:10B83000ADF80200ADF80430694620469047002379
:10B84000E372A37284E7DB88C988A072172B38BF24
:10B8500017238B4228BF0B462381FFF715FF60B1EA
:10B86000FDF78CFC1B4A1C4B1D499B1ADB081B0473
:10B87000024643F00100FDF7AFF8E27A002A7FF4B8
:10B8800067AF2369002B3FF463AF40F67721ADF833
:10B8900002202289ADF80010ADF804206946204648
:10B8A000984755E7197A237B994228BF194689E7BB
:10B8B00011283FF459AFFDF761FC064A064B0749D2
:10B8C0009B1ADB081B04024643F00100FDF784F8D5
:10B8D0004AE700BF70530300E05303002A4C030003
:10B8E0005B4C0300B0DF704766DF704710B503465E
:10B8F00000214088FFF7F8FF024608B91A7210BD10
:10B90000112801D10122F9E75B68BDE81040184712
:10B9100060B159B10378DE2B0AD00B684360DE2397
:10B9200003704FF6FF734380002070470E2070476E
:10B930000820704728B10378DE2B04D14180002015
:10B9400070470E20704708207047F0B5054685B057
:10B950000C46F1B1E8B10B78DE2B1AD182884B8806
:10B960009A4204D10B7A13B10846FFF7BFFF2B8828
:10B97000112B32D0512B0ED0012B0AD12B7A012B57
:10B9800007D1A9886288914203D123722046FFF72C
:10B99000ADFF05B0F0BDAE886388B342F9D1AF7991
:10B9A000022FF6D1AD7B2B1F022BF2D800211022E3
:10B9B000684601F091F8052D14BF4FF4C0730023C1
:10B9C000694630468DF80070ADF80430FFF78AFF05
:10B9D0000028DED063689847DBE76388AA889A422C
:10B9E00004BF4FF6FF736380D3E710DF704700009A
:10B9F00013B5044609496846FDF76EFB019808B97E
:10BA000002B010BDD0E900312046984718B1684611
:10BA1000FDF77AFBF2E71120F2E700BF9C4C030030
:10BA200013B5044607496846FDF756FB019B0BB961
:10BA300002B010BD2046D3E9002190476846FDF7CB
:10BA400063FBF3E7B44C03000C4991F816335A0931
:10BA5000EC231341DB0706D5094B9A684AB94FF42A
:10BA600080030B607047074AA12142F20200FBF7F6
:10BA7000E4BB1A6842F480021A60704700E100E0FB
:10BA8000E8B50020C04C0300F7B5184F3C785CBB0C
:10BA9000174E012520463570FFF7AAFF112820D048
:10BAA0002046FFF7BDFF134B1868019002A800F86D
:10BAB000054DFBF76DFE104901A8FFF796FF044600
:10BAC000B0FA80F0400938709DF80300FBF790FE53
:10BAD0003CB90A4B34701C70FFF7B6FF2846FFF7DD
